{
	"data": {
		"bytecode": {
			"linkReferences": {},
			"object": "608060405260006006819055600781905560085569021e19e0c9bab24000006009556202a300600a55600e805461ffff191690553480156200004057600080fd5b50604051620027f7380380620027f7833981016040819052620000639162000103565b6200006e33620000b3565b6000805460ff60a01b1916600160a01b179055600180546001600160a01b039384166001600160a01b031991821617909155600280549290931691161790556200015b565b600080546001600160a01b038381166001600160a01b0319831681178455604051919092169283917f8be0079c531659141344cd1fd0a4f28419497f9722a3daafe3b4186f6b6457e09190a35050565b600080604083850312156200011757600080fd5b8251620001248162000142565b6020840151909250620001378162000142565b809150509250929050565b6001600160a01b03811681146200015857600080fd5b50565b61268c806200016b6000396000f3fe608060405234801561001057600080fd5b50600436106101a85760003560e01c80636a3ef057116100f95780638da5cb5b11610097578063b40b03d211610071578063b40b03d2146103d2578063c0c472c0146103e5578063dd55fcb3146103ee578063f2fde38b1461040157600080fd5b80638da5cb5b146103925780639af69f2f146103b75780639e6dee4a146103bf57600080fd5b806376531008116100d357806376531008146102ec578063771f2476146102ff5780637bde72dc146103765780638b6a036d1461037f57600080fd5b80636a3ef057146102b05780636f234fb5146102c35780636f257875146102e357600080fd5b806337a2897911610166578063457e578911610140578063457e5789146102795780635b519142146102825780635c975abb14610295578063607af397146102a757600080fd5b806337a289791461025057806337a386b91461026357806339db714f1461026c57600080fd5b80620d07ce146101ad5780630db7af53146101c9578063150b7a02146101ec57806316c38b3c146102185780631e1d8cf81461022d578063201ef2a414610236575b600080fd5b6101b660095481565b6040519081526020015b60405180910390f35b6101dc6101d73660046123fc565b610414565b60405190151581526020016101c0565b6101ff6101fa366004612184565b6104a1565b6040516001600160e01b031990911681526020016101c0565b61022b610226366004612311565b61051d565b005b6101b6600b5481565b61023e600881565b60405160ff90911681526020016101c0565b61022b61025e36600461242e565b610560565b6101b6600a5481565b600e546101dc9060ff1681565b6101b6600c5481565b61022b610290366004612223565b610592565b600054600160a01b900460ff166101dc565b6101b6600d5481565b61022b6102be3660046122cf565b61091c565b6101b66102d13660046123fc565b60056020526000908152604090205481565b6101b660065481565b61022b6102fa366004612311565b610e25565b61034561030d3660046123fc565b60036020526000908152604090205461ffff8116906201000081046001600160501b031690600160601b90046001600160a01b031683565b6040805161ffff90941684526001600160501b0390921660208401526001600160a01b0316908201526060016101c0565b6101b660085481565b6101b66b07c13bc4b2c133c56000000081565b6000546001600160a01b03165b6040516001600160a01b0390911681526020016101c0565b6101b6601481565b61039f6103cd3660046123fc565b610e62565b61022b6103e0366004612278565b610f51565b6101b660075481565b6103456103fc36600461242e565b6111a8565b61022b61040f36600461214a565b6111fb565b60015460405163e05c57bf60e01b8152600481018390526000916001600160a01b03169063e05c57bf906024016101206040518083038186803b15801561045a57600080fd5b505afa15801561046e573d6000803e3d6000fd5b505050506040513d601f19601f82011682018060405250810190610492919061232e565b50969998505050505050505050565b60006001600160a01b0385161561050b5760405162461bcd60e51b815260206004820152602360248201527f43616e6e6f742073656e6420746f6b656e7320746f204261726e206469726563604482015262746c7960e81b60648201526084015b60405180910390fd5b50630a85bd0160e11b95945050505050565b6000546001600160a01b031633146105475760405162461bcd60e51b8152600401610502906124f2565b801561055857610555611293565b50565b610555611315565b6000546001600160a01b0316331461058a5760405162461bcd60e51b8152600401610502906124f2565b600a55600955565b600e54610100900460ff16156105ba5760405162461bcd60e51b81526004016105029061249f565b600e805461ff0019166101001790556105d03390565b6001600160a01b0316836001600160a01b03161480156105f857506001600160a01b03831632145b8061061657506001546001600160a01b0316336001600160a01b0316145b6106625760405162461bcd60e51b815260206004820152601a60248201527f444f4e54204749564520594f555220544f4b454e5320415741590000000000006044820152606401610502565b60005b8181101561090b5782828281811061067f5761067f61261d565b905060200201602081019061069491906123d8565b61ffff166106a1576108f9565b6001546001600160a01b0316336001600160a01b0316146108545760015433906001600160a01b0316636352211e8585858181106106e1576106e161261d565b90506020020160208101906106f691906123d8565b6040516001600160e01b031960e084901b16815261ffff909116600482015260240160206040518083038186803b15801561073057600080fd5b505afa158015610744573d6000803e3d6000fd5b505050506040513d601f19601f820116820180604052508101906107689190612167565b6001600160a01b0316146107ae5760405162461bcd60e51b815260206004820152600d60248201526c20a4a72a102ca7902a27a5a2a760991b6044820152606401610502565b6001546001600160a01b03166323b872dd33308686868181106107d3576107d361261d565b90506020020160208101906107e891906123d8565b6040516001600160e01b031960e086901b1681526001600160a01b03938416600482015292909116602483015261ffff166044820152606401600060405180830381600087803b15801561083b57600080fd5b505af115801561084f573d6000803e3d6000fd5b505050505b6108878383838181106108695761086961261d565b905060200201602081019061087e91906123d8565b61ffff16610414565b156108c5576108c0848484848181106108a2576108a261261d565b90506020020160208101906108b791906123d8565b61ffff1661139a565b6108f9565b6108f9848484848181106108db576108db61261d565b90506020020160208101906108f091906123d8565b61ffff16611511565b80610903816125ac565b915050610665565b5050600e805461ff00191690555050565b600e54610100900460ff16156109445760405162461bcd60e51b81526004016105029061249f565b600e805461ff001981166101001790915560ff166109965760405162461bcd60e51b815260206004820152600f60248201526e149154d0d55148111254d050931151608a1b6044820152606401610502565b60408051606080820183526000808352602080840182905283850182905284519283018552818352820181905292810183905282805b85811015610e11578686828181106109e6576109e661261d565b9050602002013594506109f885610414565b15610b41576000858152600360209081526040918290208251606081018452905461ffff811682526201000081046001600160501b031692820192909252600160601b9091046001600160a01b031691810182905294503314610a6d5760405162461bcd60e51b8152600401610502906124c6565b6001546001600160a01b03166323b872dd3033886040518463ffffffff1660e01b8152600401610a9f93929190612450565b600060405180830381600087803b158015610ab957600080fd5b505af1158015610acd573d6000803e3d6000fd5b5050506000868152600360205260408120819055600c805460019350909190610af7908490612572565b9091555050604080518681526000602082015260018183015290517f77eeeceeb03a054c3bb2bf8e5b43d03bed962c2351fb292cf68fedca9f6a82a29181900360600190a1610dff565b610b4a85611627565b60ff166000818152600460209081526040808320898452600590925290912054815492945090918110610b7f57610b7f61261d565b600091825260209182902060408051606081018252929091015461ffff811683526201000081046001600160501b031693830193909352600160601b9092046001600160a01b031691810182905294503314610bed5760405162461bcd60e51b8152600401610502906124c6565b8160066000828254610bff9190612572565b90915550506001546001600160a01b03166323b872dd3033886040518463ffffffff1660e01b8152600401610c3693929190612450565b600060405180830381600087803b158015610c5057600080fd5b505af1158015610c64573d6000803e3d6000fd5b50505060008381526004602052604090208054909150610c8690600190612572565b81548110610c9657610c9661261d565b6000918252602080832060408051606081018252939091015461ffff811684526201000081046001600160501b031684840152600160601b90046001600160a01b0316838201528584526004825280842089855260059092529092205482549195508592918110610d0957610d0961261d565b60009182526020808320845192018054858301516040968701516001600160a01b0316600160601b026001600160601b036001600160501b0390921662010000026001600160601b031990931661ffff968716179290921716179055888352600581528383205487519092168352838320919091558482526004905220805480610d9557610d95612607565b6000828152602080822083016000199081018390559290920190925586825260058152604080832083905580518881529182019290925260018183015290517f34478fbe5499eed4dbe01a401ad9153550f5f43c8818d1dc1d745cb4b81ba2909181900360600190a15b80610e09816125ac565b9150506109cc565b5050600e805461ff00191690555050505050565b6000546001600160a01b03163314610e4f5760405162461bcd60e51b8152600401610502906124f2565b600e805460ff1916911515919091179055565b600060065460001415610e7757506000919050565b60006006548363ffffffff16610e8d91906125c7565b60209390931c929050600080610ea560036008612589565b60ff1690505b60088111610f4657600081815260046020526040902054610ecd908290612553565b610ed79083612527565b9150818310610ee557610f34565b60008181526004602052604090208054610eff90876125c7565b81548110610f0f57610f0f61261d565b600091825260209091200154600160601b90046001600160a01b031695945050505050565b80610f3e816125ac565b915050610eab565b506000949350505050565b600e54610100900460ff1615610f795760405162461bcd60e51b81526004016105029061249f565b600e805461ff001916610100179055610f9c60005460ff600160a01b9091041690565b15610fb95760405162461bcd60e51b815260040161050290612474565b6b07c13bc4b2c133c560000000600b5410156110205762015180600954600c54600d5442610fe79190612572565b610ff19190612553565b610ffb9190612553565b611005919061253f565b600b60008282546110169190612527565b909155505042600d555b33321461105a5760405162461bcd60e51b81526020600482015260086024820152674f6e6c7920454f4160c01b6044820152606401610502565b6000805b838110156111185761107b8585838181106108695761086961261d565b156110c5576110b48585838181106110955761109561261d565b90506020020160208101906110aa91906123d8565b61ffff16846116c7565b6110be9083612527565b9150611106565b6110f98585838181106110da576110da61261d565b90506020020160208101906110ef91906123d8565b61ffff1684611a3e565b6111039083612527565b91505b80611110816125ac565b91505061105e565b50806111245750611198565b6002546001600160a01b03166340c10f19336040516001600160e01b031960e084901b1681526001600160a01b03909116600482015260248101849052604401600060405180830381600087803b15801561117e57600080fd5b505af1158015611192573d6000803e3d6000fd5b50505050505b5050600e805461ff001916905550565b600460205281600052604060002081815481106111c457600080fd5b60009182526020909120015461ffff811692506201000081046001600160501b03169150600160601b90046001600160a01b031683565b6000546001600160a01b031633146112255760405162461bcd60e51b8152600401610502906124f2565b6001600160a01b03811661128a5760405162461bcd60e51b815260206004820152602660248201527f4f776e61626c653a206e6577206f776e657220697320746865207a65726f206160448201526564647265737360d01b6064820152608401610502565b61055581611edd565b600054600160a01b900460ff16156112bd5760405162461bcd60e51b815260040161050290612474565b6000805460ff60a01b1916600160a01b1790557f62e78cea01bee320cd4e420270b5ea74000d11b0c9f74754ebdbfc544b05a2586112f83390565b6040516001600160a01b03909116815260200160405180910390a1565b600054600160a01b900460ff166113665760405162461bcd60e51b815260206004820152601560248201527414185d5cd958589b194e881b9bdd081c185d5cd959605a1b6044820152606401610502565b6000805460ff60a01b191690557f5db9ee0a495bf2e6ff9c91a7834c1ba4fdd244a5e8aa4e537bd38aeae4b073aa336112f8565b600054600160a01b900460ff16156113c45760405162461bcd60e51b815260040161050290612474565b6b07c13bc4b2c133c560000000600b54101561142b5762015180600954600c54600d54426113f29190612572565b6113fc9190612553565b6114069190612553565b611410919061253f565b600b60008282546114219190612527565b909155505042600d555b6040805160608101825261ffff80841682526001600160501b0342811660208085019182526001600160a01b03808916868801908152600089815260039093529682209551865493519751909116600160601b026001600160601b039790941662010000026001600160601b03199093169416939093171793909316929092179055600c8054600192906114c0908490612527565b9091555050604080516001600160a01b038416815260208101839052428183015290517f6173e4d2d9dd52aae0ed37afed3adcf924a490639b759ca93d32dc43366c17d29181900360600190a15050565b600061151c82611627565b60ff16905080600660008282546115339190612527565b9091555050600081815260046020818152604080842080548786526005845282862081905593835281516060808201845261ffff808a168352600880546001600160501b039081168589019081526001600160a01b038e8116878a0181815260018d018a55988d529b8a9020965196909a01805491519751969094166001600160601b031990911617620100009690911695909502949094176001600160601b0316600160601b93909716929092029590951790555481519485529184018690528301527f6173e4d2d9dd52aae0ed37afed3adcf924a490639b759ca93d32dc43366c17d2910160405180910390a1505050565b60015460405163e05c57bf60e01b81526004810183905260009182916001600160a01b039091169063e05c57bf906024016101206040518083038186803b15801561167157600080fd5b505afa158015611685573d6000803e3d6000fd5b505050506040513d601f19601f820116820180604052508101906116a9919061232e565b985050505050505050508060086116c09190612589565b9392505050565b60008281526003602090815260408083208151606081018352905461ffff811682526201000081046001600160501b031693820193909352600160601b9092046001600160a01b031690820181905233146117345760405162461bcd60e51b8152600401610502906124c6565b8280156117595750600a546020820151611757906001600160501b031642612572565b105b156117b25760405162461bcd60e51b8152602060048201526024808201527f474f4e4e4120424520434f4c4420574954484f55542054574f204441592753206044820152631313d3d560e21b6064820152608401610502565b6b07c13bc4b2c133c560000000600b541015611803576201518060095482602001516001600160501b0316426117e89190612572565b6117f29190612553565b6117fc919061253f565b915061185c565b600d5481602001516001600160501b03161115611823576000915061185c565b6201518060095482602001516001600160501b0316600d546118459190612572565b61184f9190612553565b611859919061253f565b91505b82156119195761186b84611f2d565b600116600114156118845761187f8261208f565b600091505b6001546001600160a01b03166323b872dd3033876040518463ffffffff1660e01b81526004016118b693929190612450565b600060405180830381600087803b1580156118d057600080fd5b505af11580156118e4573d6000803e3d6000fd5b5050506000858152600360205260408120819055600c80546001935090919061190e908490612572565b909155506119f69050565b6119386064611929601485612553565b611933919061253f565b61208f565b6064611945601482612572565b61194f9084612553565b611959919061253f565b915060405180606001604052808561ffff168152602001426001600160501b031681526020016119863390565b6001600160a01b0390811690915260008681526003602090815260409182902084518154928601519590930151909316600160601b026001600160601b036001600160501b0390951662010000026001600160601b031990921661ffff9093169290921717929092169190911790555b60408051858152602081018490528415158183015290517f77eeeceeb03a054c3bb2bf8e5b43d03bed962c2351fb292cf68fedca9f6a82a29181900360600190a15092915050565b6001546040516331a9108f60e11b81526004810184905260009130916001600160a01b0390911690636352211e9060240160206040518083038186803b158015611a8757600080fd5b505afa158015611a9b573d6000803e3d6000fd5b505050506040513d601f19601f82011682018060405250810190611abf9190612167565b6001600160a01b031614611b155760405162461bcd60e51b815260206004820152601760248201527f41494e5420412050415254204f4620544845205041434b0000000000000000006044820152606401610502565b6000611b2084611627565b60ff1660008181526004602090815260408083208884526005909252822054815493945091929091908110611b5757611b5761261d565b600091825260209182902060408051606081018252929091015461ffff811683526201000081046001600160501b031693830193909352600160601b9092046001600160a01b031691810182905291503314611bc55760405162461bcd60e51b8152600401610502906124c6565b80602001516001600160501b0316600854611be09190612572565b611bea9083612553565b92508315611dc8578160066000828254611c049190612572565b90915550506001546001600160a01b03166323b872dd3033886040518463ffffffff1660e01b8152600401611c3b93929190612450565b600060405180830381600087803b158015611c5557600080fd5b505af1158015611c69573d6000803e3d6000fd5b5050506000838152600460205260408120805491925090611c8c90600190612572565b81548110611c9c57611c9c61261d565b6000918252602080832060408051606081018252939091015461ffff811684526201000081046001600160501b031684840152600160601b90046001600160a01b031683820152868452600482528084208a855260059092529092205482549193508392918110611d0f57611d0f61261d565b60009182526020808320845192018054858301516040968701516001600160a01b0316600160601b026001600160601b036001600160501b0390921662010000026001600160601b031990931661ffff968716179290921716179055898352600581528383205485519092168352838320919091558582526004905220805480611d9b57611d9b612607565b60008281526020808220830160001990810183905590920190925587825260059052604081205550611e94565b60405180606001604052808661ffff1681526020016008546001600160501b03168152602001611df53390565b6001600160a01b03169052600083815260046020908152604080832089845260059092529091205481548110611e2d57611e2d61261d565b6000918252602091829020835191018054928401516040909401516001600160a01b0316600160601b026001600160601b036001600160501b0390951662010000026001600160601b031990941661ffff9093169290921792909217929092169190911790555b60408051868152602081018590528515158183015290517f34478fbe5499eed4dbe01a401ad9153550f5f43c8818d1dc1d745cb4b81ba2909181900360600190a1505092915050565b600080546001600160a01b038381166001600160a01b0319831681178455604051919092169283917f8be0079c531659141344cd1fd0a4f28419497f9722a3daafe3b4186f6b6457e09190a35050565b60015460408051630644dbb360e11b815290516000926001600160a01b031691630c89b766916004808301926020929190829003018186803b158015611f7257600080fd5b505afa158015611f86573d6000803e3d6000fd5b505050506040513d601f19601f82011682018060405250810190611faa9190612167565b6001600160a01b0316637d94792a6040518163ffffffff1660e01b815260040160206040518083038186803b158015611fe257600080fd5b505afa158015611ff6573d6000803e3d6000fd5b505050506040513d601f19601f8201168201806040525081019061201a9190612415565b32612026600143612572565b600c54600654600d5460405160609590951b6001600160601b03191660208601529240603485015242605485015260748401879052609484019190915260b483015260d482015260f40160408051601f1981840301815291905280516020909101201892915050565b6006546120b05780600760008282546120a89190612527565b909155505050565b6006546007546120c09083612527565b6120ca919061253f565b600860008282546120db9190612527565b9091555050600060075550565b60008083601f8401126120fa57600080fd5b50813567ffffffffffffffff81111561211257600080fd5b6020830191508360208260051b850101111561212d57600080fd5b9250929050565b805160ff8116811461214557600080fd5b919050565b60006020828403121561215c57600080fd5b81356116c081612633565b60006020828403121561217957600080fd5b81516116c081612633565b60008060008060006080868803121561219c57600080fd5b85356121a781612633565b945060208601356121b781612633565b935060408601359250606086013567ffffffffffffffff808211156121db57600080fd5b818801915088601f8301126121ef57600080fd5b8135818111156121fe57600080fd5b89602082850101111561221057600080fd5b9699959850939650602001949392505050565b60008060006040848603121561223857600080fd5b833561224381612633565b9250602084013567ffffffffffffffff81111561225f57600080fd5b61226b868287016120e8565b9497909650939450505050565b60008060006040848603121561228d57600080fd5b833567ffffffffffffffff8111156122a457600080fd5b6122b0868287016120e8565b90945092505060208401356122c481612648565b809150509250925092565b600080602083850312156122e257600080fd5b823567ffffffffffffffff8111156122f957600080fd5b612305858286016120e8565b90969095509350505050565b60006020828403121561232357600080fd5b81356116c081612648565b60008060008060008060008060006101208a8c03121561234d57600080fd5b895161235881612648565b985061236660208b01612134565b975061237460408b01612134565b965061238260608b01612134565b955061239060808b01612134565b945061239e60a08b01612134565b93506123ac60c08b01612134565b92506123ba60e08b01612134565b91506123c96101008b01612134565b90509295985092959850929598565b6000602082840312156123ea57600080fd5b813561ffff811681146116c057600080fd5b60006020828403121561240e57600080fd5b5035919050565b60006020828403121561242757600080fd5b5051919050565b6000806040838503121561244157600080fd5b50508035926020909101359150565b6001600160a01b039384168152919092166020820152604081019190915260600190565b60208082526011908201527014185d5cd958589b194e881c185d5cd959607a1b604082015260600190565b6020808252600d908201526c4e6f207265656e7472616e637960981b604082015260600190565b6020808252601290820152715357495045522c204e4f2053574950494e4760701b604082015260600190565b6020808252818101527f4f776e61626c653a2063616c6c6572206973206e6f7420746865206f776e6572604082015260600190565b6000821982111561253a5761253a6125db565b500190565b60008261254e5761254e6125f1565b500490565b600081600019048311821515161561256d5761256d6125db565b500290565b600082821015612584576125846125db565b500390565b600060ff821660ff8416808210156125a3576125a36125db565b90039392505050565b60006000198214156125c0576125c06125db565b5060010190565b6000826125d6576125d66125f1565b500690565b634e487b7160e01b600052601160045260246000fd5b634e487b7160e01b600052601260045260246000fd5b634e487b7160e01b600052603160045260246000fd5b634e487b7160e01b600052603260045260246000fd5b6001600160a01b038116811461055557600080fd5b801515811461055557600080fdfea2646970667358221220fe2bab7a8f4be7eaab59249fd376c6a3fe539967626919b5cbfd4a5a9070b3a264736f6c63430008070033",
			"opcodes": "PUSH1 0x80 PUSH1 0x40 MSTORE PUSH1 0x0 PUSH1 0x6 DUP2 SWAP1 SSTORE PUSH1 0x7 DUP2 SWAP1 SSTORE PUSH1 0x8 SSTORE PUSH10 0x21E19E0C9BAB2400000 PUSH1 0x9 SSTORE PUSH3 0x2A300 PUSH1 0xA SSTORE PUSH1 0xE DUP1 SLOAD PUSH2 0xFFFF NOT AND SWAP1 SSTORE CALLVALUE DUP1 ISZERO PUSH3 0x40 JUMPI PUSH1 0x0 DUP1 REVERT JUMPDEST POP PUSH1 0x40 MLOAD PUSH3 0x27F7 CODESIZE SUB DUP1 PUSH3 0x27F7 DUP4 CODECOPY DUP2 ADD PUSH1 0x40 DUP2 SWAP1 MSTORE PUSH3 0x63 SWAP2 PUSH3 0x103 JUMP JUMPDEST PUSH3 0x6E CALLER PUSH3 0xB3 JUMP JUMPDEST PUSH1 0x0 DUP1 SLOAD PUSH1 0xFF PUSH1 0xA0 SHL NOT AND PUSH1 0x1 PUSH1 0xA0 SHL OR SWAP1 SSTORE PUSH1 0x1 DUP1 SLOAD PUSH1 0x1 PUSH1 0x1 PUSH1 0xA0 SHL SUB SWAP4 DUP5 AND PUSH1 0x1 PUSH1 0x1 PUSH1 0xA0 SHL SUB NOT SWAP2 DUP3 AND OR SWAP1 SWAP2 SSTORE PUSH1 0x2 DUP1 SLOAD SWAP3 SWAP1 SWAP4 AND SWAP2 AND OR SWAP1 SSTORE PUSH3 0x15B JUMP JUMPDEST PUSH1 0x0 DUP1 SLOAD PUSH1 0x1 PUSH1 0x1 PUSH1 0xA0 SHL SUB DUP4 DUP2 AND PUSH1 0x1 PUSH1 0x1 PUSH1 0xA0 SHL SUB NOT DUP4 AND DUP2 OR DUP5 SSTORE PUSH1 0x40 MLOAD SWAP2 SWAP1 SWAP3 AND SWAP3 DUP4 SWAP2 PUSH32 0x8BE0079C531659141344CD1FD0A4F28419497F9722A3DAAFE3B4186F6B6457E0 SWAP2 SWAP1 LOG3 POP POP JUMP JUMPDEST PUSH1 0x0 DUP1 PUSH1 0x40 DUP4 DUP6 SUB SLT ISZERO PUSH3 0x117 JUMPI PUSH1 0x0 DUP1 REVERT JUMPDEST DUP3 MLOAD PUSH3 0x124 DUP2 PUSH3 0x142 JUMP JUMPDEST PUSH1 0x20 DUP5 ADD MLOAD SWAP1 SWAP3 POP PUSH3 0x137 DUP2 PUSH3 0x142 JUMP JUMPDEST DUP1 SWAP2 POP POP SWAP3 POP SWAP3 SWAP1 POP JUMP JUMPDEST PUSH1 0x1 PUSH1 0x1 PUSH1 0xA0 SHL SUB DUP2 AND DUP2 EQ PUSH3 0x158 JUMPI PUSH1 0x0 DUP1 REVERT JUMPDEST POP JUMP JUMPDEST PUSH2 0x268C DUP1 PUSH3 0x16B PUSH1 0x0 CODECOPY PUSH1 0x0 RETURN INVALID PUSH1 0x80 PUSH1 0x40 MSTORE CALLVALUE DUP1 ISZERO PUSH2 0x10 JUMPI PUSH1 0x0 DUP1 REVERT JUMPDEST POP PUSH1 0x4 CALLDATASIZE LT PUSH2 0x1A8 JUMPI PUSH1 0x0 CALLDATALOAD PUSH1 0xE0 SHR DUP1 PUSH4 0x6A3EF057 GT PUSH2 0xF9 JUMPI DUP1 PUSH4 0x8DA5CB5B GT PUSH2 0x97 JUMPI DUP1 PUSH4 0xB40B03D2 GT PUSH2 0x71 JUMPI DUP1 PUSH4 0xB40B03D2 EQ PUSH2 0x3D2 JUMPI DUP1 PUSH4 0xC0C472C0 EQ PUSH2 0x3E5 JUMPI DUP1 PUSH4 0xDD55FCB3 EQ PUSH2 0x3EE JUMPI DUP1 PUSH4 0xF2FDE38B EQ PUSH2 0x401 JUMPI PUSH1 0x0 DUP1 REVERT JUMPDEST DUP1 PUSH4 0x8DA5CB5B EQ PUSH2 0x392 JUMPI DUP1 PUSH4 0x9AF69F2F EQ PUSH2 0x3B7 JUMPI DUP1 PUSH4 0x9E6DEE4A EQ PUSH2 0x3BF JUMPI PUSH1 0x0 DUP1 REVERT JUMPDEST DUP1 PUSH4 0x76531008 GT PUSH2 0xD3 JUMPI DUP1 PUSH4 0x76531008 EQ PUSH2 0x2EC JUMPI DUP1 PUSH4 0x771F2476 EQ PUSH2 0x2FF JUMPI DUP1 PUSH4 0x7BDE72DC EQ PUSH2 0x376 JUMPI DUP1 PUSH4 0x8B6A036D EQ PUSH2 0x37F JUMPI PUSH1 0x0 DUP1 REVERT JUMPDEST DUP1 PUSH4 0x6A3EF057 EQ PUSH2 0x2B0 JUMPI DUP1 PUSH4 0x6F234FB5 EQ PUSH2 0x2C3 JUMPI DUP1 PUSH4 0x6F257875 EQ PUSH2 0x2E3 JUMPI PUSH1 0x0 DUP1 REVERT JUMPDEST DUP1 PUSH4 0x37A28979 GT PUSH2 0x166 JUMPI DUP1 PUSH4 0x457E5789 GT PUSH2 0x140 JUMPI DUP1 PUSH4 0x457E5789 EQ PUSH2 0x279 JUMPI DUP1 PUSH4 0x5B519142 EQ PUSH2 0x282 JUMPI DUP1 PUSH4 0x5C975ABB EQ PUSH2 0x295 JUMPI DUP1 PUSH4 0x607AF397 EQ PUSH2 0x2A7 JUMPI PUSH1 0x0 DUP1 REVERT JUMPDEST DUP1 PUSH4 0x37A28979 EQ PUSH2 0x250 JUMPI DUP1 PUSH4 0x37A386B9 EQ PUSH2 0x263 JUMPI DUP1 PUSH4 0x39DB714F EQ PUSH2 0x26C JUMPI PUSH1 0x0 DUP1 REVERT JUMPDEST DUP1 PUSH3 0xD07CE EQ PUSH2 0x1AD JUMPI DUP1 PUSH4 0xDB7AF53 EQ PUSH2 0x1C9 JUMPI DUP1 PUSH4 0x150B7A02 EQ PUSH2 0x1EC JUMPI DUP1 PUSH4 0x16C38B3C EQ PUSH2 0x218 JUMPI DUP1 PUSH4 0x1E1D8CF8 EQ PUSH2 0x22D JUMPI DUP1 PUSH4 0x201EF2A4 EQ PUSH2 0x236 JUMPI JUMPDEST PUSH1 0x0 DUP1 REVERT JUMPDEST PUSH2 0x1B6 PUSH1 0x9 SLOAD DUP2 JUMP JUMPDEST PUSH1 0x40 MLOAD SWAP1 DUP2 MSTORE PUSH1 0x20 ADD JUMPDEST PUSH1 0x40 MLOAD DUP1 SWAP2 SUB SWAP1 RETURN JUMPDEST PUSH2 0x1DC PUSH2 0x1D7 CALLDATASIZE PUSH1 0x4 PUSH2 0x23FC JUMP JUMPDEST PUSH2 0x414 JUMP JUMPDEST PUSH1 0x40 MLOAD SWAP1 ISZERO ISZERO DUP2 MSTORE PUSH1 0x20 ADD PUSH2 0x1C0 JUMP JUMPDEST PUSH2 0x1FF PUSH2 0x1FA CALLDATASIZE PUSH1 0x4 PUSH2 0x2184 JUMP JUMPDEST PUSH2 0x4A1 JUMP JUMPDEST PUSH1 0x40 MLOAD PUSH1 0x1 PUSH1 0x1 PUSH1 0xE0 SHL SUB NOT SWAP1 SWAP2 AND DUP2 MSTORE PUSH1 0x20 ADD PUSH2 0x1C0 JUMP JUMPDEST PUSH2 0x22B PUSH2 0x226 CALLDATASIZE PUSH1 0x4 PUSH2 0x2311 JUMP JUMPDEST PUSH2 0x51D JUMP JUMPDEST STOP JUMPDEST PUSH2 0x1B6 PUSH1 0xB SLOAD DUP2 JUMP JUMPDEST PUSH2 0x23E PUSH1 0x8 DUP2 JUMP JUMPDEST PUSH1 0x40 MLOAD PUSH1 0xFF SWAP1 SWAP2 AND DUP2 MSTORE PUSH1 0x20 ADD PUSH2 0x1C0 JUMP JUMPDEST PUSH2 0x22B PUSH2 0x25E CALLDATASIZE PUSH1 0x4 PUSH2 0x242E JUMP JUMPDEST PUSH2 0x560 JUMP JUMPDEST PUSH2 0x1B6 PUSH1 0xA SLOAD DUP2 JUMP JUMPDEST PUSH1 0xE SLOAD PUSH2 0x1DC SWAP1 PUSH1 0xFF AND DUP2 JUMP JUMPDEST PUSH2 0x1B6 PUSH1 0xC SLOAD DUP2 JUMP JUMPDEST PUSH2 0x22B PUSH2 0x290 CALLDATASIZE PUSH1 0x4 PUSH2 0x2223 JUMP JUMPDEST PUSH2 0x592 JUMP JUMPDEST PUSH1 0x0 SLOAD PUSH1 0x1 PUSH1 0xA0 SHL SWAP1 DIV PUSH1 0xFF AND PUSH2 0x1DC JUMP JUMPDEST PUSH2 0x1B6 PUSH1 0xD SLOAD DUP2 JUMP JUMPDEST PUSH2 0x22B PUSH2 0x2BE CALLDATASIZE PUSH1 0x4 PUSH2 0x22CF JUMP JUMPDEST PUSH2 0x91C JUMP JUMPDEST PUSH2 0x1B6 PUSH2 0x2D1 CALLDATASIZE PUSH1 0x4 PUSH2 0x23FC JUMP JUMPDEST PUSH1 0x5 PUSH1 0x20 MSTORE PUSH1 0x0 SWAP1 DUP2 MSTORE PUSH1 0x40 SWAP1 KECCAK256 SLOAD DUP2 JUMP JUMPDEST PUSH2 0x1B6 PUSH1 0x6 SLOAD DUP2 JUMP JUMPDEST PUSH2 0x22B PUSH2 0x2FA CALLDATASIZE PUSH1 0x4 PUSH2 0x2311 JUMP JUMPDEST PUSH2 0xE25 JUMP JUMPDEST PUSH2 0x345 PUSH2 0x30D CALLDATASIZE PUSH1 0x4 PUSH2 0x23FC JUMP JUMPDEST PUSH1 0x3 PUSH1 0x20 MSTORE PUSH1 0x0 SWAP1 DUP2 MSTORE PUSH1 0x40 SWAP1 KECCAK256 SLOAD PUSH2 0xFFFF DUP2 AND SWAP1 PUSH3 0x10000 DUP2 DIV PUSH1 0x1 PUSH1 0x1 PUSH1 0x50 SHL SUB AND SWAP1 PUSH1 0x1 PUSH1 0x60 SHL SWAP1 DIV PUSH1 0x1 PUSH1 0x1 PUSH1 0xA0 SHL SUB AND DUP4 JUMP JUMPDEST PUSH1 0x40 DUP1 MLOAD PUSH2 0xFFFF SWAP1 SWAP5 AND DUP5 MSTORE PUSH1 0x1 PUSH1 0x1 PUSH1 0x50 SHL SUB SWAP1 SWAP3 AND PUSH1 0x20 DUP5 ADD MSTORE PUSH1 0x1 PUSH1 0x1 PUSH1 0xA0 SHL SUB AND SWAP1 DUP3 ADD MSTORE PUSH1 0x60 ADD PUSH2 0x1C0 JUMP JUMPDEST PUSH2 0x1B6 PUSH1 0x8 SLOAD DUP2 JUMP JUMPDEST PUSH2 0x1B6 PUSH12 0x7C13BC4B2C133C560000000 DUP2 JUMP JUMPDEST PUSH1 0x0 SLOAD PUSH1 0x1 PUSH1 0x1 PUSH1 0xA0 SHL SUB AND JUMPDEST PUSH1 0x40 MLOAD PUSH1 0x1 PUSH1 0x1 PUSH1 0xA0 SHL SUB SWAP1 SWAP2 AND DUP2 MSTORE PUSH1 0x20 ADD PUSH2 0x1C0 JUMP JUMPDEST PUSH2 0x1B6 PUSH1 0x14 DUP2 JUMP JUMPDEST PUSH2 0x39F PUSH2 0x3CD CALLDATASIZE PUSH1 0x4 PUSH2 0x23FC JUMP JUMPDEST PUSH2 0xE62 JUMP JUMPDEST PUSH2 0x22B PUSH2 0x3E0 CALLDATASIZE PUSH1 0x4 PUSH2 0x2278 JUMP JUMPDEST PUSH2 0xF51 JUMP JUMPDEST PUSH2 0x1B6 PUSH1 0x7 SLOAD DUP2 JUMP JUMPDEST PUSH2 0x345 PUSH2 0x3FC CALLDATASIZE PUSH1 0x4 PUSH2 0x242E JUMP JUMPDEST PUSH2 0x11A8 JUMP JUMPDEST PUSH2 0x22B PUSH2 0x40F CALLDATASIZE PUSH1 0x4 PUSH2 0x214A JUMP JUMPDEST PUSH2 0x11FB JUMP JUMPDEST PUSH1 0x1 SLOAD PUSH1 0x40 MLOAD PUSH4 0xE05C57BF PUSH1 0xE0 SHL DUP2 MSTORE PUSH1 0x4 DUP2 ADD DUP4 SWAP1 MSTORE PUSH1 0x0 SWAP2 PUSH1 0x1 PUSH1 0x1 PUSH1 0xA0 SHL SUB AND SWAP1 PUSH4 0xE05C57BF SWAP1 PUSH1 0x24 ADD PUSH2 0x120 PUSH1 0x40 MLOAD DUP1 DUP4 SUB DUP2 DUP7 DUP1 EXTCODESIZE ISZERO DUP1 ISZERO PUSH2 0x45A JUMPI PUSH1 0x0 DUP1 REVERT JUMPDEST POP GAS STATICCALL ISZERO DUP1 ISZERO PUSH2 0x46E JUMPI RETURNDATASIZE PUSH1 0x0 DUP1 RETURNDATACOPY RETURNDATASIZE PUSH1 0x0 REVERT JUMPDEST POP POP POP POP PUSH1 0x40 MLOAD RETURNDATASIZE PUSH1 0x1F NOT PUSH1 0x1F DUP3 ADD AND DUP3 ADD DUP1 PUSH1 0x40 MSTORE POP DUP2 ADD SWAP1 PUSH2 0x492 SWAP2 SWAP1 PUSH2 0x232E JUMP JUMPDEST POP SWAP7 SWAP10 SWAP9 POP POP POP POP POP POP POP POP POP JUMP JUMPDEST PUSH1 0x0 PUSH1 0x1 PUSH1 0x1 PUSH1 0xA0 SHL SUB DUP6 AND ISZERO PUSH2 0x50B JUMPI PUSH1 0x40 MLOAD PUSH3 0x461BCD PUSH1 0xE5 SHL DUP2 MSTORE PUSH1 0x20 PUSH1 0x4 DUP3 ADD MSTORE PUSH1 0x23 PUSH1 0x24 DUP3 ADD MSTORE PUSH32 0x43616E6E6F742073656E6420746F6B656E7320746F204261726E206469726563 PUSH1 0x44 DUP3 ADD MSTORE PUSH3 0x746C79 PUSH1 0xE8 SHL PUSH1 0x64 DUP3 ADD MSTORE PUSH1 0x84 ADD JUMPDEST PUSH1 0x40 MLOAD DUP1 SWAP2 SUB SWAP1 REVERT JUMPDEST POP PUSH4 0xA85BD01 PUSH1 0xE1 SHL SWAP6 SWAP5 POP POP POP POP POP JUMP JUMPDEST PUSH1 0x0 SLOAD PUSH1 0x1 PUSH1 0x1 PUSH1 0xA0 SHL SUB AND CALLER EQ PUSH2 0x547 JUMPI PUSH1 0x40 MLOAD PUSH3 0x461BCD PUSH1 0xE5 SHL DUP2 MSTORE PUSH1 0x4 ADD PUSH2 0x502 SWAP1 PUSH2 0x24F2 JUMP JUMPDEST DUP1 ISZERO PUSH2 0x558 JUMPI PUSH2 0x555 PUSH2 0x1293 JUMP JUMPDEST POP JUMP JUMPDEST PUSH2 0x555 PUSH2 0x1315 JUMP JUMPDEST PUSH1 0x0 SLOAD PUSH1 0x1 PUSH1 0x1 PUSH1 0xA0 SHL SUB AND CALLER EQ PUSH2 0x58A JUMPI PUSH1 0x40 MLOAD PUSH3 0x461BCD PUSH1 0xE5 SHL DUP2 MSTORE PUSH1 0x4 ADD PUSH2 0x502 SWAP1 PUSH2 0x24F2 JUMP JUMPDEST PUSH1 0xA SSTORE PUSH1 0x9 SSTORE JUMP JUMPDEST PUSH1 0xE SLOAD PUSH2 0x100 SWAP1 DIV PUSH1 0xFF AND ISZERO PUSH2 0x5BA JUMPI PUSH1 0x40 MLOAD PUSH3 0x461BCD PUSH1 0xE5 SHL DUP2 MSTORE PUSH1 0x4 ADD PUSH2 0x502 SWAP1 PUSH2 0x249F JUMP JUMPDEST PUSH1 0xE DUP1 SLOAD PUSH2 0xFF00 NOT AND PUSH2 0x100 OR SWAP1 SSTORE PUSH2 0x5D0 CALLER SWAP1 JUMP JUMPDEST PUSH1 0x1 PUSH1 0x1 PUSH1 0xA0 SHL SUB AND DUP4 PUSH1 0x1 PUSH1 0x1 PUSH1 0xA0 SHL SUB AND EQ DUP1 ISZERO PUSH2 0x5F8 JUMPI POP PUSH1 0x1 PUSH1 0x1 PUSH1 0xA0 SHL SUB DUP4 AND ORIGIN EQ JUMPDEST DUP1 PUSH2 0x616 JUMPI POP PUSH1 0x1 SLOAD PUSH1 0x1 PUSH1 0x1 PUSH1 0xA0 SHL SUB AND CALLER PUSH1 0x1 PUSH1 0x1 PUSH1 0xA0 SHL SUB AND EQ JUMPDEST PUSH2 0x662 JUMPI PUSH1 0x40 MLOAD PUSH3 0x461BCD PUSH1 0xE5 SHL DUP2 MSTORE PUSH1 0x20 PUSH1 0x4 DUP3 ADD MSTORE PUSH1 0x1A PUSH1 0x24 DUP3 ADD MSTORE PUSH32 0x444F4E54204749564520594F555220544F4B454E532041574159000000000000 PUSH1 0x44 DUP3 ADD MSTORE PUSH1 0x64 ADD PUSH2 0x502 JUMP JUMPDEST PUSH1 0x0 JUMPDEST DUP2 DUP2 LT ISZERO PUSH2 0x90B JUMPI DUP3 DUP3 DUP3 DUP2 DUP2 LT PUSH2 0x67F JUMPI PUSH2 0x67F PUSH2 0x261D JUMP JUMPDEST SWAP1 POP PUSH1 0x20 MUL ADD PUSH1 0x20 DUP2 ADD SWAP1 PUSH2 0x694 SWAP2 SWAP1 PUSH2 0x23D8 JUMP JUMPDEST PUSH2 0xFFFF AND PUSH2 0x6A1 JUMPI PUSH2 0x8F9 JUMP JUMPDEST PUSH1 0x1 SLOAD PUSH1 0x1 PUSH1 0x1 PUSH1 0xA0 SHL SUB AND CALLER PUSH1 0x1 PUSH1 0x1 PUSH1 0xA0 SHL SUB AND EQ PUSH2 0x854 JUMPI PUSH1 0x1 SLOAD CALLER SWAP1 PUSH1 0x1 PUSH1 0x1 PUSH1 0xA0 SHL SUB AND PUSH4 0x6352211E DUP6 DUP6 DUP6 DUP2 DUP2 LT PUSH2 0x6E1 JUMPI PUSH2 0x6E1 PUSH2 0x261D JUMP JUMPDEST SWAP1 POP PUSH1 0x20 MUL ADD PUSH1 0x20 DUP2 ADD SWAP1 PUSH2 0x6F6 SWAP2 SWAP1 PUSH2 0x23D8 JUMP JUMPDEST PUSH1 0x40 MLOAD PUSH1 0x1 PUSH1 0x1 PUSH1 0xE0 SHL SUB NOT PUSH1 0xE0 DUP5 SWAP1 SHL AND DUP2 MSTORE PUSH2 0xFFFF SWAP1 SWAP2 AND PUSH1 0x4 DUP3 ADD MSTORE PUSH1 0x24 ADD PUSH1 0x20 PUSH1 0x40 MLOAD DUP1 DUP4 SUB DUP2 DUP7 DUP1 EXTCODESIZE ISZERO DUP1 ISZERO PUSH2 0x730 JUMPI PUSH1 0x0 DUP1 REVERT JUMPDEST POP GAS STATICCALL ISZERO DUP1 ISZERO PUSH2 0x744 JUMPI RETURNDATASIZE PUSH1 0x0 DUP1 RETURNDATACOPY RETURNDATASIZE PUSH1 0x0 REVERT JUMPDEST POP POP POP POP PUSH1 0x40 MLOAD RETURNDATASIZE PUSH1 0x1F NOT PUSH1 0x1F DUP3 ADD AND DUP3 ADD DUP1 PUSH1 0x40 MSTORE POP DUP2 ADD SWAP1 PUSH2 0x768 SWAP2 SWAP1 PUSH2 0x2167 JUMP JUMPDEST PUSH1 0x1 PUSH1 0x1 PUSH1 0xA0 SHL SUB AND EQ PUSH2 0x7AE JUMPI PUSH1 0x40 MLOAD PUSH3 0x461BCD PUSH1 0xE5 SHL DUP2 MSTORE PUSH1 0x20 PUSH1 0x4 DUP3 ADD MSTORE PUSH1 0xD PUSH1 0x24 DUP3 ADD MSTORE PUSH13 0x20A4A72A102CA7902A27A5A2A7 PUSH1 0x99 SHL PUSH1 0x44 DUP3 ADD MSTORE PUSH1 0x64 ADD PUSH2 0x502 JUMP JUMPDEST PUSH1 0x1 SLOAD PUSH1 0x1 PUSH1 0x1 PUSH1 0xA0 SHL SUB AND PUSH4 0x23B872DD CALLER ADDRESS DUP7 DUP7 DUP7 DUP2 DUP2 LT PUSH2 0x7D3 JUMPI PUSH2 0x7D3 PUSH2 0x261D JUMP JUMPDEST SWAP1 POP PUSH1 0x20 MUL ADD PUSH1 0x20 DUP2 ADD SWAP1 PUSH2 0x7E8 SWAP2 SWAP1 PUSH2 0x23D8 JUMP JUMPDEST PUSH1 0x40 MLOAD PUSH1 0x1 PUSH1 0x1 PUSH1 0xE0 SHL SUB NOT PUSH1 0xE0 DUP7 SWAP1 SHL AND DUP2 MSTORE PUSH1 0x1 PUSH1 0x1 PUSH1 0xA0 SHL SUB SWAP4 DUP5 AND PUSH1 0x4 DUP3 ADD MSTORE SWAP3 SWAP1 SWAP2 AND PUSH1 0x24 DUP4 ADD MSTORE PUSH2 0xFFFF AND PUSH1 0x44 DUP3 ADD MSTORE PUSH1 0x64 ADD PUSH1 0x0 PUSH1 0x40 MLOAD DUP1 DUP4 SUB DUP2 PUSH1 0x0 DUP8 DUP1 EXTCODESIZE ISZERO DUP1 ISZERO PUSH2 0x83B JUMPI PUSH1 0x0 DUP1 REVERT JUMPDEST POP GAS CALL ISZERO DUP1 ISZERO PUSH2 0x84F JUMPI RETURNDATASIZE PUSH1 0x0 DUP1 RETURNDATACOPY RETURNDATASIZE PUSH1 0x0 REVERT JUMPDEST POP POP POP POP JUMPDEST PUSH2 0x887 DUP4 DUP4 DUP4 DUP2 DUP2 LT PUSH2 0x869 JUMPI PUSH2 0x869 PUSH2 0x261D JUMP JUMPDEST SWAP1 POP PUSH1 0x20 MUL ADD PUSH1 0x20 DUP2 ADD SWAP1 PUSH2 0x87E SWAP2 SWAP1 PUSH2 0x23D8 JUMP JUMPDEST PUSH2 0xFFFF AND PUSH2 0x414 JUMP JUMPDEST ISZERO PUSH2 0x8C5 JUMPI PUSH2 0x8C0 DUP5 DUP5 DUP5 DUP5 DUP2 DUP2 LT PUSH2 0x8A2 JUMPI PUSH2 0x8A2 PUSH2 0x261D JUMP JUMPDEST SWAP1 POP PUSH1 0x20 MUL ADD PUSH1 0x20 DUP2 ADD SWAP1 PUSH2 0x8B7 SWAP2 SWAP1 PUSH2 0x23D8 JUMP JUMPDEST PUSH2 0xFFFF AND PUSH2 0x139A JUMP JUMPDEST PUSH2 0x8F9 JUMP JUMPDEST PUSH2 0x8F9 DUP5 DUP5 DUP5 DUP5 DUP2 DUP2 LT PUSH2 0x8DB JUMPI PUSH2 0x8DB PUSH2 0x261D JUMP JUMPDEST SWAP1 POP PUSH1 0x20 MUL ADD PUSH1 0x20 DUP2 ADD SWAP1 PUSH2 0x8F0 SWAP2 SWAP1 PUSH2 0x23D8 JUMP JUMPDEST PUSH2 0xFFFF AND PUSH2 0x1511 JUMP JUMPDEST DUP1 PUSH2 0x903 DUP2 PUSH2 0x25AC JUMP JUMPDEST SWAP2 POP POP PUSH2 0x665 JUMP JUMPDEST POP POP PUSH1 0xE DUP1 SLOAD PUSH2 0xFF00 NOT AND SWAP1 SSTORE POP POP JUMP JUMPDEST PUSH1 0xE SLOAD PUSH2 0x100 SWAP1 DIV PUSH1 0xFF AND ISZERO PUSH2 0x944 JUMPI PUSH1 0x40 MLOAD PUSH3 0x461BCD PUSH1 0xE5 SHL DUP2 MSTORE PUSH1 0x4 ADD PUSH2 0x502 SWAP1 PUSH2 0x249F JUMP JUMPDEST PUSH1 0xE DUP1 SLOAD PUSH2 0xFF00 NOT DUP2 AND PUSH2 0x100 OR SWAP1 SWAP2 SSTORE PUSH1 0xFF AND PUSH2 0x996 JUMPI PUSH1 0x40 MLOAD PUSH3 0x461BCD PUSH1 0xE5 SHL DUP2 MSTORE PUSH1 0x20 PUSH1 0x4 DUP3 ADD MSTORE PUSH1 0xF PUSH1 0x24 DUP3 ADD MSTORE PUSH15 0x149154D0D55148111254D050931151 PUSH1 0x8A SHL PUSH1 0x44 DUP3 ADD MSTORE PUSH1 0x64 ADD PUSH2 0x502 JUMP JUMPDEST PUSH1 0x40 DUP1 MLOAD PUSH1 0x60 DUP1 DUP3 ADD DUP4 MSTORE PUSH1 0x0 DUP1 DUP4 MSTORE PUSH1 0x20 DUP1 DUP5 ADD DUP3 SWAP1 MSTORE DUP4 DUP6 ADD DUP3 SWAP1 MSTORE DUP5 MLOAD SWAP3 DUP4 ADD DUP6 MSTORE DUP2 DUP4 MSTORE DUP3 ADD DUP2 SWAP1 MSTORE SWAP3 DUP2 ADD DUP4 SWAP1 MSTORE DUP3 DUP1 JUMPDEST DUP6 DUP2 LT ISZERO PUSH2 0xE11 JUMPI DUP7 DUP7 DUP3 DUP2 DUP2 LT PUSH2 0x9E6 JUMPI PUSH2 0x9E6 PUSH2 0x261D JUMP JUMPDEST SWAP1 POP PUSH1 0x20 MUL ADD CALLDATALOAD SWAP5 POP PUSH2 0x9F8 DUP6 PUSH2 0x414 JUMP JUMPDEST ISZERO PUSH2 0xB41 JUMPI PUSH1 0x0 DUP6 DUP2 MSTORE PUSH1 0x3 PUSH1 0x20 SWAP1 DUP2 MSTORE PUSH1 0x40 SWAP2 DUP3 SWAP1 KECCAK256 DUP3 MLOAD PUSH1 0x60 DUP2 ADD DUP5 MSTORE SWAP1 SLOAD PUSH2 0xFFFF DUP2 AND DUP3 MSTORE PUSH3 0x10000 DUP2 DIV PUSH1 0x1 PUSH1 0x1 PUSH1 0x50 SHL SUB AND SWAP3 DUP3 ADD SWAP3 SWAP1 SWAP3 MSTORE PUSH1 0x1 PUSH1 0x60 SHL SWAP1 SWAP2 DIV PUSH1 0x1 PUSH1 0x1 PUSH1 0xA0 SHL SUB AND SWAP2 DUP2 ADD DUP3 SWAP1 MSTORE SWAP5 POP CALLER EQ PUSH2 0xA6D JUMPI PUSH1 0x40 MLOAD PUSH3 0x461BCD PUSH1 0xE5 SHL DUP2 MSTORE PUSH1 0x4 ADD PUSH2 0x502 SWAP1 PUSH2 0x24C6 JUMP JUMPDEST PUSH1 0x1 SLOAD PUSH1 0x1 PUSH1 0x1 PUSH1 0xA0 SHL SUB AND PUSH4 0x23B872DD ADDRESS CALLER DUP9 PUSH1 0x40 MLOAD DUP5 PUSH4 0xFFFFFFFF AND PUSH1 0xE0 SHL DUP2 MSTORE PUSH1 0x4 ADD PUSH2 0xA9F SWAP4 SWAP3 SWAP2 SWAP1 PUSH2 0x2450 JUMP JUMPDEST PUSH1 0x0 PUSH1 0x40 MLOAD DUP1 DUP4 SUB DUP2 PUSH1 0x0 DUP8 DUP1 EXTCODESIZE ISZERO DUP1 ISZERO PUSH2 0xAB9 JUMPI PUSH1 0x0 DUP1 REVERT JUMPDEST POP GAS CALL ISZERO DUP1 ISZERO PUSH2 0xACD JUMPI RETURNDATASIZE PUSH1 0x0 DUP1 RETURNDATACOPY RETURNDATASIZE PUSH1 0x0 REVERT JUMPDEST POP POP POP PUSH1 0x0 DUP7 DUP2 MSTORE PUSH1 0x3 PUSH1 0x20 MSTORE PUSH1 0x40 DUP2 KECCAK256 DUP2 SWAP1 SSTORE PUSH1 0xC DUP1 SLOAD PUSH1 0x1 SWAP4 POP SWAP1 SWAP2 SWAP1 PUSH2 0xAF7 SWAP1 DUP5 SWAP1 PUSH2 0x2572 JUMP JUMPDEST SWAP1 SWAP2 SSTORE POP POP PUSH1 0x40 DUP1 MLOAD DUP7 DUP2 MSTORE PUSH1 0x0 PUSH1 0x20 DUP3 ADD MSTORE PUSH1 0x1 DUP2 DUP4 ADD MSTORE SWAP1 MLOAD PUSH32 0x77EEECEEB03A054C3BB2BF8E5B43D03BED962C2351FB292CF68FEDCA9F6A82A2 SWAP2 DUP2 SWAP1 SUB PUSH1 0x60 ADD SWAP1 LOG1 PUSH2 0xDFF JUMP JUMPDEST PUSH2 0xB4A DUP6 PUSH2 0x1627 JUMP JUMPDEST PUSH1 0xFF AND PUSH1 0x0 DUP2 DUP2 MSTORE PUSH1 0x4 PUSH1 0x20 SWAP1 DUP2 MSTORE PUSH1 0x40 DUP1 DUP4 KECCAK256 DUP10 DUP5 MSTORE PUSH1 0x5 SWAP1 SWAP3 MSTORE SWAP1 SWAP2 KECCAK256 SLOAD DUP2 SLOAD SWAP3 SWAP5 POP SWAP1 SWAP2 DUP2 LT PUSH2 0xB7F JUMPI PUSH2 0xB7F PUSH2 0x261D JUMP JUMPDEST PUSH1 0x0 SWAP2 DUP3 MSTORE PUSH1 0x20 SWAP2 DUP3 SWAP1 KECCAK256 PUSH1 0x40 DUP1 MLOAD PUSH1 0x60 DUP2 ADD DUP3 MSTORE SWAP3 SWAP1 SWAP2 ADD SLOAD PUSH2 0xFFFF DUP2 AND DUP4 MSTORE PUSH3 0x10000 DUP2 DIV PUSH1 0x1 PUSH1 0x1 PUSH1 0x50 SHL SUB AND SWAP4 DUP4 ADD SWAP4 SWAP1 SWAP4 MSTORE PUSH1 0x1 PUSH1 0x60 SHL SWAP1 SWAP3 DIV PUSH1 0x1 PUSH1 0x1 PUSH1 0xA0 SHL SUB AND SWAP2 DUP2 ADD DUP3 SWAP1 MSTORE SWAP5 POP CALLER EQ PUSH2 0xBED JUMPI PUSH1 0x40 MLOAD PUSH3 0x461BCD PUSH1 0xE5 SHL DUP2 MSTORE PUSH1 0x4 ADD PUSH2 0x502 SWAP1 PUSH2 0x24C6 JUMP JUMPDEST DUP2 PUSH1 0x6 PUSH1 0x0 DUP3 DUP3 SLOAD PUSH2 0xBFF SWAP2 SWAP1 PUSH2 0x2572 JUMP JUMPDEST SWAP1 SWAP2 SSTORE POP POP PUSH1 0x1 SLOAD PUSH1 0x1 PUSH1 0x1 PUSH1 0xA0 SHL SUB AND PUSH4 0x23B872DD ADDRESS CALLER DUP9 PUSH1 0x40 MLOAD DUP5 PUSH4 0xFFFFFFFF AND PUSH1 0xE0 SHL DUP2 MSTORE PUSH1 0x4 ADD PUSH2 0xC36 SWAP4 SWAP3 SWAP2 SWAP1 PUSH2 0x2450 JUMP JUMPDEST PUSH1 0x0 PUSH1 0x40 MLOAD DUP1 DUP4 SUB DUP2 PUSH1 0x0 DUP8 DUP1 EXTCODESIZE ISZERO DUP1 ISZERO PUSH2 0xC50 JUMPI PUSH1 0x0 DUP1 REVERT JUMPDEST POP GAS CALL ISZERO DUP1 ISZERO PUSH2 0xC64 JUMPI RETURNDATASIZE PUSH1 0x0 DUP1 RETURNDATACOPY RETURNDATASIZE PUSH1 0x0 REVERT JUMPDEST POP POP POP PUSH1 0x0 DUP4 DUP2 MSTORE PUSH1 0x4 PUSH1 0x20 MSTORE PUSH1 0x40 SWAP1 KECCAK256 DUP1 SLOAD SWAP1 SWAP2 POP PUSH2 0xC86 SWAP1 PUSH1 0x1 SWAP1 PUSH2 0x2572 JUMP JUMPDEST DUP2 SLOAD DUP2 LT PUSH2 0xC96 JUMPI PUSH2 0xC96 PUSH2 0x261D JUMP JUMPDEST PUSH1 0x0 SWAP2 DUP3 MSTORE PUSH1 0x20 DUP1 DUP4 KECCAK256 PUSH1 0x40 DUP1 MLOAD PUSH1 0x60 DUP2 ADD DUP3 MSTORE SWAP4 SWAP1 SWAP2 ADD SLOAD PUSH2 0xFFFF DUP2 AND DUP5 MSTORE PUSH3 0x10000 DUP2 DIV PUSH1 0x1 PUSH1 0x1 PUSH1 0x50 SHL SUB AND DUP5 DUP5 ADD MSTORE PUSH1 0x1 PUSH1 0x60 SHL SWAP1 DIV PUSH1 0x1 PUSH1 0x1 PUSH1 0xA0 SHL SUB AND DUP4 DUP3 ADD MSTORE DUP6 DUP5 MSTORE PUSH1 0x4 DUP3 MSTORE DUP1 DUP5 KECCAK256 DUP10 DUP6 MSTORE PUSH1 0x5 SWAP1 SWAP3 MSTORE SWAP1 SWAP3 KECCAK256 SLOAD DUP3 SLOAD SWAP2 SWAP6 POP DUP6 SWAP3 SWAP2 DUP2 LT PUSH2 0xD09 JUMPI PUSH2 0xD09 PUSH2 0x261D JUMP JUMPDEST PUSH1 0x0 SWAP2 DUP3 MSTORE PUSH1 0x20 DUP1 DUP4 KECCAK256 DUP5 MLOAD SWAP3 ADD DUP1 SLOAD DUP6 DUP4 ADD MLOAD PUSH1 0x40 SWAP7 DUP8 ADD MLOAD PUSH1 0x1 PUSH1 0x1 PUSH1 0xA0 SHL SUB AND PUSH1 0x1 PUSH1 0x60 SHL MUL PUSH1 0x1 PUSH1 0x1 PUSH1 0x60 SHL SUB PUSH1 0x1 PUSH1 0x1 PUSH1 0x50 SHL SUB SWAP1 SWAP3 AND PUSH3 0x10000 MUL PUSH1 0x1 PUSH1 0x1 PUSH1 0x60 SHL SUB NOT SWAP1 SWAP4 AND PUSH2 0xFFFF SWAP7 DUP8 AND OR SWAP3 SWAP1 SWAP3 OR AND OR SWAP1 SSTORE DUP9 DUP4 MSTORE PUSH1 0x5 DUP2 MSTORE DUP4 DUP4 KECCAK256 SLOAD DUP8 MLOAD SWAP1 SWAP3 AND DUP4 MSTORE DUP4 DUP4 KECCAK256 SWAP2 SWAP1 SWAP2 SSTORE DUP5 DUP3 MSTORE PUSH1 0x4 SWAP1 MSTORE KECCAK256 DUP1 SLOAD DUP1 PUSH2 0xD95 JUMPI PUSH2 0xD95 PUSH2 0x2607 JUMP JUMPDEST PUSH1 0x0 DUP3 DUP2 MSTORE PUSH1 0x20 DUP1 DUP3 KECCAK256 DUP4 ADD PUSH1 0x0 NOT SWAP1 DUP2 ADD DUP4 SWAP1 SSTORE SWAP3 SWAP1 SWAP3 ADD SWAP1 SWAP3 SSTORE DUP7 DUP3 MSTORE PUSH1 0x5 DUP2 MSTORE PUSH1 0x40 DUP1 DUP4 KECCAK256 DUP4 SWAP1 SSTORE DUP1 MLOAD DUP9 DUP2 MSTORE SWAP2 DUP3 ADD SWAP3 SWAP1 SWAP3 MSTORE PUSH1 0x1 DUP2 DUP4 ADD MSTORE SWAP1 MLOAD PUSH32 0x34478FBE5499EED4DBE01A401AD9153550F5F43C8818D1DC1D745CB4B81BA290 SWAP2 DUP2 SWAP1 SUB PUSH1 0x60 ADD SWAP1 LOG1 JUMPDEST DUP1 PUSH2 0xE09 DUP2 PUSH2 0x25AC JUMP JUMPDEST SWAP2 POP POP PUSH2 0x9CC JUMP JUMPDEST POP POP PUSH1 0xE DUP1 SLOAD PUSH2 0xFF00 NOT AND SWAP1 SSTORE POP POP POP POP POP JUMP JUMPDEST PUSH1 0x0 SLOAD PUSH1 0x1 PUSH1 0x1 PUSH1 0xA0 SHL SUB AND CALLER EQ PUSH2 0xE4F JUMPI PUSH1 0x40 MLOAD PUSH3 0x461BCD PUSH1 0xE5 SHL DUP2 MSTORE PUSH1 0x4 ADD PUSH2 0x502 SWAP1 PUSH2 0x24F2 JUMP JUMPDEST PUSH1 0xE DUP1 SLOAD PUSH1 0xFF NOT AND SWAP2 ISZERO ISZERO SWAP2 SWAP1 SWAP2 OR SWAP1 SSTORE JUMP JUMPDEST PUSH1 0x0 PUSH1 0x6 SLOAD PUSH1 0x0 EQ ISZERO PUSH2 0xE77 JUMPI POP PUSH1 0x0 SWAP2 SWAP1 POP JUMP JUMPDEST PUSH1 0x0 PUSH1 0x6 SLOAD DUP4 PUSH4 0xFFFFFFFF AND PUSH2 0xE8D SWAP2 SWAP1 PUSH2 0x25C7 JUMP JUMPDEST PUSH1 0x20 SWAP4 SWAP1 SWAP4 SHR SWAP3 SWAP1 POP PUSH1 0x0 DUP1 PUSH2 0xEA5 PUSH1 0x3 PUSH1 0x8 PUSH2 0x2589 JUMP JUMPDEST PUSH1 0xFF AND SWAP1 POP JUMPDEST PUSH1 0x8 DUP2 GT PUSH2 0xF46 JUMPI PUSH1 0x0 DUP2 DUP2 MSTORE PUSH1 0x4 PUSH1 0x20 MSTORE PUSH1 0x40 SWAP1 KECCAK256 SLOAD PUSH2 0xECD SWAP1 DUP3 SWAP1 PUSH2 0x2553 JUMP JUMPDEST PUSH2 0xED7 SWAP1 DUP4 PUSH2 0x2527 JUMP JUMPDEST SWAP2 POP DUP2 DUP4 LT PUSH2 0xEE5 JUMPI PUSH2 0xF34 JUMP JUMPDEST PUSH1 0x0 DUP2 DUP2 MSTORE PUSH1 0x4 PUSH1 0x20 MSTORE PUSH1 0x40 SWAP1 KECCAK256 DUP1 SLOAD PUSH2 0xEFF SWAP1 DUP8 PUSH2 0x25C7 JUMP JUMPDEST DUP2 SLOAD DUP2 LT PUSH2 0xF0F JUMPI PUSH2 0xF0F PUSH2 0x261D JUMP JUMPDEST PUSH1 0x0 SWAP2 DUP3 MSTORE PUSH1 0x20 SWAP1 SWAP2 KECCAK256 ADD SLOAD PUSH1 0x1 PUSH1 0x60 SHL SWAP1 DIV PUSH1 0x1 PUSH1 0x1 PUSH1 0xA0 SHL SUB AND SWAP6 SWAP5 POP POP POP POP POP JUMP JUMPDEST DUP1 PUSH2 0xF3E DUP2 PUSH2 0x25AC JUMP JUMPDEST SWAP2 POP POP PUSH2 0xEAB JUMP JUMPDEST POP PUSH1 0x0 SWAP5 SWAP4 POP POP POP POP JUMP JUMPDEST PUSH1 0xE SLOAD PUSH2 0x100 SWAP1 DIV PUSH1 0xFF AND ISZERO PUSH2 0xF79 JUMPI PUSH1 0x40 MLOAD PUSH3 0x461BCD PUSH1 0xE5 SHL DUP2 MSTORE PUSH1 0x4 ADD PUSH2 0x502 SWAP1 PUSH2 0x249F JUMP JUMPDEST PUSH1 0xE DUP1 SLOAD PUSH2 0xFF00 NOT AND PUSH2 0x100 OR SWAP1 SSTORE PUSH2 0xF9C PUSH1 0x0 SLOAD PUSH1 0xFF PUSH1 0x1 PUSH1 0xA0 SHL SWAP1 SWAP2 DIV AND SWAP1 JUMP JUMPDEST ISZERO PUSH2 0xFB9 JUMPI PUSH1 0x40 MLOAD PUSH3 0x461BCD PUSH1 0xE5 SHL DUP2 MSTORE PUSH1 0x4 ADD PUSH2 0x502 SWAP1 PUSH2 0x2474 JUMP JUMPDEST PUSH12 0x7C13BC4B2C133C560000000 PUSH1 0xB SLOAD LT ISZERO PUSH2 0x1020 JUMPI PUSH3 0x15180 PUSH1 0x9 SLOAD PUSH1 0xC SLOAD PUSH1 0xD SLOAD TIMESTAMP PUSH2 0xFE7 SWAP2 SWAP1 PUSH2 0x2572 JUMP JUMPDEST PUSH2 0xFF1 SWAP2 SWAP1 PUSH2 0x2553 JUMP JUMPDEST PUSH2 0xFFB SWAP2 SWAP1 PUSH2 0x2553 JUMP JUMPDEST PUSH2 0x1005 SWAP2 SWAP1 PUSH2 0x253F JUMP JUMPDEST PUSH1 0xB PUSH1 0x0 DUP3 DUP3 SLOAD PUSH2 0x1016 SWAP2 SWAP1 PUSH2 0x2527 JUMP JUMPDEST SWAP1 SWAP2 SSTORE POP POP TIMESTAMP PUSH1 0xD SSTORE JUMPDEST CALLER ORIGIN EQ PUSH2 0x105A JUMPI PUSH1 0x40 MLOAD PUSH3 0x461BCD PUSH1 0xE5 SHL DUP2 MSTORE PUSH1 0x20 PUSH1 0x4 DUP3 ADD MSTORE PUSH1 0x8 PUSH1 0x24 DUP3 ADD MSTORE PUSH8 0x4F6E6C7920454F41 PUSH1 0xC0 SHL PUSH1 0x44 DUP3 ADD MSTORE PUSH1 0x64 ADD PUSH2 0x502 JUMP JUMPDEST PUSH1 0x0 DUP1 JUMPDEST DUP4 DUP2 LT ISZERO PUSH2 0x1118 JUMPI PUSH2 0x107B DUP6 DUP6 DUP4 DUP2 DUP2 LT PUSH2 0x869 JUMPI PUSH2 0x869 PUSH2 0x261D JUMP JUMPDEST ISZERO PUSH2 0x10C5 JUMPI PUSH2 0x10B4 DUP6 DUP6 DUP4 DUP2 DUP2 LT PUSH2 0x1095 JUMPI PUSH2 0x1095 PUSH2 0x261D JUMP JUMPDEST SWAP1 POP PUSH1 0x20 MUL ADD PUSH1 0x20 DUP2 ADD SWAP1 PUSH2 0x10AA SWAP2 SWAP1 PUSH2 0x23D8 JUMP JUMPDEST PUSH2 0xFFFF AND DUP5 PUSH2 0x16C7 JUMP JUMPDEST PUSH2 0x10BE SWAP1 DUP4 PUSH2 0x2527 JUMP JUMPDEST SWAP2 POP PUSH2 0x1106 JUMP JUMPDEST PUSH2 0x10F9 DUP6 DUP6 DUP4 DUP2 DUP2 LT PUSH2 0x10DA JUMPI PUSH2 0x10DA PUSH2 0x261D JUMP JUMPDEST SWAP1 POP PUSH1 0x20 MUL ADD PUSH1 0x20 DUP2 ADD SWAP1 PUSH2 0x10EF SWAP2 SWAP1 PUSH2 0x23D8 JUMP JUMPDEST PUSH2 0xFFFF AND DUP5 PUSH2 0x1A3E JUMP JUMPDEST PUSH2 0x1103 SWAP1 DUP4 PUSH2 0x2527 JUMP JUMPDEST SWAP2 POP JUMPDEST DUP1 PUSH2 0x1110 DUP2 PUSH2 0x25AC JUMP JUMPDEST SWAP2 POP POP PUSH2 0x105E JUMP JUMPDEST POP DUP1 PUSH2 0x1124 JUMPI POP PUSH2 0x1198 JUMP JUMPDEST PUSH1 0x2 SLOAD PUSH1 0x1 PUSH1 0x1 PUSH1 0xA0 SHL SUB AND PUSH4 0x40C10F19 CALLER PUSH1 0x40 MLOAD PUSH1 0x1 PUSH1 0x1 PUSH1 0xE0 SHL SUB NOT PUSH1 0xE0 DUP5 SWAP1 SHL AND DUP2 MSTORE PUSH1 0x1 PUSH1 0x1 PUSH1 0xA0 SHL SUB SWAP1 SWAP2 AND PUSH1 0x4 DUP3 ADD MSTORE PUSH1 0x24 DUP2 ADD DUP5 SWAP1 MSTORE PUSH1 0x44 ADD PUSH1 0x0 PUSH1 0x40 MLOAD DUP1 DUP4 SUB DUP2 PUSH1 0x0 DUP8 DUP1 EXTCODESIZE ISZERO DUP1 ISZERO PUSH2 0x117E JUMPI PUSH1 0x0 DUP1 REVERT JUMPDEST POP GAS CALL ISZERO DUP1 ISZERO PUSH2 0x1192 JUMPI RETURNDATASIZE PUSH1 0x0 DUP1 RETURNDATACOPY RETURNDATASIZE PUSH1 0x0 REVERT JUMPDEST POP POP POP POP POP JUMPDEST POP POP PUSH1 0xE DUP1 SLOAD PUSH2 0xFF00 NOT AND SWAP1 SSTORE POP JUMP JUMPDEST PUSH1 0x4 PUSH1 0x20 MSTORE DUP2 PUSH1 0x0 MSTORE PUSH1 0x40 PUSH1 0x0 KECCAK256 DUP2 DUP2 SLOAD DUP2 LT PUSH2 0x11C4 JUMPI PUSH1 0x0 DUP1 REVERT JUMPDEST PUSH1 0x0 SWAP2 DUP3 MSTORE PUSH1 0x20 SWAP1 SWAP2 KECCAK256 ADD SLOAD PUSH2 0xFFFF DUP2 AND SWAP3 POP PUSH3 0x10000 DUP2 DIV PUSH1 0x1 PUSH1 0x1 PUSH1 0x50 SHL SUB AND SWAP2 POP PUSH1 0x1 PUSH1 0x60 SHL SWAP1 DIV PUSH1 0x1 PUSH1 0x1 PUSH1 0xA0 SHL SUB AND DUP4 JUMP JUMPDEST PUSH1 0x0 SLOAD PUSH1 0x1 PUSH1 0x1 PUSH1 0xA0 SHL SUB AND CALLER EQ PUSH2 0x1225 JUMPI PUSH1 0x40 MLOAD PUSH3 0x461BCD PUSH1 0xE5 SHL DUP2 MSTORE PUSH1 0x4 ADD PUSH2 0x502 SWAP1 PUSH2 0x24F2 JUMP JUMPDEST PUSH1 0x1 PUSH1 0x1 PUSH1 0xA0 SHL SUB DUP2 AND PUSH2 0x128A JUMPI PUSH1 0x40 MLOAD PUSH3 0x461BCD PUSH1 0xE5 SHL DUP2 MSTORE PUSH1 0x20 PUSH1 0x4 DUP3 ADD MSTORE PUSH1 0x26 PUSH1 0x24 DUP3 ADD MSTORE PUSH32 0x4F776E61626C653A206E6577206F776E657220697320746865207A65726F2061 PUSH1 0x44 DUP3 ADD MSTORE PUSH6 0x646472657373 PUSH1 0xD0 SHL PUSH1 0x64 DUP3 ADD MSTORE PUSH1 0x84 ADD PUSH2 0x502 JUMP JUMPDEST PUSH2 0x555 DUP2 PUSH2 0x1EDD JUMP JUMPDEST PUSH1 0x0 SLOAD PUSH1 0x1 PUSH1 0xA0 SHL SWAP1 DIV PUSH1 0xFF AND ISZERO PUSH2 0x12BD JUMPI PUSH1 0x40 MLOAD PUSH3 0x461BCD PUSH1 0xE5 SHL DUP2 MSTORE PUSH1 0x4 ADD PUSH2 0x502 SWAP1 PUSH2 0x2474 JUMP JUMPDEST PUSH1 0x0 DUP1 SLOAD PUSH1 0xFF PUSH1 0xA0 SHL NOT AND PUSH1 0x1 PUSH1 0xA0 SHL OR SWAP1 SSTORE PUSH32 0x62E78CEA01BEE320CD4E420270B5EA74000D11B0C9F74754EBDBFC544B05A258 PUSH2 0x12F8 CALLER SWAP1 JUMP JUMPDEST PUSH1 0x40 MLOAD PUSH1 0x1 PUSH1 0x1 PUSH1 0xA0 SHL SUB SWAP1 SWAP2 AND DUP2 MSTORE PUSH1 0x20 ADD PUSH1 0x40 MLOAD DUP1 SWAP2 SUB SWAP1 LOG1 JUMP JUMPDEST PUSH1 0x0 SLOAD PUSH1 0x1 PUSH1 0xA0 SHL SWAP1 DIV PUSH1 0xFF AND PUSH2 0x1366 JUMPI PUSH1 0x40 MLOAD PUSH3 0x461BCD PUSH1 0xE5 SHL DUP2 MSTORE PUSH1 0x20 PUSH1 0x4 DUP3 ADD MSTORE PUSH1 0x15 PUSH1 0x24 DUP3 ADD MSTORE PUSH21 0x14185D5CD958589B194E881B9BDD081C185D5CD959 PUSH1 0x5A SHL PUSH1 0x44 DUP3 ADD MSTORE PUSH1 0x64 ADD PUSH2 0x502 JUMP JUMPDEST PUSH1 0x0 DUP1 SLOAD PUSH1 0xFF PUSH1 0xA0 SHL NOT AND SWAP1 SSTORE PUSH32 0x5DB9EE0A495BF2E6FF9C91A7834C1BA4FDD244A5E8AA4E537BD38AEAE4B073AA CALLER PUSH2 0x12F8 JUMP JUMPDEST PUSH1 0x0 SLOAD PUSH1 0x1 PUSH1 0xA0 SHL SWAP1 DIV PUSH1 0xFF AND ISZERO PUSH2 0x13C4 JUMPI PUSH1 0x40 MLOAD PUSH3 0x461BCD PUSH1 0xE5 SHL DUP2 MSTORE PUSH1 0x4 ADD PUSH2 0x502 SWAP1 PUSH2 0x2474 JUMP JUMPDEST PUSH12 0x7C13BC4B2C133C560000000 PUSH1 0xB SLOAD LT ISZERO PUSH2 0x142B JUMPI PUSH3 0x15180 PUSH1 0x9 SLOAD PUSH1 0xC SLOAD PUSH1 0xD SLOAD TIMESTAMP PUSH2 0x13F2 SWAP2 SWAP1 PUSH2 0x2572 JUMP JUMPDEST PUSH2 0x13FC SWAP2 SWAP1 PUSH2 0x2553 JUMP JUMPDEST PUSH2 0x1406 SWAP2 SWAP1 PUSH2 0x2553 JUMP JUMPDEST PUSH2 0x1410 SWAP2 SWAP1 PUSH2 0x253F JUMP JUMPDEST PUSH1 0xB PUSH1 0x0 DUP3 DUP3 SLOAD PUSH2 0x1421 SWAP2 SWAP1 PUSH2 0x2527 JUMP JUMPDEST SWAP1 SWAP2 SSTORE POP POP TIMESTAMP PUSH1 0xD SSTORE JUMPDEST PUSH1 0x40 DUP1 MLOAD PUSH1 0x60 DUP2 ADD DUP3 MSTORE PUSH2 0xFFFF DUP1 DUP5 AND DUP3 MSTORE PUSH1 0x1 PUSH1 0x1 PUSH1 0x50 SHL SUB TIMESTAMP DUP2 AND PUSH1 0x20 DUP1 DUP6 ADD SWAP2 DUP3 MSTORE PUSH1 0x1 PUSH1 0x1 PUSH1 0xA0 SHL SUB DUP1 DUP10 AND DUP7 DUP9 ADD SWAP1 DUP2 MSTORE PUSH1 0x0 DUP10 DUP2 MSTORE PUSH1 0x3 SWAP1 SWAP4 MSTORE SWAP7 DUP3 KECCAK256 SWAP6 MLOAD DUP7 SLOAD SWAP4 MLOAD SWAP8 MLOAD SWAP1 SWAP2 AND PUSH1 0x1 PUSH1 0x60 SHL MUL PUSH1 0x1 PUSH1 0x1 PUSH1 0x60 SHL SUB SWAP8 SWAP1 SWAP5 AND PUSH3 0x10000 MUL PUSH1 0x1 PUSH1 0x1 PUSH1 0x60 SHL SUB NOT SWAP1 SWAP4 AND SWAP5 AND SWAP4 SWAP1 SWAP4 OR OR SWAP4 SWAP1 SWAP4 AND SWAP3 SWAP1 SWAP3 OR SWAP1 SSTORE PUSH1 0xC DUP1 SLOAD PUSH1 0x1 SWAP3 SWAP1 PUSH2 0x14C0 SWAP1 DUP5 SWAP1 PUSH2 0x2527 JUMP JUMPDEST SWAP1 SWAP2 SSTORE POP POP PUSH1 0x40 DUP1 MLOAD PUSH1 0x1 PUSH1 0x1 PUSH1 0xA0 SHL SUB DUP5 AND DUP2 MSTORE PUSH1 0x20 DUP2 ADD DUP4 SWAP1 MSTORE TIMESTAMP DUP2 DUP4 ADD MSTORE SWAP1 MLOAD PUSH32 0x6173E4D2D9DD52AAE0ED37AFED3ADCF924A490639B759CA93D32DC43366C17D2 SWAP2 DUP2 SWAP1 SUB PUSH1 0x60 ADD SWAP1 LOG1 POP POP JUMP JUMPDEST PUSH1 0x0 PUSH2 0x151C DUP3 PUSH2 0x1627 JUMP JUMPDEST PUSH1 0xFF AND SWAP1 POP DUP1 PUSH1 0x6 PUSH1 0x0 DUP3 DUP3 SLOAD PUSH2 0x1533 SWAP2 SWAP1 PUSH2 0x2527 JUMP JUMPDEST SWAP1 SWAP2 SSTORE POP POP PUSH1 0x0 DUP2 DUP2 MSTORE PUSH1 0x4 PUSH1 0x20 DUP2 DUP2 MSTORE PUSH1 0x40 DUP1 DUP5 KECCAK256 DUP1 SLOAD DUP8 DUP7 MSTORE PUSH1 0x5 DUP5 MSTORE DUP3 DUP7 KECCAK256 DUP2 SWAP1 SSTORE SWAP4 DUP4 MSTORE DUP2 MLOAD PUSH1 0x60 DUP1 DUP3 ADD DUP5 MSTORE PUSH2 0xFFFF DUP1 DUP11 AND DUP4 MSTORE PUSH1 0x8 DUP1 SLOAD PUSH1 0x1 PUSH1 0x1 PUSH1 0x50 SHL SUB SWAP1 DUP2 AND DUP6 DUP10 ADD SWAP1 DUP2 MSTORE PUSH1 0x1 PUSH1 0x1 PUSH1 0xA0 SHL SUB DUP15 DUP2 AND DUP8 DUP11 ADD DUP2 DUP2 MSTORE PUSH1 0x1 DUP14 ADD DUP11 SSTORE SWAP9 DUP14 MSTORE SWAP12 DUP11 SWAP1 KECCAK256 SWAP7 MLOAD SWAP7 SWAP1 SWAP11 ADD DUP1 SLOAD SWAP2 MLOAD SWAP8 MLOAD SWAP7 SWAP1 SWAP5 AND PUSH1 0x1 PUSH1 0x1 PUSH1 0x60 SHL SUB NOT SWAP1 SWAP2 AND OR PUSH3 0x10000 SWAP7 SWAP1 SWAP2 AND SWAP6 SWAP1 SWAP6 MUL SWAP5 SWAP1 SWAP5 OR PUSH1 0x1 PUSH1 0x1 PUSH1 0x60 SHL SUB AND PUSH1 0x1 PUSH1 0x60 SHL SWAP4 SWAP1 SWAP8 AND SWAP3 SWAP1 SWAP3 MUL SWAP6 SWAP1 SWAP6 OR SWAP1 SSTORE SLOAD DUP2 MLOAD SWAP5 DUP6 MSTORE SWAP2 DUP5 ADD DUP7 SWAP1 MSTORE DUP4 ADD MSTORE PUSH32 0x6173E4D2D9DD52AAE0ED37AFED3ADCF924A490639B759CA93D32DC43366C17D2 SWAP2 ADD PUSH1 0x40 MLOAD DUP1 SWAP2 SUB SWAP1 LOG1 POP POP POP JUMP JUMPDEST PUSH1 0x1 SLOAD PUSH1 0x40 MLOAD PUSH4 0xE05C57BF PUSH1 0xE0 SHL DUP2 MSTORE PUSH1 0x4 DUP2 ADD DUP4 SWAP1 MSTORE PUSH1 0x0 SWAP2 DUP3 SWAP2 PUSH1 0x1 PUSH1 0x1 PUSH1 0xA0 SHL SUB SWAP1 SWAP2 AND SWAP1 PUSH4 0xE05C57BF SWAP1 PUSH1 0x24 ADD PUSH2 0x120 PUSH1 0x40 MLOAD DUP1 DUP4 SUB DUP2 DUP7 DUP1 EXTCODESIZE ISZERO DUP1 ISZERO PUSH2 0x1671 JUMPI PUSH1 0x0 DUP1 REVERT JUMPDEST POP GAS STATICCALL ISZERO DUP1 ISZERO PUSH2 0x1685 JUMPI RETURNDATASIZE PUSH1 0x0 DUP1 RETURNDATACOPY RETURNDATASIZE PUSH1 0x0 REVERT JUMPDEST POP POP POP POP PUSH1 0x40 MLOAD RETURNDATASIZE PUSH1 0x1F NOT PUSH1 0x1F DUP3 ADD AND DUP3 ADD DUP1 PUSH1 0x40 MSTORE POP DUP2 ADD SWAP1 PUSH2 0x16A9 SWAP2 SWAP1 PUSH2 0x232E JUMP JUMPDEST SWAP9 POP POP POP POP POP POP POP POP POP DUP1 PUSH1 0x8 PUSH2 0x16C0 SWAP2 SWAP1 PUSH2 0x2589 JUMP JUMPDEST SWAP4 SWAP3 POP POP POP JUMP JUMPDEST PUSH1 0x0 DUP3 DUP2 MSTORE PUSH1 0x3 PUSH1 0x20 SWAP1 DUP2 MSTORE PUSH1 0x40 DUP1 DUP4 KECCAK256 DUP2 MLOAD PUSH1 0x60 DUP2 ADD DUP4 MSTORE SWAP1 SLOAD PUSH2 0xFFFF DUP2 AND DUP3 MSTORE PUSH3 0x10000 DUP2 DIV PUSH1 0x1 PUSH1 0x1 PUSH1 0x50 SHL SUB AND SWAP4 DUP3 ADD SWAP4 SWAP1 SWAP4 MSTORE PUSH1 0x1 PUSH1 0x60 SHL SWAP1 SWAP3 DIV PUSH1 0x1 PUSH1 0x1 PUSH1 0xA0 SHL SUB AND SWAP1 DUP3 ADD DUP2 SWAP1 MSTORE CALLER EQ PUSH2 0x1734 JUMPI PUSH1 0x40 MLOAD PUSH3 0x461BCD PUSH1 0xE5 SHL DUP2 MSTORE PUSH1 0x4 ADD PUSH2 0x502 SWAP1 PUSH2 0x24C6 JUMP JUMPDEST DUP3 DUP1 ISZERO PUSH2 0x1759 JUMPI POP PUSH1 0xA SLOAD PUSH1 0x20 DUP3 ADD MLOAD PUSH2 0x1757 SWAP1 PUSH1 0x1 PUSH1 0x1 PUSH1 0x50 SHL SUB AND TIMESTAMP PUSH2 0x2572 JUMP JUMPDEST LT JUMPDEST ISZERO PUSH2 0x17B2 JUMPI PUSH1 0x40 MLOAD PUSH3 0x461BCD PUSH1 0xE5 SHL DUP2 MSTORE PUSH1 0x20 PUSH1 0x4 DUP3 ADD MSTORE PUSH1 0x24 DUP1 DUP3 ADD MSTORE PUSH32 0x474F4E4E4120424520434F4C4420574954484F55542054574F20444159275320 PUSH1 0x44 DUP3 ADD MSTORE PUSH4 0x1313D3D5 PUSH1 0xE2 SHL PUSH1 0x64 DUP3 ADD MSTORE PUSH1 0x84 ADD PUSH2 0x502 JUMP JUMPDEST PUSH12 0x7C13BC4B2C133C560000000 PUSH1 0xB SLOAD LT ISZERO PUSH2 0x1803 JUMPI PUSH3 0x15180 PUSH1 0x9 SLOAD DUP3 PUSH1 0x20 ADD MLOAD PUSH1 0x1 PUSH1 0x1 PUSH1 0x50 SHL SUB AND TIMESTAMP PUSH2 0x17E8 SWAP2 SWAP1 PUSH2 0x2572 JUMP JUMPDEST PUSH2 0x17F2 SWAP2 SWAP1 PUSH2 0x2553 JUMP JUMPDEST PUSH2 0x17FC SWAP2 SWAP1 PUSH2 0x253F JUMP JUMPDEST SWAP2 POP PUSH2 0x185C JUMP JUMPDEST PUSH1 0xD SLOAD DUP2 PUSH1 0x20 ADD MLOAD PUSH1 0x1 PUSH1 0x1 PUSH1 0x50 SHL SUB AND GT ISZERO PUSH2 0x1823 JUMPI PUSH1 0x0 SWAP2 POP PUSH2 0x185C JUMP JUMPDEST PUSH3 0x15180 PUSH1 0x9 SLOAD DUP3 PUSH1 0x20 ADD MLOAD PUSH1 0x1 PUSH1 0x1 PUSH1 0x50 SHL SUB AND PUSH1 0xD SLOAD PUSH2 0x1845 SWAP2 SWAP1 PUSH2 0x2572 JUMP JUMPDEST PUSH2 0x184F SWAP2 SWAP1 PUSH2 0x2553 JUMP JUMPDEST PUSH2 0x1859 SWAP2 SWAP1 PUSH2 0x253F JUMP JUMPDEST SWAP2 POP JUMPDEST DUP3 ISZERO PUSH2 0x1919 JUMPI PUSH2 0x186B DUP5 PUSH2 0x1F2D JUMP JUMPDEST PUSH1 0x1 AND PUSH1 0x1 EQ ISZERO PUSH2 0x1884 JUMPI PUSH2 0x187F DUP3 PUSH2 0x208F JUMP JUMPDEST PUSH1 0x0 SWAP2 POP JUMPDEST PUSH1 0x1 SLOAD PUSH1 0x1 PUSH1 0x1 PUSH1 0xA0 SHL SUB AND PUSH4 0x23B872DD ADDRESS CALLER DUP8 PUSH1 0x40 MLOAD DUP5 PUSH4 0xFFFFFFFF AND PUSH1 0xE0 SHL DUP2 MSTORE PUSH1 0x4 ADD PUSH2 0x18B6 SWAP4 SWAP3 SWAP2 SWAP1 PUSH2 0x2450 JUMP JUMPDEST PUSH1 0x0 PUSH1 0x40 MLOAD DUP1 DUP4 SUB DUP2 PUSH1 0x0 DUP8 DUP1 EXTCODESIZE ISZERO DUP1 ISZERO PUSH2 0x18D0 JUMPI PUSH1 0x0 DUP1 REVERT JUMPDEST POP GAS CALL ISZERO DUP1 ISZERO PUSH2 0x18E4 JUMPI RETURNDATASIZE PUSH1 0x0 DUP1 RETURNDATACOPY RETURNDATASIZE PUSH1 0x0 REVERT JUMPDEST POP POP POP PUSH1 0x0 DUP6 DUP2 MSTORE PUSH1 0x3 PUSH1 0x20 MSTORE PUSH1 0x40 DUP2 KECCAK256 DUP2 SWAP1 SSTORE PUSH1 0xC DUP1 SLOAD PUSH1 0x1 SWAP4 POP SWAP1 SWAP2 SWAP1 PUSH2 0x190E SWAP1 DUP5 SWAP1 PUSH2 0x2572 JUMP JUMPDEST SWAP1 SWAP2 SSTORE POP PUSH2 0x19F6 SWAP1 POP JUMP JUMPDEST PUSH2 0x1938 PUSH1 0x64 PUSH2 0x1929 PUSH1 0x14 DUP6 PUSH2 0x2553 JUMP JUMPDEST PUSH2 0x1933 SWAP2 SWAP1 PUSH2 0x253F JUMP JUMPDEST PUSH2 0x208F JUMP JUMPDEST PUSH1 0x64 PUSH2 0x1945 PUSH1 0x14 DUP3 PUSH2 0x2572 JUMP JUMPDEST PUSH2 0x194F SWAP1 DUP5 PUSH2 0x2553 JUMP JUMPDEST PUSH2 0x1959 SWAP2 SWAP1 PUSH2 0x253F JUMP JUMPDEST SWAP2 POP PUSH1 0x40 MLOAD DUP1 PUSH1 0x60 ADD PUSH1 0x40 MSTORE DUP1 DUP6 PUSH2 0xFFFF AND DUP2 MSTORE PUSH1 0x20 ADD TIMESTAMP PUSH1 0x1 PUSH1 0x1 PUSH1 0x50 SHL SUB AND DUP2 MSTORE PUSH1 0x20 ADD PUSH2 0x1986 CALLER SWAP1 JUMP JUMPDEST PUSH1 0x1 PUSH1 0x1 PUSH1 0xA0 SHL SUB SWAP1 DUP2 AND SWAP1 SWAP2 MSTORE PUSH1 0x0 DUP7 DUP2 MSTORE PUSH1 0x3 PUSH1 0x20 SWAP1 DUP2 MSTORE PUSH1 0x40 SWAP2 DUP3 SWAP1 KECCAK256 DUP5 MLOAD DUP2 SLOAD SWAP3 DUP7 ADD MLOAD SWAP6 SWAP1 SWAP4 ADD MLOAD SWAP1 SWAP4 AND PUSH1 0x1 PUSH1 0x60 SHL MUL PUSH1 0x1 PUSH1 0x1 PUSH1 0x60 SHL SUB PUSH1 0x1 PUSH1 0x1 PUSH1 0x50 SHL SUB SWAP1 SWAP6 AND PUSH3 0x10000 MUL PUSH1 0x1 PUSH1 0x1 PUSH1 0x60 SHL SUB NOT SWAP1 SWAP3 AND PUSH2 0xFFFF SWAP1 SWAP4 AND SWAP3 SWAP1 SWAP3 OR OR SWAP3 SWAP1 SWAP3 AND SWAP2 SWAP1 SWAP2 OR SWAP1 SSTORE JUMPDEST PUSH1 0x40 DUP1 MLOAD DUP6 DUP2 MSTORE PUSH1 0x20 DUP2 ADD DUP5 SWAP1 MSTORE DUP5 ISZERO ISZERO DUP2 DUP4 ADD MSTORE SWAP1 MLOAD PUSH32 0x77EEECEEB03A054C3BB2BF8E5B43D03BED962C2351FB292CF68FEDCA9F6A82A2 SWAP2 DUP2 SWAP1 SUB PUSH1 0x60 ADD SWAP1 LOG1 POP SWAP3 SWAP2 POP POP JUMP JUMPDEST PUSH1 0x1 SLOAD PUSH1 0x40 MLOAD PUSH4 0x31A9108F PUSH1 0xE1 SHL DUP2 MSTORE PUSH1 0x4 DUP2 ADD DUP5 SWAP1 MSTORE PUSH1 0x0 SWAP2 ADDRESS SWAP2 PUSH1 0x1 PUSH1 0x1 PUSH1 0xA0 SHL SUB SWAP1 SWAP2 AND SWAP1 PUSH4 0x6352211E SWAP1 PUSH1 0x24 ADD PUSH1 0x20 PUSH1 0x40 MLOAD DUP1 DUP4 SUB DUP2 DUP7 DUP1 EXTCODESIZE ISZERO DUP1 ISZERO PUSH2 0x1A87 JUMPI PUSH1 0x0 DUP1 REVERT JUMPDEST POP GAS STATICCALL ISZERO DUP1 ISZERO PUSH2 0x1A9B JUMPI RETURNDATASIZE PUSH1 0x0 DUP1 RETURNDATACOPY RETURNDATASIZE PUSH1 0x0 REVERT JUMPDEST POP POP POP POP PUSH1 0x40 MLOAD RETURNDATASIZE PUSH1 0x1F NOT PUSH1 0x1F DUP3 ADD AND DUP3 ADD DUP1 PUSH1 0x40 MSTORE POP DUP2 ADD SWAP1 PUSH2 0x1ABF SWAP2 SWAP1 PUSH2 0x2167 JUMP JUMPDEST PUSH1 0x1 PUSH1 0x1 PUSH1 0xA0 SHL SUB AND EQ PUSH2 0x1B15 JUMPI PUSH1 0x40 MLOAD PUSH3 0x461BCD PUSH1 0xE5 SHL DUP2 MSTORE PUSH1 0x20 PUSH1 0x4 DUP3 ADD MSTORE PUSH1 0x17 PUSH1 0x24 DUP3 ADD MSTORE PUSH32 0x41494E5420412050415254204F4620544845205041434B000000000000000000 PUSH1 0x44 DUP3 ADD MSTORE PUSH1 0x64 ADD PUSH2 0x502 JUMP JUMPDEST PUSH1 0x0 PUSH2 0x1B20 DUP5 PUSH2 0x1627 JUMP JUMPDEST PUSH1 0xFF AND PUSH1 0x0 DUP2 DUP2 MSTORE PUSH1 0x4 PUSH1 0x20 SWAP1 DUP2 MSTORE PUSH1 0x40 DUP1 DUP4 KECCAK256 DUP9 DUP5 MSTORE PUSH1 0x5 SWAP1 SWAP3 MSTORE DUP3 KECCAK256 SLOAD DUP2 SLOAD SWAP4 SWAP5 POP SWAP2 SWAP3 SWAP1 SWAP2 SWAP1 DUP2 LT PUSH2 0x1B57 JUMPI PUSH2 0x1B57 PUSH2 0x261D JUMP JUMPDEST PUSH1 0x0 SWAP2 DUP3 MSTORE PUSH1 0x20 SWAP2 DUP3 SWAP1 KECCAK256 PUSH1 0x40 DUP1 MLOAD PUSH1 0x60 DUP2 ADD DUP3 MSTORE SWAP3 SWAP1 SWAP2 ADD SLOAD PUSH2 0xFFFF DUP2 AND DUP4 MSTORE PUSH3 0x10000 DUP2 DIV PUSH1 0x1 PUSH1 0x1 PUSH1 0x50 SHL SUB AND SWAP4 DUP4 ADD SWAP4 SWAP1 SWAP4 MSTORE PUSH1 0x1 PUSH1 0x60 SHL SWAP1 SWAP3 DIV PUSH1 0x1 PUSH1 0x1 PUSH1 0xA0 SHL SUB AND SWAP2 DUP2 ADD DUP3 SWAP1 MSTORE SWAP2 POP CALLER EQ PUSH2 0x1BC5 JUMPI PUSH1 0x40 MLOAD PUSH3 0x461BCD PUSH1 0xE5 SHL DUP2 MSTORE PUSH1 0x4 ADD PUSH2 0x502 SWAP1 PUSH2 0x24C6 JUMP JUMPDEST DUP1 PUSH1 0x20 ADD MLOAD PUSH1 0x1 PUSH1 0x1 PUSH1 0x50 SHL SUB AND PUSH1 0x8 SLOAD PUSH2 0x1BE0 SWAP2 SWAP1 PUSH2 0x2572 JUMP JUMPDEST PUSH2 0x1BEA SWAP1 DUP4 PUSH2 0x2553 JUMP JUMPDEST SWAP3 POP DUP4 ISZERO PUSH2 0x1DC8 JUMPI DUP2 PUSH1 0x6 PUSH1 0x0 DUP3 DUP3 SLOAD PUSH2 0x1C04 SWAP2 SWAP1 PUSH2 0x2572 JUMP JUMPDEST SWAP1 SWAP2 SSTORE POP POP PUSH1 0x1 SLOAD PUSH1 0x1 PUSH1 0x1 PUSH1 0xA0 SHL SUB AND PUSH4 0x23B872DD ADDRESS CALLER DUP9 PUSH1 0x40 MLOAD DUP5 PUSH4 0xFFFFFFFF AND PUSH1 0xE0 SHL DUP2 MSTORE PUSH1 0x4 ADD PUSH2 0x1C3B SWAP4 SWAP3 SWAP2 SWAP1 PUSH2 0x2450 JUMP JUMPDEST PUSH1 0x0 PUSH1 0x40 MLOAD DUP1 DUP4 SUB DUP2 PUSH1 0x0 DUP8 DUP1 EXTCODESIZE ISZERO DUP1 ISZERO PUSH2 0x1C55 JUMPI PUSH1 0x0 DUP1 REVERT JUMPDEST POP GAS CALL ISZERO DUP1 ISZERO PUSH2 0x1C69 JUMPI RETURNDATASIZE PUSH1 0x0 DUP1 RETURNDATACOPY RETURNDATASIZE PUSH1 0x0 REVERT JUMPDEST POP POP POP PUSH1 0x0 DUP4 DUP2 MSTORE PUSH1 0x4 PUSH1 0x20 MSTORE PUSH1 0x40 DUP2 KECCAK256 DUP1 SLOAD SWAP2 SWAP3 POP SWAP1 PUSH2 0x1C8C SWAP1 PUSH1 0x1 SWAP1 PUSH2 0x2572 JUMP JUMPDEST DUP2 SLOAD DUP2 LT PUSH2 0x1C9C JUMPI PUSH2 0x1C9C PUSH2 0x261D JUMP JUMPDEST PUSH1 0x0 SWAP2 DUP3 MSTORE PUSH1 0x20 DUP1 DUP4 KECCAK256 PUSH1 0x40 DUP1 MLOAD PUSH1 0x60 DUP2 ADD DUP3 MSTORE SWAP4 SWAP1 SWAP2 ADD SLOAD PUSH2 0xFFFF DUP2 AND DUP5 MSTORE PUSH3 0x10000 DUP2 DIV PUSH1 0x1 PUSH1 0x1 PUSH1 0x50 SHL SUB AND DUP5 DUP5 ADD MSTORE PUSH1 0x1 PUSH1 0x60 SHL SWAP1 DIV PUSH1 0x1 PUSH1 0x1 PUSH1 0xA0 SHL SUB AND DUP4 DUP3 ADD MSTORE DUP7 DUP5 MSTORE PUSH1 0x4 DUP3 MSTORE DUP1 DUP5 KECCAK256 DUP11 DUP6 MSTORE PUSH1 0x5 SWAP1 SWAP3 MSTORE SWAP1 SWAP3 KECCAK256 SLOAD DUP3 SLOAD SWAP2 SWAP4 POP DUP4 SWAP3 SWAP2 DUP2 LT PUSH2 0x1D0F JUMPI PUSH2 0x1D0F PUSH2 0x261D JUMP JUMPDEST PUSH1 0x0 SWAP2 DUP3 MSTORE PUSH1 0x20 DUP1 DUP4 KECCAK256 DUP5 MLOAD SWAP3 ADD DUP1 SLOAD DUP6 DUP4 ADD MLOAD PUSH1 0x40 SWAP7 DUP8 ADD MLOAD PUSH1 0x1 PUSH1 0x1 PUSH1 0xA0 SHL SUB AND PUSH1 0x1 PUSH1 0x60 SHL MUL PUSH1 0x1 PUSH1 0x1 PUSH1 0x60 SHL SUB PUSH1 0x1 PUSH1 0x1 PUSH1 0x50 SHL SUB SWAP1 SWAP3 AND PUSH3 0x10000 MUL PUSH1 0x1 PUSH1 0x1 PUSH1 0x60 SHL SUB NOT SWAP1 SWAP4 AND PUSH2 0xFFFF SWAP7 DUP8 AND OR SWAP3 SWAP1 SWAP3 OR AND OR SWAP1 SSTORE DUP10 DUP4 MSTORE PUSH1 0x5 DUP2 MSTORE DUP4 DUP4 KECCAK256 SLOAD DUP6 MLOAD SWAP1 SWAP3 AND DUP4 MSTORE DUP4 DUP4 KECCAK256 SWAP2 SWAP1 SWAP2 SSTORE DUP6 DUP3 MSTORE PUSH1 0x4 SWAP1 MSTORE KECCAK256 DUP1 SLOAD DUP1 PUSH2 0x1D9B JUMPI PUSH2 0x1D9B PUSH2 0x2607 JUMP JUMPDEST PUSH1 0x0 DUP3 DUP2 MSTORE PUSH1 0x20 DUP1 DUP3 KECCAK256 DUP4 ADD PUSH1 0x0 NOT SWAP1 DUP2 ADD DUP4 SWAP1 SSTORE SWAP1 SWAP3 ADD SWAP1 SWAP3 SSTORE DUP8 DUP3 MSTORE PUSH1 0x5 SWAP1 MSTORE PUSH1 0x40 DUP2 KECCAK256 SSTORE POP PUSH2 0x1E94 JUMP JUMPDEST PUSH1 0x40 MLOAD DUP1 PUSH1 0x60 ADD PUSH1 0x40 MSTORE DUP1 DUP7 PUSH2 0xFFFF AND DUP2 MSTORE PUSH1 0x20 ADD PUSH1 0x8 SLOAD PUSH1 0x1 PUSH1 0x1 PUSH1 0x50 SHL SUB AND DUP2 MSTORE PUSH1 0x20 ADD PUSH2 0x1DF5 CALLER SWAP1 JUMP JUMPDEST PUSH1 0x1 PUSH1 0x1 PUSH1 0xA0 SHL SUB AND SWAP1 MSTORE PUSH1 0x0 DUP4 DUP2 MSTORE PUSH1 0x4 PUSH1 0x20 SWAP1 DUP2 MSTORE PUSH1 0x40 DUP1 DUP4 KECCAK256 DUP10 DUP5 MSTORE PUSH1 0x5 SWAP1 SWAP3 MSTORE SWAP1 SWAP2 KECCAK256 SLOAD DUP2 SLOAD DUP2 LT PUSH2 0x1E2D JUMPI PUSH2 0x1E2D PUSH2 0x261D JUMP JUMPDEST PUSH1 0x0 SWAP2 DUP3 MSTORE PUSH1 0x20 SWAP2 DUP3 SWAP1 KECCAK256 DUP4 MLOAD SWAP2 ADD DUP1 SLOAD SWAP3 DUP5 ADD MLOAD PUSH1 0x40 SWAP1 SWAP5 ADD MLOAD PUSH1 0x1 PUSH1 0x1 PUSH1 0xA0 SHL SUB AND PUSH1 0x1 PUSH1 0x60 SHL MUL PUSH1 0x1 PUSH1 0x1 PUSH1 0x60 SHL SUB PUSH1 0x1 PUSH1 0x1 PUSH1 0x50 SHL SUB SWAP1 SWAP6 AND PUSH3 0x10000 MUL PUSH1 0x1 PUSH1 0x1 PUSH1 0x60 SHL SUB NOT SWAP1 SWAP5 AND PUSH2 0xFFFF SWAP1 SWAP4 AND SWAP3 SWAP1 SWAP3 OR SWAP3 SWAP1 SWAP3 OR SWAP3 SWAP1 SWAP3 AND SWAP2 SWAP1 SWAP2 OR SWAP1 SSTORE JUMPDEST PUSH1 0x40 DUP1 MLOAD DUP7 DUP2 MSTORE PUSH1 0x20 DUP2 ADD DUP6 SWAP1 MSTORE DUP6 ISZERO ISZERO DUP2 DUP4 ADD MSTORE SWAP1 MLOAD PUSH32 0x34478FBE5499EED4DBE01A401AD9153550F5F43C8818D1DC1D745CB4B81BA290 SWAP2 DUP2 SWAP1 SUB PUSH1 0x60 ADD SWAP1 LOG1 POP POP SWAP3 SWAP2 POP POP JUMP JUMPDEST PUSH1 0x0 DUP1 SLOAD PUSH1 0x1 PUSH1 0x1 PUSH1 0xA0 SHL SUB DUP4 DUP2 AND PUSH1 0x1 PUSH1 0x1 PUSH1 0xA0 SHL SUB NOT DUP4 AND DUP2 OR DUP5 SSTORE PUSH1 0x40 MLOAD SWAP2 SWAP1 SWAP3 AND SWAP3 DUP4 SWAP2 PUSH32 0x8BE0079C531659141344CD1FD0A4F28419497F9722A3DAAFE3B4186F6B6457E0 SWAP2 SWAP1 LOG3 POP POP JUMP JUMPDEST PUSH1 0x1 SLOAD PUSH1 0x40 DUP1 MLOAD PUSH4 0x644DBB3 PUSH1 0xE1 SHL DUP2 MSTORE SWAP1 MLOAD PUSH1 0x0 SWAP3 PUSH1 0x1 PUSH1 0x1 PUSH1 0xA0 SHL SUB AND SWAP2 PUSH4 0xC89B766 SWAP2 PUSH1 0x4 DUP1 DUP4 ADD SWAP3 PUSH1 0x20 SWAP3 SWAP2 SWAP1 DUP3 SWAP1 SUB ADD DUP2 DUP7 DUP1 EXTCODESIZE ISZERO DUP1 ISZERO PUSH2 0x1F72 JUMPI PUSH1 0x0 DUP1 REVERT JUMPDEST POP GAS STATICCALL ISZERO DUP1 ISZERO PUSH2 0x1F86 JUMPI RETURNDATASIZE PUSH1 0x0 DUP1 RETURNDATACOPY RETURNDATASIZE PUSH1 0x0 REVERT JUMPDEST POP POP POP POP PUSH1 0x40 MLOAD RETURNDATASIZE PUSH1 0x1F NOT PUSH1 0x1F DUP3 ADD AND DUP3 ADD DUP1 PUSH1 0x40 MSTORE POP DUP2 ADD SWAP1 PUSH2 0x1FAA SWAP2 SWAP1 PUSH2 0x2167 JUMP JUMPDEST PUSH1 0x1 PUSH1 0x1 PUSH1 0xA0 SHL SUB AND PUSH4 0x7D94792A PUSH1 0x40 MLOAD DUP2 PUSH4 0xFFFFFFFF AND PUSH1 0xE0 SHL DUP2 MSTORE PUSH1 0x4 ADD PUSH1 0x20 PUSH1 0x40 MLOAD DUP1 DUP4 SUB DUP2 DUP7 DUP1 EXTCODESIZE ISZERO DUP1 ISZERO PUSH2 0x1FE2 JUMPI PUSH1 0x0 DUP1 REVERT JUMPDEST POP GAS STATICCALL ISZERO DUP1 ISZERO PUSH2 0x1FF6 JUMPI RETURNDATASIZE PUSH1 0x0 DUP1 RETURNDATACOPY RETURNDATASIZE PUSH1 0x0 REVERT JUMPDEST POP POP POP POP PUSH1 0x40 MLOAD RETURNDATASIZE PUSH1 0x1F NOT PUSH1 0x1F DUP3 ADD AND DUP3 ADD DUP1 PUSH1 0x40 MSTORE POP DUP2 ADD SWAP1 PUSH2 0x201A SWAP2 SWAP1 PUSH2 0x2415 JUMP JUMPDEST ORIGIN PUSH2 0x2026 PUSH1 0x1 NUMBER PUSH2 0x2572 JUMP JUMPDEST PUSH1 0xC SLOAD PUSH1 0x6 SLOAD PUSH1 0xD SLOAD PUSH1 0x40 MLOAD PUSH1 0x60 SWAP6 SWAP1 SWAP6 SHL PUSH1 0x1 PUSH1 0x1 PUSH1 0x60 SHL SUB NOT AND PUSH1 0x20 DUP7 ADD MSTORE SWAP3 BLOCKHASH PUSH1 0x34 DUP6 ADD MSTORE TIMESTAMP PUSH1 0x54 DUP6 ADD MSTORE PUSH1 0x74 DUP5 ADD DUP8 SWAP1 MSTORE PUSH1 0x94 DUP5 ADD SWAP2 SWAP1 SWAP2 MSTORE PUSH1 0xB4 DUP4 ADD MSTORE PUSH1 0xD4 DUP3 ADD MSTORE PUSH1 0xF4 ADD PUSH1 0x40 DUP1 MLOAD PUSH1 0x1F NOT DUP2 DUP5 SUB ADD DUP2 MSTORE SWAP2 SWAP1 MSTORE DUP1 MLOAD PUSH1 0x20 SWAP1 SWAP2 ADD KECCAK256 XOR SWAP3 SWAP2 POP POP JUMP JUMPDEST PUSH1 0x6 SLOAD PUSH2 0x20B0 JUMPI DUP1 PUSH1 0x7 PUSH1 0x0 DUP3 DUP3 SLOAD PUSH2 0x20A8 SWAP2 SWAP1 PUSH2 0x2527 JUMP JUMPDEST SWAP1 SWAP2 SSTORE POP POP POP JUMP JUMPDEST PUSH1 0x6 SLOAD PUSH1 0x7 SLOAD PUSH2 0x20C0 SWAP1 DUP4 PUSH2 0x2527 JUMP JUMPDEST PUSH2 0x20CA SWAP2 SWAP1 PUSH2 0x253F JUMP JUMPDEST PUSH1 0x8 PUSH1 0x0 DUP3 DUP3 SLOAD PUSH2 0x20DB SWAP2 SWAP1 PUSH2 0x2527 JUMP JUMPDEST SWAP1 SWAP2 SSTORE POP POP PUSH1 0x0 PUSH1 0x7 SSTORE POP JUMP JUMPDEST PUSH1 0x0 DUP1 DUP4 PUSH1 0x1F DUP5 ADD SLT PUSH2 0x20FA JUMPI PUSH1 0x0 DUP1 REVERT JUMPDEST POP DUP2 CALLDATALOAD PUSH8 0xFFFFFFFFFFFFFFFF DUP2 GT ISZERO PUSH2 0x2112 JUMPI PUSH1 0x0 DUP1 REVERT JUMPDEST PUSH1 0x20 DUP4 ADD SWAP2 POP DUP4 PUSH1 0x20 DUP3 PUSH1 0x5 SHL DUP6 ADD ADD GT ISZERO PUSH2 0x212D JUMPI PUSH1 0x0 DUP1 REVERT JUMPDEST SWAP3 POP SWAP3 SWAP1 POP JUMP JUMPDEST DUP1 MLOAD PUSH1 0xFF DUP2 AND DUP2 EQ PUSH2 0x2145 JUMPI PUSH1 0x0 DUP1 REVERT JUMPDEST SWAP2 SWAP1 POP JUMP JUMPDEST PUSH1 0x0 PUSH1 0x20 DUP3 DUP5 SUB SLT ISZERO PUSH2 0x215C JUMPI PUSH1 0x0 DUP1 REVERT JUMPDEST DUP2 CALLDATALOAD PUSH2 0x16C0 DUP2 PUSH2 0x2633 JUMP JUMPDEST PUSH1 0x0 PUSH1 0x20 DUP3 DUP5 SUB SLT ISZERO PUSH2 0x2179 JUMPI PUSH1 0x0 DUP1 REVERT JUMPDEST DUP2 MLOAD PUSH2 0x16C0 DUP2 PUSH2 0x2633 JUMP JUMPDEST PUSH1 0x0 DUP1 PUSH1 0x0 DUP1 PUSH1 0x0 PUSH1 0x80 DUP7 DUP9 SUB SLT ISZERO PUSH2 0x219C JUMPI PUSH1 0x0 DUP1 REVERT JUMPDEST DUP6 CALLDATALOAD PUSH2 0x21A7 DUP2 PUSH2 0x2633 JUMP JUMPDEST SWAP5 POP PUSH1 0x20 DUP7 ADD CALLDATALOAD PUSH2 0x21B7 DUP2 PUSH2 0x2633 JUMP JUMPDEST SWAP4 POP PUSH1 0x40 DUP7 ADD CALLDATALOAD SWAP3 POP PUSH1 0x60 DUP7 ADD CALLDATALOAD PUSH8 0xFFFFFFFFFFFFFFFF DUP1 DUP3 GT ISZERO PUSH2 0x21DB JUMPI PUSH1 0x0 DUP1 REVERT JUMPDEST DUP2 DUP9 ADD SWAP2 POP DUP9 PUSH1 0x1F DUP4 ADD SLT PUSH2 0x21EF JUMPI PUSH1 0x0 DUP1 REVERT JUMPDEST DUP2 CALLDATALOAD DUP2 DUP2 GT ISZERO PUSH2 0x21FE JUMPI PUSH1 0x0 DUP1 REVERT JUMPDEST DUP10 PUSH1 0x20 DUP3 DUP6 ADD ADD GT ISZERO PUSH2 0x2210 JUMPI PUSH1 0x0 DUP1 REVERT JUMPDEST SWAP7 SWAP10 SWAP6 SWAP9 POP SWAP4 SWAP7 POP PUSH1 0x20 ADD SWAP5 SWAP4 SWAP3 POP POP POP JUMP JUMPDEST PUSH1 0x0 DUP1 PUSH1 0x0 PUSH1 0x40 DUP5 DUP7 SUB SLT ISZERO PUSH2 0x2238 JUMPI PUSH1 0x0 DUP1 REVERT JUMPDEST DUP4 CALLDATALOAD PUSH2 0x2243 DUP2 PUSH2 0x2633 JUMP JUMPDEST SWAP3 POP PUSH1 0x20 DUP5 ADD CALLDATALOAD PUSH8 0xFFFFFFFFFFFFFFFF DUP2 GT ISZERO PUSH2 0x225F JUMPI PUSH1 0x0 DUP1 REVERT JUMPDEST PUSH2 0x226B DUP7 DUP3 DUP8 ADD PUSH2 0x20E8 JUMP JUMPDEST SWAP5 SWAP8 SWAP1 SWAP7 POP SWAP4 SWAP5 POP POP POP POP JUMP JUMPDEST PUSH1 0x0 DUP1 PUSH1 0x0 PUSH1 0x40 DUP5 DUP7 SUB SLT ISZERO PUSH2 0x228D JUMPI PUSH1 0x0 DUP1 REVERT JUMPDEST DUP4 CALLDATALOAD PUSH8 0xFFFFFFFFFFFFFFFF DUP2 GT ISZERO PUSH2 0x22A4 JUMPI PUSH1 0x0 DUP1 REVERT JUMPDEST PUSH2 0x22B0 DUP7 DUP3 DUP8 ADD PUSH2 0x20E8 JUMP JUMPDEST SWAP1 SWAP5 POP SWAP3 POP POP PUSH1 0x20 DUP5 ADD CALLDATALOAD PUSH2 0x22C4 DUP2 PUSH2 0x2648 JUMP JUMPDEST DUP1 SWAP2 POP POP SWAP3 POP SWAP3 POP SWAP3 JUMP JUMPDEST PUSH1 0x0 DUP1 PUSH1 0x20 DUP4 DUP6 SUB SLT ISZERO PUSH2 0x22E2 JUMPI PUSH1 0x0 DUP1 REVERT JUMPDEST DUP3 CALLDATALOAD PUSH8 0xFFFFFFFFFFFFFFFF DUP2 GT ISZERO PUSH2 0x22F9 JUMPI PUSH1 0x0 DUP1 REVERT JUMPDEST PUSH2 0x2305 DUP6 DUP3 DUP7 ADD PUSH2 0x20E8 JUMP JUMPDEST SWAP1 SWAP7 SWAP1 SWAP6 POP SWAP4 POP POP POP POP JUMP JUMPDEST PUSH1 0x0 PUSH1 0x20 DUP3 DUP5 SUB SLT ISZERO PUSH2 0x2323 JUMPI PUSH1 0x0 DUP1 REVERT JUMPDEST DUP2 CALLDATALOAD PUSH2 0x16C0 DUP2 PUSH2 0x2648 JUMP JUMPDEST PUSH1 0x0 DUP1 PUSH1 0x0 DUP1 PUSH1 0x0 DUP1 PUSH1 0x0 DUP1 PUSH1 0x0 PUSH2 0x120 DUP11 DUP13 SUB SLT ISZERO PUSH2 0x234D JUMPI PUSH1 0x0 DUP1 REVERT JUMPDEST DUP10 MLOAD PUSH2 0x2358 DUP2 PUSH2 0x2648 JUMP JUMPDEST SWAP9 POP PUSH2 0x2366 PUSH1 0x20 DUP12 ADD PUSH2 0x2134 JUMP JUMPDEST SWAP8 POP PUSH2 0x2374 PUSH1 0x40 DUP12 ADD PUSH2 0x2134 JUMP JUMPDEST SWAP7 POP PUSH2 0x2382 PUSH1 0x60 DUP12 ADD PUSH2 0x2134 JUMP JUMPDEST SWAP6 POP PUSH2 0x2390 PUSH1 0x80 DUP12 ADD PUSH2 0x2134 JUMP JUMPDEST SWAP5 POP PUSH2 0x239E PUSH1 0xA0 DUP12 ADD PUSH2 0x2134 JUMP JUMPDEST SWAP4 POP PUSH2 0x23AC PUSH1 0xC0 DUP12 ADD PUSH2 0x2134 JUMP JUMPDEST SWAP3 POP PUSH2 0x23BA PUSH1 0xE0 DUP12 ADD PUSH2 0x2134 JUMP JUMPDEST SWAP2 POP PUSH2 0x23C9 PUSH2 0x100 DUP12 ADD PUSH2 0x2134 JUMP JUMPDEST SWAP1 POP SWAP3 SWAP6 SWAP9 POP SWAP3 SWAP6 SWAP9 POP SWAP3 SWAP6 SWAP9 JUMP JUMPDEST PUSH1 0x0 PUSH1 0x20 DUP3 DUP5 SUB SLT ISZERO PUSH2 0x23EA JUMPI PUSH1 0x0 DUP1 REVERT JUMPDEST DUP2 CALLDATALOAD PUSH2 0xFFFF DUP2 AND DUP2 EQ PUSH2 0x16C0 JUMPI PUSH1 0x0 DUP1 REVERT JUMPDEST PUSH1 0x0 PUSH1 0x20 DUP3 DUP5 SUB SLT ISZERO PUSH2 0x240E JUMPI PUSH1 0x0 DUP1 REVERT JUMPDEST POP CALLDATALOAD SWAP2 SWAP1 POP JUMP JUMPDEST PUSH1 0x0 PUSH1 0x20 DUP3 DUP5 SUB SLT ISZERO PUSH2 0x2427 JUMPI PUSH1 0x0 DUP1 REVERT JUMPDEST POP MLOAD SWAP2 SWAP1 POP JUMP JUMPDEST PUSH1 0x0 DUP1 PUSH1 0x40 DUP4 DUP6 SUB SLT ISZERO PUSH2 0x2441 JUMPI PUSH1 0x0 DUP1 REVERT JUMPDEST POP POP DUP1 CALLDATALOAD SWAP3 PUSH1 0x20 SWAP1 SWAP2 ADD CALLDATALOAD SWAP2 POP JUMP JUMPDEST PUSH1 0x1 PUSH1 0x1 PUSH1 0xA0 SHL SUB SWAP4 DUP5 AND DUP2 MSTORE SWAP2 SWAP1 SWAP3 AND PUSH1 0x20 DUP3 ADD MSTORE PUSH1 0x40 DUP2 ADD SWAP2 SWAP1 SWAP2 MSTORE PUSH1 0x60 ADD SWAP1 JUMP JUMPDEST PUSH1 0x20 DUP1 DUP3 MSTORE PUSH1 0x11 SWAP1 DUP3 ADD MSTORE PUSH17 0x14185D5CD958589B194E881C185D5CD959 PUSH1 0x7A SHL PUSH1 0x40 DUP3 ADD MSTORE PUSH1 0x60 ADD SWAP1 JUMP JUMPDEST PUSH1 0x20 DUP1 DUP3 MSTORE PUSH1 0xD SWAP1 DUP3 ADD MSTORE PUSH13 0x4E6F207265656E7472616E6379 PUSH1 0x98 SHL PUSH1 0x40 DUP3 ADD MSTORE PUSH1 0x60 ADD SWAP1 JUMP JUMPDEST PUSH1 0x20 DUP1 DUP3 MSTORE PUSH1 0x12 SWAP1 DUP3 ADD MSTORE PUSH18 0x5357495045522C204E4F2053574950494E47 PUSH1 0x70 SHL PUSH1 0x40 DUP3 ADD MSTORE PUSH1 0x60 ADD SWAP1 JUMP JUMPDEST PUSH1 0x20 DUP1 DUP3 MSTORE DUP2 DUP2 ADD MSTORE PUSH32 0x4F776E61626C653A2063616C6C6572206973206E6F7420746865206F776E6572 PUSH1 0x40 DUP3 ADD MSTORE PUSH1 0x60 ADD SWAP1 JUMP JUMPDEST PUSH1 0x0 DUP3 NOT DUP3 GT ISZERO PUSH2 0x253A JUMPI PUSH2 0x253A PUSH2 0x25DB JUMP JUMPDEST POP ADD SWAP1 JUMP JUMPDEST PUSH1 0x0 DUP3 PUSH2 0x254E JUMPI PUSH2 0x254E PUSH2 0x25F1 JUMP JUMPDEST POP DIV SWAP1 JUMP JUMPDEST PUSH1 0x0 DUP2 PUSH1 0x0 NOT DIV DUP4 GT DUP3 ISZERO ISZERO AND ISZERO PUSH2 0x256D JUMPI PUSH2 0x256D PUSH2 0x25DB JUMP JUMPDEST POP MUL SWAP1 JUMP JUMPDEST PUSH1 0x0 DUP3 DUP3 LT ISZERO PUSH2 0x2584 JUMPI PUSH2 0x2584 PUSH2 0x25DB JUMP JUMPDEST POP SUB SWAP1 JUMP JUMPDEST PUSH1 0x0 PUSH1 0xFF DUP3 AND PUSH1 0xFF DUP5 AND DUP1 DUP3 LT ISZERO PUSH2 0x25A3 JUMPI PUSH2 0x25A3 PUSH2 0x25DB JUMP JUMPDEST SWAP1 SUB SWAP4 SWAP3 POP POP POP JUMP JUMPDEST PUSH1 0x0 PUSH1 0x0 NOT DUP3 EQ ISZERO PUSH2 0x25C0 JUMPI PUSH2 0x25C0 PUSH2 0x25DB JUMP JUMPDEST POP PUSH1 0x1 ADD SWAP1 JUMP JUMPDEST PUSH1 0x0 DUP3 PUSH2 0x25D6 JUMPI PUSH2 0x25D6 PUSH2 0x25F1 JUMP JUMPDEST POP MOD SWAP1 JUMP JUMPDEST PUSH4 0x4E487B71 PUSH1 0xE0 SHL PUSH1 0x0 MSTORE PUSH1 0x11 PUSH1 0x4 MSTORE PUSH1 0x24 PUSH1 0x0 REVERT JUMPDEST PUSH4 0x4E487B71 PUSH1 0xE0 SHL PUSH1 0x0 MSTORE PUSH1 0x12 PUSH1 0x4 MSTORE PUSH1 0x24 PUSH1 0x0 REVERT JUMPDEST PUSH4 0x4E487B71 PUSH1 0xE0 SHL PUSH1 0x0 MSTORE PUSH1 0x31 PUSH1 0x4 MSTORE PUSH1 0x24 PUSH1 0x0 REVERT JUMPDEST PUSH4 0x4E487B71 PUSH1 0xE0 SHL PUSH1 0x0 MSTORE PUSH1 0x32 PUSH1 0x4 MSTORE PUSH1 0x24 PUSH1 0x0 REVERT JUMPDEST PUSH1 0x1 PUSH1 0x1 PUSH1 0xA0 SHL SUB DUP2 AND DUP2 EQ PUSH2 0x555 JUMPI PUSH1 0x0 DUP1 REVERT JUMPDEST DUP1 ISZERO ISZERO DUP2 EQ PUSH2 0x555 JUMPI PUSH1 0x0 DUP1 REVERT INVALID LOG2 PUSH5 0x6970667358 0x22 SLT KECCAK256 INVALID 0x2B 0xAB PUSH27 0x8F4BE7EAAB59249FD376C6A3FE539967626919B5CBFD4A5A9070B3 LOG2 PUSH5 0x736F6C6343 STOP ADDMOD SMOD STOP CALLER "
		},
		"gasEstimates": {
			"creation": {
				"codeDepositCost": "1973600",
				"executionCost": "infinite",
				"totalCost": "infinite"
			},
			"external": {
				"DAILY_LOOT_RATE()": "2308",
				"LOOT_CLAIM_TAX_PERCENTAGE()": "251",
				"MAXIMUM_GLOBAL_LOOT()": "295",
				"MAX_ALPHA()": "338",
				"MINIMUM_TO_EXIT()": "2352",
				"addManyToBankAndPack(address,uint16[])": "infinite",
				"bank(uint256)": "2668",
				"claimManyFromBankAndPack(uint16[],bool)": "infinite",
				"isThief(uint256)": "infinite",
				"lastClaimTimestamp()": "2395",
				"lootPerAlpha()": "2373",
				"onERC721Received(address,address,uint256,bytes)": "infinite",
				"owner()": "2365",
				"pack(uint256,uint256)": "4911",
				"packIndices(uint256)": "2495",
				"paused()": "2410",
				"randomPoliceOwner(uint256)": "infinite",
				"rescue(uint256[])": "infinite",
				"rescueEnabled()": "2400",
				"setPaused(bool)": "infinite",
				"setRescueEnabled(bool)": "26708",
				"setSettings(uint256,uint256)": "46636",
				"totalAlphaStaked()": "2374",
				"totalLootEarned()": "2396",
				"totalThiefStaked()": "2329",
				"transferOwnership(address)": "infinite",
				"unaccountedRewards()": "2350"
			},
			"internal": {
				"_addPoliceToPack(address,uint256)": "infinite",
				"_addThiefToBank(address,uint256)": "infinite",
				"_alphaForPolice(uint256)": "infinite",
				"_claimPoliceFromPack(uint256,bool)": "infinite",
				"_claimThiefFromBank(uint256,bool)": "infinite",
				"_payPoliceTax(uint256)": "infinite",
				"random(uint256)": "infinite"
			}
		},
		"methodIdentifiers": {
			"DAILY_LOOT_RATE()": "000d07ce",
			"LOOT_CLAIM_TAX_PERCENTAGE()": "9af69f2f",
			"MAXIMUM_GLOBAL_LOOT()": "8b6a036d",
			"MAX_ALPHA()": "201ef2a4",
			"MINIMUM_TO_EXIT()": "37a386b9",
			"addManyToBankAndPack(address,uint16[])": "5b519142",
			"bank(uint256)": "771f2476",
			"claimManyFromBankAndPack(uint16[],bool)": "b40b03d2",
			"isThief(uint256)": "0db7af53",
			"lastClaimTimestamp()": "607af397",
			"lootPerAlpha()": "7bde72dc",
			"onERC721Received(address,address,uint256,bytes)": "150b7a02",
			"owner()": "8da5cb5b",
			"pack(uint256,uint256)": "dd55fcb3",
			"packIndices(uint256)": "6f234fb5",
			"paused()": "5c975abb",
			"randomPoliceOwner(uint256)": "9e6dee4a",
			"rescue(uint256[])": "6a3ef057",
			"rescueEnabled()": "39db714f",
			"setPaused(bool)": "16c38b3c",
			"setRescueEnabled(bool)": "76531008",
			"setSettings(uint256,uint256)": "37a28979",
			"totalAlphaStaked()": "6f257875",
			"totalLootEarned()": "1e1d8cf8",
			"totalThiefStaked()": "457e5789",
			"transferOwnership(address)": "f2fde38b",
			"unaccountedRewards()": "c0c472c0"
		}
	},
	"abi": [
		{
			"inputs": [
				{
					"internalType": "contract PoliceAndThief",
					"name": "_game",
					"type": "address"
				},
				{
					"internalType": "contract LOOT",
					"name": "_loot",
					"type": "address"
				}
			],
			"stateMutability": "nonpayable",
			"type": "constructor"
		},
		{
			"anonymous": false,
			"inputs": [
				{
					"indexed": true,
					"internalType": "address",
					"name": "previousOwner",
					"type": "address"
				},
				{
					"indexed": true,
					"internalType": "address",
					"name": "newOwner",
					"type": "address"
				}
			],
			"name": "OwnershipTransferred",
			"type": "event"
		},
		{
			"anonymous": false,
			"inputs": [
				{
					"indexed": false,
					"internalType": "address",
					"name": "account",
					"type": "address"
				}
			],
			"name": "Paused",
			"type": "event"
		},
		{
			"anonymous": false,
			"inputs": [
				{
					"indexed": false,
					"internalType": "uint256",
					"name": "tokenId",
					"type": "uint256"
				},
				{
					"indexed": false,
					"internalType": "uint256",
					"name": "earned",
					"type": "uint256"
				},
				{
					"indexed": false,
					"internalType": "bool",
					"name": "unstaked",
					"type": "bool"
				}
			],
			"name": "PoliceClaimed",
			"type": "event"
		},
		{
			"anonymous": false,
			"inputs": [
				{
					"indexed": false,
					"internalType": "uint256",
					"name": "tokenId",
					"type": "uint256"
				},
				{
					"indexed": false,
					"internalType": "uint256",
					"name": "earned",
					"type": "uint256"
				},
				{
					"indexed": false,
					"internalType": "bool",
					"name": "unstaked",
					"type": "bool"
				}
			],
			"name": "ThiefClaimed",
			"type": "event"
		},
		{
			"anonymous": false,
			"inputs": [
				{
					"indexed": false,
					"internalType": "address",
					"name": "owner",
					"type": "address"
				},
				{
					"indexed": false,
					"internalType": "uint256",
					"name": "tokenId",
					"type": "uint256"
				},
				{
					"indexed": false,
					"internalType": "uint256",
					"name": "value",
					"type": "uint256"
				}
			],
			"name": "TokenStaked",
			"type": "event"
		},
		{
			"anonymous": false,
			"inputs": [
				{
					"indexed": false,
					"internalType": "address",
					"name": "account",
					"type": "address"
				}
			],
			"name": "Unpaused",
			"type": "event"
		},
		{
			"inputs": [],
			"name": "DAILY_LOOT_RATE",
			"outputs": [
				{
					"internalType": "uint256",
					"name": "",
					"type": "uint256"
				}
			],
			"stateMutability": "view",
			"type": "function"
		},
		{
			"inputs": [],
			"name": "LOOT_CLAIM_TAX_PERCENTAGE",
			"outputs": [
				{
					"internalType": "uint256",
					"name": "",
					"type": "uint256"
				}
			],
			"stateMutability": "view",
			"type": "function"
		},
		{
			"inputs": [],
			"name": "MAXIMUM_GLOBAL_LOOT",
			"outputs": [
				{
					"internalType": "uint256",
					"name": "",
					"type": "uint256"
				}
			],
			"stateMutability": "view",
			"type": "function"
		},
		{
			"inputs": [],
			"name": "MAX_ALPHA",
			"outputs": [
				{
					"internalType": "uint8",
					"name": "",
					"type": "uint8"
				}
			],
			"stateMutability": "view",
			"type": "function"
		},
		{
			"inputs": [],
			"name": "MINIMUM_TO_EXIT",
			"outputs": [
				{
					"internalType": "uint256",
					"name": "",
					"type": "uint256"
				}
			],
			"stateMutability": "view",
			"type": "function"
		},
		{
			"inputs": [
				{
					"internalType": "address",
					"name": "account",
					"type": "address"
				},
				{
					"internalType": "uint16[]",
					"name": "tokenIds",
					"type": "uint16[]"
				}
			],
			"name": "addManyToBankAndPack",
			"outputs": [],
			"stateMutability": "nonpayable",
			"type": "function"
		},
		{
			"inputs": [
				{
					"internalType": "uint256",
					"name": "",
					"type": "uint256"
				}
			],
			"name": "bank",
			"outputs": [
				{
					"internalType": "uint16",
					"name": "tokenId",
					"type": "uint16"
				},
				{
					"internalType": "uint80",
					"name": "value",
					"type": "uint80"
				},
				{
					"internalType": "address",
					"name": "owner",
					"type": "address"
				}
			],
			"stateMutability": "view",
			"type": "function"
		},
		{
			"inputs": [
				{
					"internalType": "uint16[]",
					"name": "tokenIds",
					"type": "uint16[]"
				},
				{
					"internalType": "bool",
					"name": "unstake",
					"type": "bool"
				}
			],
			"name": "claimManyFromBankAndPack",
			"outputs": [],
			"stateMutability": "nonpayable",
			"type": "function"
		},
		{
			"inputs": [
				{
					"internalType": "uint256",
					"name": "tokenId",
					"type": "uint256"
				}
			],
			"name": "isThief",
			"outputs": [
				{
					"internalType": "bool",
					"name": "thief",
					"type": "bool"
				}
			],
			"stateMutability": "view",
			"type": "function"
		},
		{
			"inputs": [],
			"name": "lastClaimTimestamp",
			"outputs": [
				{
					"internalType": "uint256",
					"name": "",
					"type": "uint256"
				}
			],
			"stateMutability": "view",
			"type": "function"
		},
		{
			"inputs": [],
			"name": "lootPerAlpha",
			"outputs": [
				{
					"internalType": "uint256",
					"name": "",
					"type": "uint256"
				}
			],
			"stateMutability": "view",
			"type": "function"
		},
		{
			"inputs": [
				{
					"internalType": "address",
					"name": "",
					"type": "address"
				},
				{
					"internalType": "address",
					"name": "from",
					"type": "address"
				},
				{
					"internalType": "uint256",
					"name": "",
					"type": "uint256"
				},
				{
					"internalType": "bytes",
					"name": "",
					"type": "bytes"
				}
			],
			"name": "onERC721Received",
			"outputs": [
				{
					"internalType": "bytes4",
					"name": "",
					"type": "bytes4"
				}
			],
			"stateMutability": "pure",
			"type": "function"
		},
		{
			"inputs": [],
			"name": "owner",
			"outputs": [
				{
					"internalType": "address",
					"name": "",
					"type": "address"
				}
			],
			"stateMutability": "view",
			"type": "function"
		},
		{
			"inputs": [
				{
					"internalType": "uint256",
					"name": "",
					"type": "uint256"
				},
				{
					"internalType": "uint256",
					"name": "",
					"type": "uint256"
				}
			],
			"name": "pack",
			"outputs": [
				{
					"internalType": "uint16",
					"name": "tokenId",
					"type": "uint16"
				},
				{
					"internalType": "uint80",
					"name": "value",
					"type": "uint80"
				},
				{
					"internalType": "address",
					"name": "owner",
					"type": "address"
				}
			],
			"stateMutability": "view",
			"type": "function"
		},
		{
			"inputs": [
				{
					"internalType": "uint256",
					"name": "",
					"type": "uint256"
				}
			],
			"name": "packIndices",
			"outputs": [
				{
					"internalType": "uint256",
					"name": "",
					"type": "uint256"
				}
			],
			"stateMutability": "view",
			"type": "function"
		},
		{
			"inputs": [],
			"name": "paused",
			"outputs": [
				{
					"internalType": "bool",
					"name": "",
					"type": "bool"
				}
			],
			"stateMutability": "view",
			"type": "function"
		},
		{
			"inputs": [
				{
					"internalType": "uint256",
					"name": "seed",
					"type": "uint256"
				}
			],
			"name": "randomPoliceOwner",
			"outputs": [
				{
					"internalType": "address",
					"name": "",
					"type": "address"
				}
			],
			"stateMutability": "view",
			"type": "function"
		},
		{
			"inputs": [
				{
					"internalType": "uint256[]",
					"name": "tokenIds",
					"type": "uint256[]"
				}
			],
			"name": "rescue",
			"outputs": [],
			"stateMutability": "nonpayable",
			"type": "function"
		},
		{
			"inputs": [],
			"name": "rescueEnabled",
			"outputs": [
				{
					"internalType": "bool",
					"name": "",
					"type": "bool"
				}
			],
			"stateMutability": "view",
			"type": "function"
		},
		{
			"inputs": [
				{
					"internalType": "bool",
					"name": "_paused",
					"type": "bool"
				}
			],
			"name": "setPaused",
			"outputs": [],
			"stateMutability": "nonpayable",
			"type": "function"
		},
		{
			"inputs": [
				{
					"internalType": "bool",
					"name": "_enabled",
					"type": "bool"
				}
			],
			"name": "setRescueEnabled",
			"outputs": [],
			"stateMutability": "nonpayable",
			"type": "function"
		},
		{
			"inputs": [
				{
					"internalType": "uint256",
					"name": "rate",
					"type": "uint256"
				},
				{
					"internalType": "uint256",
					"name": "exit",
					"type": "uint256"
				}
			],
			"name": "setSettings",
			"outputs": [],
			"stateMutability": "nonpayable",
			"type": "function"
		},
		{
			"inputs": [],
			"name": "totalAlphaStaked",
			"outputs": [
				{
					"internalType": "uint256",
					"name": "",
					"type": "uint256"
				}
			],
			"stateMutability": "view",
			"type": "function"
		},
		{
			"inputs": [],
			"name": "totalLootEarned",
			"outputs": [
				{
					"internalType": "uint256",
					"name": "",
					"type": "uint256"
				}
			],
			"stateMutability": "view",
			"type": "function"
		},
		{
			"inputs": [],
			"name": "totalThiefStaked",
			"outputs": [
				{
					"internalType": "uint256",
					"name": "",
					"type": "uint256"
				}
			],
			"stateMutability": "view",
			"type": "function"
		},
		{
			"inputs": [
				{
					"internalType": "address",
					"name": "newOwner",
					"type": "address"
				}
			],
			"name": "transferOwnership",
			"outputs": [],
			"stateMutability": "nonpayable",
			"type": "function"
		},
		{
			"inputs": [],
			"name": "unaccountedRewards",
			"outputs": [
				{
					"internalType": "uint256",
					"name": "",
					"type": "uint256"
				}
			],
			"stateMutability": "view",
			"type": "function"
		}
	]
}