{
	"data": {
		"bytecode": {
			"linkReferences": {},
			"object": "60a06040526717979cfe362a0000600b55601e600c556014805461ffff60a01b1916600160a81b1790553480156200003657600080fd5b50604051620034013803806200340183398101604081905262000059916200023a565b604080518082018252600b81526a506f6c6963652047616d6560a81b6020808301918252835180850190945260058452645747414d4560d81b908401528151919291620000a99160009162000194565b508051620000bf90600190602084019062000194565b505050620000dc620000d66200013e60201b60201c565b62000142565b600a805460ff60a01b1916600160a01b179055601280546001600160a01b038086166001600160a01b031992831617909255601380549285169290911691909117905560808190526200013160058262000282565b600d5550620002fb915050565b3390565b600a80546001600160a01b038381166001600160a01b0319831681179093556040519116919082907f8be0079c531659141344cd1fd0a4f28419497f9722a3daafe3b4186f6b6457e090600090a35050565b828054620001a290620002a5565b90600052602060002090601f016020900481019282620001c6576000855562000211565b82601f10620001e157805160ff191683800117855562000211565b8280016001018555821562000211579182015b8281111562000211578251825591602001919060010190620001f4565b506200021f92915062000223565b5090565b5b808211156200021f576000815560010162000224565b6000806000606084860312156200025057600080fd5b83516200025d81620002e2565b60208501519093506200027081620002e2565b80925050604084015190509250925092565b600082620002a057634e487b7160e01b600052601260045260246000fd5b500490565b600181811c90821680620002ba57607f821691505b60208210811415620002dc57634e487b7160e01b600052602260045260246000fd5b50919050565b6001600160a01b0381168114620002f857600080fd5b50565b6080516130d56200032c6000396000818161086e01528181610c6701528181610cb501526110ed01526130d56000f3fe6080604052600436106102515760003560e01c80636f4f736611610139578063b88d4fde116100b6578063e05c57bf1161007a578063e05c57bf146106e9578063e1fc334f146107bd578063e985e9c5146107dd578063f0292a0314610826578063f2fde38b1461083c578063f47c84c51461085c57600080fd5b8063b88d4fde1461065d578063c002d23d1461067d578063c084f54014610693578063c87b56dd146106a9578063d773826d146106c957600080fd5b806395d89b41116100fd57806395d89b41146105bb5780639b7b2ab0146105d0578063a1b8f374146105f0578063a22cb4651461061d578063a2b40d191461063d57600080fd5b80636f4f73661461051057806370a082311461053057806376cdb03b146105505780638da5cb5b1461057057806394e568471461058e57600080fd5b8063281105e3116101d257806342842e0e1161019657806342842e0e146104505780634f02c420146104705780634f6ccce71461049e5780635c975abb146104be5780636352211e146104dd57806367f68fac146104fd57600080fd5b8063281105e3146103c65780632f745c59146103e65780633431a753146104065780633ccfd60b146104265780634018b1f81461043b57600080fd5b80630c89b766116102195780630c89b7661461032757806316c38b3c1461034757806318160ddd1461036757806323b872dd1461038657806327de8f27146103a657600080fd5b806301ffc9a71461025657806306fdde031461028b578063081812fc146102ad578063090d23b9146102e5578063095ea7b314610307575b600080fd5b34801561026257600080fd5b50610276610271366004612bb2565b610890565b60405190151581526020015b60405180910390f35b34801561029757600080fd5b506102a06108bb565b6040516102829190612d25565b3480156102b957600080fd5b506102cd6102c8366004612c53565b61094d565b6040516001600160a01b039091168152602001610282565b3480156102f157600080fd5b506103056103003660046129d3565b6109e7565b005b34801561031357600080fd5b50610305610322366004612b6b565b610a33565b34801561033357600080fd5b506014546102cd906001600160a01b031681565b34801561035357600080fd5b50610305610362366004612b97565b610b49565b34801561037357600080fd5b506008545b604051908152602001610282565b34801561039257600080fd5b506103056103a1366004612a46565b610b8c565b3480156103b257600080fd5b506103786103c1366004612c53565b610c4d565b3480156103d257600080fd5b506103056103e1366004612b97565b610d0d565b3480156103f257600080fd5b50610378610401366004612b6b565b610d55565b34801561041257600080fd5b50610305610421366004612c53565b610deb565b34801561043257600080fd5b50610305610e1a565b34801561044757600080fd5b50600d54610378565b34801561045c57600080fd5b5061030561046b366004612a46565b610e7d565b34801561047c57600080fd5b50600e5461048b9061ffff1681565b60405161ffff9091168152602001610282565b3480156104aa57600080fd5b506103786104b9366004612c53565b610e98565b3480156104ca57600080fd5b50600a54600160a01b900460ff16610276565b3480156104e957600080fd5b506102cd6104f8366004612c53565b610f2b565b61030561050b366004612c85565b610fa2565b34801561051c57600080fd5b5061030561052b3660046129d3565b61169d565b34801561053c57600080fd5b5061037861054b3660046129d3565b6116e9565b34801561055c57600080fd5b506011546102cd906001600160a01b031681565b34801561057c57600080fd5b50600a546001600160a01b03166102cd565b34801561059a57600080fd5b506105ae6105a9366004612c53565b611770565b6040516102829190612dde565b3480156105c757600080fd5b506102a0611817565b3480156105dc57600080fd5b506012546102cd906001600160a01b031681565b3480156105fc57600080fd5b5061037861060b366004612c53565b60106020526000908152604090205481565b34801561062957600080fd5b50610305610638366004612b36565b611826565b34801561064957600080fd5b50610305610658366004612c53565b6118eb565b34801561066957600080fd5b50610305610678366004612a87565b61191a565b34801561068957600080fd5b50610378600b5481565b34801561069f57600080fd5b50610378600d5481565b3480156106b557600080fd5b506102a06106c4366004612c53565b611951565b3480156106d557600080fd5b506103056106e43660046129d3565b611a50565b3480156106f557600080fd5b5061076b610704366004612c53565b600f6020526000908152604090205460ff808216916101008104821691620100008204811691630100000081048216916401000000008204811691650100000000008104821691600160301b8204811691600160381b8104821691600160401b9091041689565b604080519915158a5260ff98891660208b01529688169689019690965293861660608801529185166080870152841660a0860152831660c0850152821660e08401521661010082015261012001610282565b3480156107c957600080fd5b506013546102cd906001600160a01b031681565b3480156107e957600080fd5b506102766107f8366004612a0d565b6001600160a01b03918216600090815260056020908152604080832093909416825291909152205460ff1690565b34801561083257600080fd5b50610378600c5481565b34801561084857600080fd5b506103056108573660046129d3565b611a9c565b34801561086857600080fd5b506103787f000000000000000000000000000000000000000000000000000000000000000081565b60006001600160e01b0319821663780e9d6360e01b14806108b557506108b582611b34565b92915050565b6060600080546108ca90612f96565b80601f01602080910402602001604051908101604052809291908181526020018280546108f690612f96565b80156109435780601f1061091857610100808354040283529160200191610943565b820191906000526020600020905b81548152906001019060200180831161092657829003601f168201915b5050505050905090565b6000818152600260205260408120546001600160a01b03166109cb5760405162461bcd60e51b815260206004820152602c60248201527f4552433732313a20617070726f76656420717565727920666f72206e6f6e657860448201526b34b9ba32b73a103a37b5b2b760a11b60648201526084015b60405180910390fd5b506000908152600460205260409020546001600160a01b031690565b600a546001600160a01b03163314610a115760405162461bcd60e51b81526004016109c290612d58565b601180546001600160a01b0319166001600160a01b0392909216919091179055565b6000610a3e82610f2b565b9050806001600160a01b0316836001600160a01b03161415610aac5760405162461bcd60e51b815260206004820152602160248201527f4552433732313a20617070726f76616c20746f2063757272656e74206f776e656044820152603960f91b60648201526084016109c2565b336001600160a01b0382161480610ac85750610ac881336107f8565b610b3a5760405162461bcd60e51b815260206004820152603860248201527f4552433732313a20617070726f76652063616c6c6572206973206e6f74206f7760448201527f6e6572206e6f7220617070726f76656420666f7220616c6c000000000000000060648201526084016109c2565b610b448383611b84565b505050565b600a546001600160a01b03163314610b735760405162461bcd60e51b81526004016109c290612d58565b8015610b8457610b81611bf2565b50565b610b81611c98565b601454600160a01b900460ff1615610bd65760405162461bcd60e51b815260206004820152600d60248201526c4e6f207265656e7472616e637960981b60448201526064016109c2565b6014805460ff60a01b1916600160a01b1790556011546001600160a01b0316610bfc3390565b6001600160a01b031614610c3057610c143382611d1d565b610c305760405162461bcd60e51b81526004016109c290612d8d565b610c3b838383611e14565b50506014805460ff60a01b1916905550565b6000600d548211610c6057506000919050565b6005610c8d7f00000000000000000000000000000000000000000000000000000000000000006002612f34565b610c979190612f20565b8211610cae575069043c33c1937564800000919050565b6005610cdb7f00000000000000000000000000000000000000000000000000000000000000006004612f34565b610ce59190612f20565b8211610cfc5750690878678326eac9000000919050565b50690cb49b44ba602d800000919050565b600a546001600160a01b03163314610d375760405162461bcd60e51b81526004016109c290612d58565b60148054911515600160a81b0260ff60a81b19909216919091179055565b6000610d60836116e9565b8210610dc25760405162461bcd60e51b815260206004820152602b60248201527f455243373231456e756d657261626c653a206f776e657220696e646578206f7560448201526a74206f6620626f756e647360a81b60648201526084016109c2565b506001600160a01b03919091166000908152600660209081526040808320938352929052205490565b600a546001600160a01b03163314610e155760405162461bcd60e51b81526004016109c290612d58565b600d55565b600a546001600160a01b03163314610e445760405162461bcd60e51b81526004016109c290612d58565b600a546040516001600160a01b03909116904780156108fc02916000818181858888f19350505050158015610b81573d6000803e3d6000fd5b610b448383836040518060200160405280600081525061191a565b6000610ea360085490565b8210610f065760405162461bcd60e51b815260206004820152602c60248201527f455243373231456e756d657261626c653a20676c6f62616c20696e646578206f60448201526b7574206f6620626f756e647360a01b60648201526084016109c2565b60088281548110610f1957610f1961305e565b90600052602060002001549050919050565b6000818152600260205260408120546001600160a01b0316806108b55760405162461bcd60e51b815260206004820152602960248201527f4552433732313a206f776e657220717565727920666f72206e6f6e657869737460448201526832b73a103a37b5b2b760b91b60648201526084016109c2565b601454600160a01b900460ff1615610fec5760405162461bcd60e51b815260206004820152600d60248201526c4e6f207265656e7472616e637960981b60448201526064016109c2565b6014805460ff60a01b1916600160a01b179055611013600a5460ff600160a01b9091041690565b156110545760405162461bcd60e51b815260206004820152601160248201527014185d5cd958589b194e881c185d5cd959607a1b60448201526064016109c2565b80158061106a5750601454600160a81b900460ff165b6110ae5760405162461bcd60e51b815260206004820152601560248201527414dd185ada5b99c81b9bdd081858dd1a5d985d1959605a1b60448201526064016109c2565b3233146110e85760405162461bcd60e51b81526020600482015260086024820152674f6e6c7920454f4160c01b60448201526064016109c2565b600e547f00000000000000000000000000000000000000000000000000000000000000009061111c90849061ffff16612ee3565b111561115e5760405162461bcd60e51b8152602060048201526011602482015270105b1b081d1bdad95b9cc81b5a5b9d1959607a1b60448201526064016109c2565b6000821180156111705750600c548211155b6111b25760405162461bcd60e51b8152602060048201526013602482015272125b9d985b1a59081b5a5b9d08185b5bdd5b9d606a1b60448201526064016109c2565b600d54600e5461ffff16101561127f57600d54600e546111d790849061ffff16612ee3565b11156112255760405162461bcd60e51b815260206004820152601f60248201527f416c6c20746f6b656e73206f6e2d73616c6520616c726561647920736f6c640060448201526064016109c2565b34600b54836112349190612f34565b1461127a5760405162461bcd60e51b8152602060048201526016602482015275125b9d985b1a59081c185e5b595b9d08185b5bdd5b9d60521b60448201526064016109c2565b61128a565b341561128a57600080fd5b6000808367ffffffffffffffff8111156112a6576112a6613074565b6040519080825280602002602001820160405280156112cf578160200160208202803683370190505b50905060008467ffffffffffffffff8111156112ed576112ed613074565b604051908082528060200260200182016040528015611316578160200160208202803683370190505b50600e5490915060009061ffff16815b8781101561150b57600e805461ffff1690600061134283612fcb565b82546101009290920a61ffff818102199093169183160217909155600e5461136b925016611fbf565b601454600e54604051634155c48560e11b815261ffff909116831860048201529194506001600160a01b0316906382ab890a90602401602060405180830381600087803b1580156113bb57600080fd5b505af11580156113cf573d6000803e3d6000fd5b505050506040513d601f19601f820116820180604052508101906113f39190612c6c565b50600e546114059061ffff168461209a565b50600061141184612215565b600e549091506114249061ffff16610c4d565b61142e9088612ee3565b965087158061144657506001600160a01b0381163314155b15611483578085838151811061145e5761145e61305e565b60200260200101906001600160a01b031690816001600160a01b0316815250506114f8565b600e54865161ffff909116908790849081106114a1576114a161305e565b61ffff9092166020928302919091019091015260115485516001600160a01b03909116908690849081106114d7576114d761305e565b60200260200101906001600160a01b031690816001600160a01b0316815250505b508061150381612fed565b915050611326565b508415611585576012546001600160a01b0316639dc29fac336040516001600160e01b031960e084901b1681526001600160a01b03909116600482015260248101889052604401600060405180830381600087803b15801561156c57600080fd5b505af1158015611580573d6000803e3d6000fd5b505050505b60005b835181101561161d57600061159d8284612ee3565b6115a8906001612ee3565b90508715806115e25750336001600160a01b03168583815181106115ce576115ce61305e565b60200260200101516001600160a01b031614155b1561160a5761160a8583815181106115fc576115fc61305e565b6020026020010151826122e1565b508061161581612fed565b915050611588565b508515611687576011546001600160a01b0316635b51914233866040518363ffffffff1660e01b8152600401611654929190612ccb565b600060405180830381600087803b15801561166e57600080fd5b505af1158015611682573d6000803e3d6000fd5b505050505b50506014805460ff60a01b191690555050505050565b600a546001600160a01b031633146116c75760405162461bcd60e51b81526004016109c290612d58565b601380546001600160a01b0319166001600160a01b0392909216919091179055565b60006001600160a01b0382166117545760405162461bcd60e51b815260206004820152602a60248201527f4552433732313a2062616c616e636520717565727920666f7220746865207a65604482015269726f206164647265737360b01b60648201526084016109c2565b506001600160a01b031660009081526003602052604090205490565b611778612972565b506000908152600f6020908152604091829020825161012081018452905460ff808216151583526101008083048216948401949094526201000082048116948301949094526301000000810484166060830152640100000000810484166080830152650100000000008104841660a0830152600160301b8104841660c0830152600160381b8104841660e0830152600160401b90049092169082015290565b6060600180546108ca90612f96565b6001600160a01b03821633141561187f5760405162461bcd60e51b815260206004820152601960248201527f4552433732313a20617070726f766520746f2063616c6c65720000000000000060448201526064016109c2565b3360008181526005602090815260408083206001600160a01b03871680855290835292819020805460ff191686151590811790915590519081529192917f17307eab39ab6107e8899845ad3d59bd9653f200f220920489ca2b5937696c31910160405180910390a35050565b600a546001600160a01b031633146119155760405162461bcd60e51b81526004016109c290612d58565b600b55565b6119243383611d1d565b6119405760405162461bcd60e51b81526004016109c290612d8d565b61194b848484610b8c565b50505050565b6000818152600260205260409020546060906001600160a01b03166119d05760405162461bcd60e51b815260206004820152602f60248201527f4552433732314d657461646174613a2055524920717565727920666f72206e6f60448201526e3732bc34b9ba32b73a103a37b5b2b760891b60648201526084016109c2565b60135460405163c87b56dd60e01b8152600481018490526001600160a01b039091169063c87b56dd9060240160006040518083038186803b158015611a1457600080fd5b505afa158015611a28573d6000803e3d6000fd5b505050506040513d6000823e601f3d908101601f191682016040526108b59190810190612bdc565b600a546001600160a01b03163314611a7a5760405162461bcd60e51b81526004016109c290612d58565b601480546001600160a01b0319166001600160a01b0392909216919091179055565b600a546001600160a01b03163314611ac65760405162461bcd60e51b81526004016109c290612d58565b6001600160a01b038116611b2b5760405162461bcd60e51b815260206004820152602660248201527f4f776e61626c653a206e6577206f776e657220697320746865207a65726f206160448201526564647265737360d01b60648201526084016109c2565b610b81816122ff565b60006001600160e01b031982166380ac58cd60e01b1480611b6557506001600160e01b03198216635b5e139f60e01b145b806108b557506301ffc9a760e01b6001600160e01b03198316146108b5565b600081815260046020526040902080546001600160a01b0319166001600160a01b0384169081179091558190611bb982610f2b565b6001600160a01b03167f8c5be1e5ebec7d5bd14f71427d1e84f3dd0314c0f7b2291e5b200ac8c7c3b92560405160405180910390a45050565b600a54600160a01b900460ff1615611c405760405162461bcd60e51b815260206004820152601160248201527014185d5cd958589b194e881c185d5cd959607a1b60448201526064016109c2565b600a805460ff60a01b1916600160a01b1790557f62e78cea01bee320cd4e420270b5ea74000d11b0c9f74754ebdbfc544b05a258611c7b3390565b6040516001600160a01b03909116815260200160405180910390a1565b600a54600160a01b900460ff16611ce95760405162461bcd60e51b815260206004820152601560248201527414185d5cd958589b194e881b9bdd081c185d5cd959605a1b60448201526064016109c2565b600a805460ff60a01b191690557f5db9ee0a495bf2e6ff9c91a7834c1ba4fdd244a5e8aa4e537bd38aeae4b073aa33611c7b565b6000818152600260205260408120546001600160a01b0316611d965760405162461bcd60e51b815260206004820152602c60248201527f4552433732313a206f70657261746f7220717565727920666f72206e6f6e657860448201526b34b9ba32b73a103a37b5b2b760a11b60648201526084016109c2565b6000611da183610f2b565b9050806001600160a01b0316846001600160a01b03161480611ddc5750836001600160a01b0316611dd18461094d565b6001600160a01b0316145b80611e0c57506001600160a01b0380821660009081526005602090815260408083209388168352929052205460ff165b949350505050565b826001600160a01b0316611e2782610f2b565b6001600160a01b031614611e8f5760405162461bcd60e51b815260206004820152602960248201527f4552433732313a207472616e73666572206f6620746f6b656e2074686174206960448201526839903737ba1037bbb760b91b60648201526084016109c2565b6001600160a01b038216611ef15760405162461bcd60e51b8152602060048201526024808201527f4552433732313a207472616e7366657220746f20746865207a65726f206164646044820152637265737360e01b60648201526084016109c2565b611efc838383612351565b611f07600082611b84565b6001600160a01b0383166000908152600360205260408120805460019290611f30908490612f53565b90915550506001600160a01b0382166000908152600360205260408120805460019290611f5e908490612ee3565b909155505060008181526002602052604080822080546001600160a01b0319166001600160a01b0386811691821790925591518493918716917fddf252ad1be2c89b69c2b068fc378daa952ba7f163c4a11628f55a4df523b3ef91a4505050565b60145460408051633eca3c9560e11b815290516000926001600160a01b031691637d94792a916004808301926020929190829003018186803b15801561200457600080fd5b505afa158015612018573d6000803e3d6000fd5b505050506040513d601f19601f8201168201806040525081019061203c9190612c6c565b32612048600143612f53565b60405160609290921b6bffffffffffffffffffffffff191660208301524060348201524260548201526074810184905260940160408051601f1981840301815291905280516020909101201892915050565b6120a2612972565b6120ab82612409565b9050601060006120ba83612554565b815260200190815260200160002054600014156121fc576000838152600f602090815260408083208451815493860151928601516060870151608088015160a089015160c08a015160e08b0151610100808d015161ffff19909b1697151561ff0019169790971760ff998a169097029690961763ffff00001916620100009589169590950263ff0000001916949094176301000000938816939093029290921765ffff0000000019166401000000009187169190910265ff000000000019161765010000000000918616919091021767ffff0000000000001916600160301b9185169190910267ff00000000000000191617600160381b918416919091021768ff00000000000000001916600160401b929093169190910291909117905583906010906121e684612554565b81526020810191909152604001600020556108b5565b61220e8361220984611fbf565b61209a565b9392505050565b600d54600e5460009161ffff90911611158061223e575061223b600a60f584901c613008565b15155b1561224957336108b5565b601154604051634f36f72560e11b8152609084901c60048201526000916001600160a01b031690639e6dee4a9060240160206040518083038186803b15801561229157600080fd5b505afa1580156122a5573d6000803e3d6000fd5b505050506040513d601f19601f820116820180604052508101906122c991906129f0565b90506001600160a01b0381166108b557339392505050565b6122fb828260405180602001604052806000815250612601565b5050565b600a80546001600160a01b038381166001600160a01b0319831681179093556040519116919082907f8be0079c531659141344cd1fd0a4f28419497f9722a3daafe3b4186f6b6457e090600090a35050565b6001600160a01b0383166123ac576123a781600880546000838152600960205260408120829055600182018355919091527ff3f7a9fe364faab93b216da50a3214154f22a0a2b415b23a84c8169e8b636ee30155565b6123cf565b816001600160a01b0316836001600160a01b0316146123cf576123cf838261260b565b6001600160a01b0382166123e657610b44816126a8565b826001600160a01b0316826001600160a01b031614610b4457610b448282612757565b612411612972565b612420600a61ffff8416613008565b151580825260009061243357600a612436565b60005b60109390931c92905061245761ffff8416612452836000612efb565b61279b565b60ff16602083015260109290921c9161247961ffff8416612452836001612efb565b60ff16604083015260109290921c9161249b61ffff8416612452836002612efb565b60ff16608083015260109290921c916124bd61ffff8416612452836003612efb565b60ff16606083015260109290921c916124df61ffff8416612452836004612efb565b60ff1660e083015260109290921c9161250161ffff8416612452836005612efb565b60ff1660a0830152815160109390931c9261254e5761252961ffff8416612452836006612efb565b60ff1660c083015261254461ffff8416612452836007612efb565b60ff166101008301525b50919050565b80516020808301516040808501516080860151606087015160a088015160e089015160c08a0151610100909a0151865199151560f890811b8b8b01526001600160f81b031998811b891660218c015295861b881660228b015293851b871660238a015291841b86166024890152831b85166025880152821b8416602687015295811b831660278601529490941b166028830152825180830360090181526029909201909252805191012090565b610b448383612824565b60006001612618846116e9565b6126229190612f53565b600083815260076020526040902054909150808214612675576001600160a01b03841660009081526006602090815260408083208584528252808320548484528184208190558352600790915290208190555b5060009182526007602090815260408084208490556001600160a01b039094168352600681528383209183525290812055565b6008546000906126ba90600190612f53565b600083815260096020526040812054600880549394509092849081106126e2576126e261305e565b9060005260206000200154905080600883815481106127035761270361305e565b600091825260208083209091019290925582815260099091526040808220849055858252812055600880548061273b5761273b613048565b6001900381819060005260206000200160009055905550505050565b6000612762836116e9565b6001600160a01b039093166000908152600660209081526040808320868452825280832085905593825260079052919091209190915550565b6013546040516353584b4960e11b815261ffff8416600482015260ff831660248201526000916001600160a01b03169063a6b096929060440160206040518083038186803b1580156127ec57600080fd5b505afa158015612800573d6000803e3d6000fd5b505050506040513d601f19601f8201168201806040525081019061220e9190612ca8565b6001600160a01b03821661287a5760405162461bcd60e51b815260206004820181905260248201527f4552433732313a206d696e7420746f20746865207a65726f206164647265737360448201526064016109c2565b6000818152600260205260409020546001600160a01b0316156128df5760405162461bcd60e51b815260206004820152601c60248201527f4552433732313a20746f6b656e20616c7265616479206d696e7465640000000060448201526064016109c2565b6128eb60008383612351565b6001600160a01b0382166000908152600360205260408120805460019290612914908490612ee3565b909155505060008181526002602052604080822080546001600160a01b0319166001600160a01b03861690811790915590518392907fddf252ad1be2c89b69c2b068fc378daa952ba7f163c4a11628f55a4df523b3ef908290a45050565b6040805161012081018252600080825260208201819052918101829052606081018290526080810182905260a0810182905260c0810182905260e0810182905261010081019190915290565b803580151581146129ce57600080fd5b919050565b6000602082840312156129e557600080fd5b813561220e8161308a565b600060208284031215612a0257600080fd5b815161220e8161308a565b60008060408385031215612a2057600080fd5b8235612a2b8161308a565b91506020830135612a3b8161308a565b809150509250929050565b600080600060608486031215612a5b57600080fd5b8335612a668161308a565b92506020840135612a768161308a565b929592945050506040919091013590565b60008060008060808587031215612a9d57600080fd5b8435612aa88161308a565b93506020850135612ab88161308a565b925060408501359150606085013567ffffffffffffffff811115612adb57600080fd5b8501601f81018713612aec57600080fd5b8035612aff612afa82612ebb565b612e8a565b818152886020838501011115612b1457600080fd5b8160208401602083013760006020838301015280935050505092959194509250565b60008060408385031215612b4957600080fd5b8235612b548161308a565b9150612b62602084016129be565b90509250929050565b60008060408385031215612b7e57600080fd5b8235612b898161308a565b946020939093013593505050565b600060208284031215612ba957600080fd5b61220e826129be565b600060208284031215612bc457600080fd5b81356001600160e01b03198116811461220e57600080fd5b600060208284031215612bee57600080fd5b815167ffffffffffffffff811115612c0557600080fd5b8201601f81018413612c1657600080fd5b8051612c24612afa82612ebb565b818152856020838501011115612c3957600080fd5b612c4a826020830160208601612f6a565b95945050505050565b600060208284031215612c6557600080fd5b5035919050565b600060208284031215612c7e57600080fd5b5051919050565b60008060408385031215612c9857600080fd5b82359150612b62602084016129be565b600060208284031215612cba57600080fd5b815160ff8116811461220e57600080fd5b6001600160a01b038316815260406020808301829052835191830182905260009184820191906060850190845b81811015612d1857845161ffff1683529383019391830191600101612cf8565b5090979650505050505050565b6020815260008251806020840152612d44816040850160208701612f6a565b601f01601f19169190910160400192915050565b6020808252818101527f4f776e61626c653a2063616c6c6572206973206e6f7420746865206f776e6572604082015260600190565b60208082526031908201527f4552433732313a207472616e736665722063616c6c6572206973206e6f74206f6040820152701ddb995c881b9bdc88185c1c1c9bdd9959607a1b606082015260800190565b60006101208201905082511515825260ff60208401511660208301526040830151612e0e604084018260ff169052565b506060830151612e23606084018260ff169052565b506080830151612e38608084018260ff169052565b5060a0830151612e4d60a084018260ff169052565b5060c0830151612e6260c084018260ff169052565b5060e0830151612e7760e084018260ff169052565b506101009283015160ff16919092015290565b604051601f8201601f1916810167ffffffffffffffff81118282101715612eb357612eb3613074565b604052919050565b600067ffffffffffffffff821115612ed557612ed5613074565b50601f01601f191660200190565b60008219821115612ef657612ef661301c565b500190565b600060ff821660ff84168060ff03821115612f1857612f1861301c565b019392505050565b600082612f2f57612f2f613032565b500490565b6000816000190483118215151615612f4e57612f4e61301c565b500290565b600082821015612f6557612f6561301c565b500390565b60005b83811015612f85578181015183820152602001612f6d565b8381111561194b5750506000910152565b600181811c90821680612faa57607f821691505b6020821081141561254e57634e487b7160e01b600052602260045260246000fd5b600061ffff80831681811415612fe357612fe361301c565b6001019392505050565b60006000198214156130015761300161301c565b5060010190565b60008261301757613017613032565b500690565b634e487b7160e01b600052601160045260246000fd5b634e487b7160e01b600052601260045260246000fd5b634e487b7160e01b600052603160045260246000fd5b634e487b7160e01b600052603260045260246000fd5b634e487b7160e01b600052604160045260246000fd5b6001600160a01b0381168114610b8157600080fdfea2646970667358221220c9b97d40545b574d716f9b077d4fa8e525526c6a8a3f7bdce1667bdfeb1672b064736f6c63430008070033",
			"opcodes": "PUSH1 0xA0 PUSH1 0x40 MSTORE PUSH8 0x17979CFE362A0000 PUSH1 0xB SSTORE PUSH1 0x1E PUSH1 0xC SSTORE PUSH1 0x14 DUP1 SLOAD PUSH2 0xFFFF PUSH1 0xA0 SHL NOT AND PUSH1 0x1 PUSH1 0xA8 SHL OR SWAP1 SSTORE CALLVALUE DUP1 ISZERO PUSH3 0x36 JUMPI PUSH1 0x0 DUP1 REVERT JUMPDEST POP PUSH1 0x40 MLOAD PUSH3 0x3401 CODESIZE SUB DUP1 PUSH3 0x3401 DUP4 CODECOPY DUP2 ADD PUSH1 0x40 DUP2 SWAP1 MSTORE PUSH3 0x59 SWAP2 PUSH3 0x23A JUMP JUMPDEST PUSH1 0x40 DUP1 MLOAD DUP1 DUP3 ADD DUP3 MSTORE PUSH1 0xB DUP2 MSTORE PUSH11 0x506F6C6963652047616D65 PUSH1 0xA8 SHL PUSH1 0x20 DUP1 DUP4 ADD SWAP2 DUP3 MSTORE DUP4 MLOAD DUP1 DUP6 ADD SWAP1 SWAP5 MSTORE PUSH1 0x5 DUP5 MSTORE PUSH5 0x5747414D45 PUSH1 0xD8 SHL SWAP1 DUP5 ADD MSTORE DUP2 MLOAD SWAP2 SWAP3 SWAP2 PUSH3 0xA9 SWAP2 PUSH1 0x0 SWAP2 PUSH3 0x194 JUMP JUMPDEST POP DUP1 MLOAD PUSH3 0xBF SWAP1 PUSH1 0x1 SWAP1 PUSH1 0x20 DUP5 ADD SWAP1 PUSH3 0x194 JUMP JUMPDEST POP POP POP PUSH3 0xDC PUSH3 0xD6 PUSH3 0x13E PUSH1 0x20 SHL PUSH1 0x20 SHR JUMP JUMPDEST PUSH3 0x142 JUMP JUMPDEST PUSH1 0xA DUP1 SLOAD PUSH1 0xFF PUSH1 0xA0 SHL NOT AND PUSH1 0x1 PUSH1 0xA0 SHL OR SWAP1 SSTORE PUSH1 0x12 DUP1 SLOAD PUSH1 0x1 PUSH1 0x1 PUSH1 0xA0 SHL SUB DUP1 DUP7 AND PUSH1 0x1 PUSH1 0x1 PUSH1 0xA0 SHL SUB NOT SWAP3 DUP4 AND OR SWAP1 SWAP3 SSTORE PUSH1 0x13 DUP1 SLOAD SWAP3 DUP6 AND SWAP3 SWAP1 SWAP2 AND SWAP2 SWAP1 SWAP2 OR SWAP1 SSTORE PUSH1 0x80 DUP2 SWAP1 MSTORE PUSH3 0x131 PUSH1 0x5 DUP3 PUSH3 0x282 JUMP JUMPDEST PUSH1 0xD SSTORE POP PUSH3 0x2FB SWAP2 POP POP JUMP JUMPDEST CALLER SWAP1 JUMP JUMPDEST PUSH1 0xA DUP1 SLOAD PUSH1 0x1 PUSH1 0x1 PUSH1 0xA0 SHL SUB DUP4 DUP2 AND PUSH1 0x1 PUSH1 0x1 PUSH1 0xA0 SHL SUB NOT DUP4 AND DUP2 OR SWAP1 SWAP4 SSTORE PUSH1 0x40 MLOAD SWAP2 AND SWAP2 SWAP1 DUP3 SWAP1 PUSH32 0x8BE0079C531659141344CD1FD0A4F28419497F9722A3DAAFE3B4186F6B6457E0 SWAP1 PUSH1 0x0 SWAP1 LOG3 POP POP JUMP JUMPDEST DUP3 DUP1 SLOAD PUSH3 0x1A2 SWAP1 PUSH3 0x2A5 JUMP JUMPDEST SWAP1 PUSH1 0x0 MSTORE PUSH1 0x20 PUSH1 0x0 KECCAK256 SWAP1 PUSH1 0x1F ADD PUSH1 0x20 SWAP1 DIV DUP2 ADD SWAP3 DUP3 PUSH3 0x1C6 JUMPI PUSH1 0x0 DUP6 SSTORE PUSH3 0x211 JUMP JUMPDEST DUP3 PUSH1 0x1F LT PUSH3 0x1E1 JUMPI DUP1 MLOAD PUSH1 0xFF NOT AND DUP4 DUP1 ADD OR DUP6 SSTORE PUSH3 0x211 JUMP JUMPDEST DUP3 DUP1 ADD PUSH1 0x1 ADD DUP6 SSTORE DUP3 ISZERO PUSH3 0x211 JUMPI SWAP2 DUP3 ADD JUMPDEST DUP3 DUP2 GT ISZERO PUSH3 0x211 JUMPI DUP3 MLOAD DUP3 SSTORE SWAP2 PUSH1 0x20 ADD SWAP2 SWAP1 PUSH1 0x1 ADD SWAP1 PUSH3 0x1F4 JUMP JUMPDEST POP PUSH3 0x21F SWAP3 SWAP2 POP PUSH3 0x223 JUMP JUMPDEST POP SWAP1 JUMP JUMPDEST JUMPDEST DUP1 DUP3 GT ISZERO PUSH3 0x21F JUMPI PUSH1 0x0 DUP2 SSTORE PUSH1 0x1 ADD PUSH3 0x224 JUMP JUMPDEST PUSH1 0x0 DUP1 PUSH1 0x0 PUSH1 0x60 DUP5 DUP7 SUB SLT ISZERO PUSH3 0x250 JUMPI PUSH1 0x0 DUP1 REVERT JUMPDEST DUP4 MLOAD PUSH3 0x25D DUP2 PUSH3 0x2E2 JUMP JUMPDEST PUSH1 0x20 DUP6 ADD MLOAD SWAP1 SWAP4 POP PUSH3 0x270 DUP2 PUSH3 0x2E2 JUMP JUMPDEST DUP1 SWAP3 POP POP PUSH1 0x40 DUP5 ADD MLOAD SWAP1 POP SWAP3 POP SWAP3 POP SWAP3 JUMP JUMPDEST PUSH1 0x0 DUP3 PUSH3 0x2A0 JUMPI PUSH4 0x4E487B71 PUSH1 0xE0 SHL PUSH1 0x0 MSTORE PUSH1 0x12 PUSH1 0x4 MSTORE PUSH1 0x24 PUSH1 0x0 REVERT JUMPDEST POP DIV SWAP1 JUMP JUMPDEST PUSH1 0x1 DUP2 DUP2 SHR SWAP1 DUP3 AND DUP1 PUSH3 0x2BA JUMPI PUSH1 0x7F DUP3 AND SWAP2 POP JUMPDEST PUSH1 0x20 DUP3 LT DUP2 EQ ISZERO PUSH3 0x2DC JUMPI PUSH4 0x4E487B71 PUSH1 0xE0 SHL PUSH1 0x0 MSTORE PUSH1 0x22 PUSH1 0x4 MSTORE PUSH1 0x24 PUSH1 0x0 REVERT JUMPDEST POP SWAP2 SWAP1 POP JUMP JUMPDEST PUSH1 0x1 PUSH1 0x1 PUSH1 0xA0 SHL SUB DUP2 AND DUP2 EQ PUSH3 0x2F8 JUMPI PUSH1 0x0 DUP1 REVERT JUMPDEST POP JUMP JUMPDEST PUSH1 0x80 MLOAD PUSH2 0x30D5 PUSH3 0x32C PUSH1 0x0 CODECOPY PUSH1 0x0 DUP2 DUP2 PUSH2 0x86E ADD MSTORE DUP2 DUP2 PUSH2 0xC67 ADD MSTORE DUP2 DUP2 PUSH2 0xCB5 ADD MSTORE PUSH2 0x10ED ADD MSTORE PUSH2 0x30D5 PUSH1 0x0 RETURN INVALID PUSH1 0x80 PUSH1 0x40 MSTORE PUSH1 0x4 CALLDATASIZE LT PUSH2 0x251 JUMPI PUSH1 0x0 CALLDATALOAD PUSH1 0xE0 SHR DUP1 PUSH4 0x6F4F7366 GT PUSH2 0x139 JUMPI DUP1 PUSH4 0xB88D4FDE GT PUSH2 0xB6 JUMPI DUP1 PUSH4 0xE05C57BF GT PUSH2 0x7A JUMPI DUP1 PUSH4 0xE05C57BF EQ PUSH2 0x6E9 JUMPI DUP1 PUSH4 0xE1FC334F EQ PUSH2 0x7BD JUMPI DUP1 PUSH4 0xE985E9C5 EQ PUSH2 0x7DD JUMPI DUP1 PUSH4 0xF0292A03 EQ PUSH2 0x826 JUMPI DUP1 PUSH4 0xF2FDE38B EQ PUSH2 0x83C JUMPI DUP1 PUSH4 0xF47C84C5 EQ PUSH2 0x85C JUMPI PUSH1 0x0 DUP1 REVERT JUMPDEST DUP1 PUSH4 0xB88D4FDE EQ PUSH2 0x65D JUMPI DUP1 PUSH4 0xC002D23D EQ PUSH2 0x67D JUMPI DUP1 PUSH4 0xC084F540 EQ PUSH2 0x693 JUMPI DUP1 PUSH4 0xC87B56DD EQ PUSH2 0x6A9 JUMPI DUP1 PUSH4 0xD773826D EQ PUSH2 0x6C9 JUMPI PUSH1 0x0 DUP1 REVERT JUMPDEST DUP1 PUSH4 0x95D89B41 GT PUSH2 0xFD JUMPI DUP1 PUSH4 0x95D89B41 EQ PUSH2 0x5BB JUMPI DUP1 PUSH4 0x9B7B2AB0 EQ PUSH2 0x5D0 JUMPI DUP1 PUSH4 0xA1B8F374 EQ PUSH2 0x5F0 JUMPI DUP1 PUSH4 0xA22CB465 EQ PUSH2 0x61D JUMPI DUP1 PUSH4 0xA2B40D19 EQ PUSH2 0x63D JUMPI PUSH1 0x0 DUP1 REVERT JUMPDEST DUP1 PUSH4 0x6F4F7366 EQ PUSH2 0x510 JUMPI DUP1 PUSH4 0x70A08231 EQ PUSH2 0x530 JUMPI DUP1 PUSH4 0x76CDB03B EQ PUSH2 0x550 JUMPI DUP1 PUSH4 0x8DA5CB5B EQ PUSH2 0x570 JUMPI DUP1 PUSH4 0x94E56847 EQ PUSH2 0x58E JUMPI PUSH1 0x0 DUP1 REVERT JUMPDEST DUP1 PUSH4 0x281105E3 GT PUSH2 0x1D2 JUMPI DUP1 PUSH4 0x42842E0E GT PUSH2 0x196 JUMPI DUP1 PUSH4 0x42842E0E EQ PUSH2 0x450 JUMPI DUP1 PUSH4 0x4F02C420 EQ PUSH2 0x470 JUMPI DUP1 PUSH4 0x4F6CCCE7 EQ PUSH2 0x49E JUMPI DUP1 PUSH4 0x5C975ABB EQ PUSH2 0x4BE JUMPI DUP1 PUSH4 0x6352211E EQ PUSH2 0x4DD JUMPI DUP1 PUSH4 0x67F68FAC EQ PUSH2 0x4FD JUMPI PUSH1 0x0 DUP1 REVERT JUMPDEST DUP1 PUSH4 0x281105E3 EQ PUSH2 0x3C6 JUMPI DUP1 PUSH4 0x2F745C59 EQ PUSH2 0x3E6 JUMPI DUP1 PUSH4 0x3431A753 EQ PUSH2 0x406 JUMPI DUP1 PUSH4 0x3CCFD60B EQ PUSH2 0x426 JUMPI DUP1 PUSH4 0x4018B1F8 EQ PUSH2 0x43B JUMPI PUSH1 0x0 DUP1 REVERT JUMPDEST DUP1 PUSH4 0xC89B766 GT PUSH2 0x219 JUMPI DUP1 PUSH4 0xC89B766 EQ PUSH2 0x327 JUMPI DUP1 PUSH4 0x16C38B3C EQ PUSH2 0x347 JUMPI DUP1 PUSH4 0x18160DDD EQ PUSH2 0x367 JUMPI DUP1 PUSH4 0x23B872DD EQ PUSH2 0x386 JUMPI DUP1 PUSH4 0x27DE8F27 EQ PUSH2 0x3A6 JUMPI PUSH1 0x0 DUP1 REVERT JUMPDEST DUP1 PUSH4 0x1FFC9A7 EQ PUSH2 0x256 JUMPI DUP1 PUSH4 0x6FDDE03 EQ PUSH2 0x28B JUMPI DUP1 PUSH4 0x81812FC EQ PUSH2 0x2AD JUMPI DUP1 PUSH4 0x90D23B9 EQ PUSH2 0x2E5 JUMPI DUP1 PUSH4 0x95EA7B3 EQ PUSH2 0x307 JUMPI JUMPDEST PUSH1 0x0 DUP1 REVERT JUMPDEST CALLVALUE DUP1 ISZERO PUSH2 0x262 JUMPI PUSH1 0x0 DUP1 REVERT JUMPDEST POP PUSH2 0x276 PUSH2 0x271 CALLDATASIZE PUSH1 0x4 PUSH2 0x2BB2 JUMP JUMPDEST PUSH2 0x890 JUMP JUMPDEST PUSH1 0x40 MLOAD SWAP1 ISZERO ISZERO DUP2 MSTORE PUSH1 0x20 ADD JUMPDEST PUSH1 0x40 MLOAD DUP1 SWAP2 SUB SWAP1 RETURN JUMPDEST CALLVALUE DUP1 ISZERO PUSH2 0x297 JUMPI PUSH1 0x0 DUP1 REVERT JUMPDEST POP PUSH2 0x2A0 PUSH2 0x8BB JUMP JUMPDEST PUSH1 0x40 MLOAD PUSH2 0x282 SWAP2 SWAP1 PUSH2 0x2D25 JUMP JUMPDEST CALLVALUE DUP1 ISZERO PUSH2 0x2B9 JUMPI PUSH1 0x0 DUP1 REVERT JUMPDEST POP PUSH2 0x2CD PUSH2 0x2C8 CALLDATASIZE PUSH1 0x4 PUSH2 0x2C53 JUMP JUMPDEST PUSH2 0x94D JUMP JUMPDEST PUSH1 0x40 MLOAD PUSH1 0x1 PUSH1 0x1 PUSH1 0xA0 SHL SUB SWAP1 SWAP2 AND DUP2 MSTORE PUSH1 0x20 ADD PUSH2 0x282 JUMP JUMPDEST CALLVALUE DUP1 ISZERO PUSH2 0x2F1 JUMPI PUSH1 0x0 DUP1 REVERT JUMPDEST POP PUSH2 0x305 PUSH2 0x300 CALLDATASIZE PUSH1 0x4 PUSH2 0x29D3 JUMP JUMPDEST PUSH2 0x9E7 JUMP JUMPDEST STOP JUMPDEST CALLVALUE DUP1 ISZERO PUSH2 0x313 JUMPI PUSH1 0x0 DUP1 REVERT JUMPDEST POP PUSH2 0x305 PUSH2 0x322 CALLDATASIZE PUSH1 0x4 PUSH2 0x2B6B JUMP JUMPDEST PUSH2 0xA33 JUMP JUMPDEST CALLVALUE DUP1 ISZERO PUSH2 0x333 JUMPI PUSH1 0x0 DUP1 REVERT JUMPDEST POP PUSH1 0x14 SLOAD PUSH2 0x2CD SWAP1 PUSH1 0x1 PUSH1 0x1 PUSH1 0xA0 SHL SUB AND DUP2 JUMP JUMPDEST CALLVALUE DUP1 ISZERO PUSH2 0x353 JUMPI PUSH1 0x0 DUP1 REVERT JUMPDEST POP PUSH2 0x305 PUSH2 0x362 CALLDATASIZE PUSH1 0x4 PUSH2 0x2B97 JUMP JUMPDEST PUSH2 0xB49 JUMP JUMPDEST CALLVALUE DUP1 ISZERO PUSH2 0x373 JUMPI PUSH1 0x0 DUP1 REVERT JUMPDEST POP PUSH1 0x8 SLOAD JUMPDEST PUSH1 0x40 MLOAD SWAP1 DUP2 MSTORE PUSH1 0x20 ADD PUSH2 0x282 JUMP JUMPDEST CALLVALUE DUP1 ISZERO PUSH2 0x392 JUMPI PUSH1 0x0 DUP1 REVERT JUMPDEST POP PUSH2 0x305 PUSH2 0x3A1 CALLDATASIZE PUSH1 0x4 PUSH2 0x2A46 JUMP JUMPDEST PUSH2 0xB8C JUMP JUMPDEST CALLVALUE DUP1 ISZERO PUSH2 0x3B2 JUMPI PUSH1 0x0 DUP1 REVERT JUMPDEST POP PUSH2 0x378 PUSH2 0x3C1 CALLDATASIZE PUSH1 0x4 PUSH2 0x2C53 JUMP JUMPDEST PUSH2 0xC4D JUMP JUMPDEST CALLVALUE DUP1 ISZERO PUSH2 0x3D2 JUMPI PUSH1 0x0 DUP1 REVERT JUMPDEST POP PUSH2 0x305 PUSH2 0x3E1 CALLDATASIZE PUSH1 0x4 PUSH2 0x2B97 JUMP JUMPDEST PUSH2 0xD0D JUMP JUMPDEST CALLVALUE DUP1 ISZERO PUSH2 0x3F2 JUMPI PUSH1 0x0 DUP1 REVERT JUMPDEST POP PUSH2 0x378 PUSH2 0x401 CALLDATASIZE PUSH1 0x4 PUSH2 0x2B6B JUMP JUMPDEST PUSH2 0xD55 JUMP JUMPDEST CALLVALUE DUP1 ISZERO PUSH2 0x412 JUMPI PUSH1 0x0 DUP1 REVERT JUMPDEST POP PUSH2 0x305 PUSH2 0x421 CALLDATASIZE PUSH1 0x4 PUSH2 0x2C53 JUMP JUMPDEST PUSH2 0xDEB JUMP JUMPDEST CALLVALUE DUP1 ISZERO PUSH2 0x432 JUMPI PUSH1 0x0 DUP1 REVERT JUMPDEST POP PUSH2 0x305 PUSH2 0xE1A JUMP JUMPDEST CALLVALUE DUP1 ISZERO PUSH2 0x447 JUMPI PUSH1 0x0 DUP1 REVERT JUMPDEST POP PUSH1 0xD SLOAD PUSH2 0x378 JUMP JUMPDEST CALLVALUE DUP1 ISZERO PUSH2 0x45C JUMPI PUSH1 0x0 DUP1 REVERT JUMPDEST POP PUSH2 0x305 PUSH2 0x46B CALLDATASIZE PUSH1 0x4 PUSH2 0x2A46 JUMP JUMPDEST PUSH2 0xE7D JUMP JUMPDEST CALLVALUE DUP1 ISZERO PUSH2 0x47C JUMPI PUSH1 0x0 DUP1 REVERT JUMPDEST POP PUSH1 0xE SLOAD PUSH2 0x48B SWAP1 PUSH2 0xFFFF AND DUP2 JUMP JUMPDEST PUSH1 0x40 MLOAD PUSH2 0xFFFF SWAP1 SWAP2 AND DUP2 MSTORE PUSH1 0x20 ADD PUSH2 0x282 JUMP JUMPDEST CALLVALUE DUP1 ISZERO PUSH2 0x4AA JUMPI PUSH1 0x0 DUP1 REVERT JUMPDEST POP PUSH2 0x378 PUSH2 0x4B9 CALLDATASIZE PUSH1 0x4 PUSH2 0x2C53 JUMP JUMPDEST PUSH2 0xE98 JUMP JUMPDEST CALLVALUE DUP1 ISZERO PUSH2 0x4CA JUMPI PUSH1 0x0 DUP1 REVERT JUMPDEST POP PUSH1 0xA SLOAD PUSH1 0x1 PUSH1 0xA0 SHL SWAP1 DIV PUSH1 0xFF AND PUSH2 0x276 JUMP JUMPDEST CALLVALUE DUP1 ISZERO PUSH2 0x4E9 JUMPI PUSH1 0x0 DUP1 REVERT JUMPDEST POP PUSH2 0x2CD PUSH2 0x4F8 CALLDATASIZE PUSH1 0x4 PUSH2 0x2C53 JUMP JUMPDEST PUSH2 0xF2B JUMP JUMPDEST PUSH2 0x305 PUSH2 0x50B CALLDATASIZE PUSH1 0x4 PUSH2 0x2C85 JUMP JUMPDEST PUSH2 0xFA2 JUMP JUMPDEST CALLVALUE DUP1 ISZERO PUSH2 0x51C JUMPI PUSH1 0x0 DUP1 REVERT JUMPDEST POP PUSH2 0x305 PUSH2 0x52B CALLDATASIZE PUSH1 0x4 PUSH2 0x29D3 JUMP JUMPDEST PUSH2 0x169D JUMP JUMPDEST CALLVALUE DUP1 ISZERO PUSH2 0x53C JUMPI PUSH1 0x0 DUP1 REVERT JUMPDEST POP PUSH2 0x378 PUSH2 0x54B CALLDATASIZE PUSH1 0x4 PUSH2 0x29D3 JUMP JUMPDEST PUSH2 0x16E9 JUMP JUMPDEST CALLVALUE DUP1 ISZERO PUSH2 0x55C JUMPI PUSH1 0x0 DUP1 REVERT JUMPDEST POP PUSH1 0x11 SLOAD PUSH2 0x2CD SWAP1 PUSH1 0x1 PUSH1 0x1 PUSH1 0xA0 SHL SUB AND DUP2 JUMP JUMPDEST CALLVALUE DUP1 ISZERO PUSH2 0x57C JUMPI PUSH1 0x0 DUP1 REVERT JUMPDEST POP PUSH1 0xA SLOAD PUSH1 0x1 PUSH1 0x1 PUSH1 0xA0 SHL SUB AND PUSH2 0x2CD JUMP JUMPDEST CALLVALUE DUP1 ISZERO PUSH2 0x59A JUMPI PUSH1 0x0 DUP1 REVERT JUMPDEST POP PUSH2 0x5AE PUSH2 0x5A9 CALLDATASIZE PUSH1 0x4 PUSH2 0x2C53 JUMP JUMPDEST PUSH2 0x1770 JUMP JUMPDEST PUSH1 0x40 MLOAD PUSH2 0x282 SWAP2 SWAP1 PUSH2 0x2DDE JUMP JUMPDEST CALLVALUE DUP1 ISZERO PUSH2 0x5C7 JUMPI PUSH1 0x0 DUP1 REVERT JUMPDEST POP PUSH2 0x2A0 PUSH2 0x1817 JUMP JUMPDEST CALLVALUE DUP1 ISZERO PUSH2 0x5DC JUMPI PUSH1 0x0 DUP1 REVERT JUMPDEST POP PUSH1 0x12 SLOAD PUSH2 0x2CD SWAP1 PUSH1 0x1 PUSH1 0x1 PUSH1 0xA0 SHL SUB AND DUP2 JUMP JUMPDEST CALLVALUE DUP1 ISZERO PUSH2 0x5FC JUMPI PUSH1 0x0 DUP1 REVERT JUMPDEST POP PUSH2 0x378 PUSH2 0x60B CALLDATASIZE PUSH1 0x4 PUSH2 0x2C53 JUMP JUMPDEST PUSH1 0x10 PUSH1 0x20 MSTORE PUSH1 0x0 SWAP1 DUP2 MSTORE PUSH1 0x40 SWAP1 KECCAK256 SLOAD DUP2 JUMP JUMPDEST CALLVALUE DUP1 ISZERO PUSH2 0x629 JUMPI PUSH1 0x0 DUP1 REVERT JUMPDEST POP PUSH2 0x305 PUSH2 0x638 CALLDATASIZE PUSH1 0x4 PUSH2 0x2B36 JUMP JUMPDEST PUSH2 0x1826 JUMP JUMPDEST CALLVALUE DUP1 ISZERO PUSH2 0x649 JUMPI PUSH1 0x0 DUP1 REVERT JUMPDEST POP PUSH2 0x305 PUSH2 0x658 CALLDATASIZE PUSH1 0x4 PUSH2 0x2C53 JUMP JUMPDEST PUSH2 0x18EB JUMP JUMPDEST CALLVALUE DUP1 ISZERO PUSH2 0x669 JUMPI PUSH1 0x0 DUP1 REVERT JUMPDEST POP PUSH2 0x305 PUSH2 0x678 CALLDATASIZE PUSH1 0x4 PUSH2 0x2A87 JUMP JUMPDEST PUSH2 0x191A JUMP JUMPDEST CALLVALUE DUP1 ISZERO PUSH2 0x689 JUMPI PUSH1 0x0 DUP1 REVERT JUMPDEST POP PUSH2 0x378 PUSH1 0xB SLOAD DUP2 JUMP JUMPDEST CALLVALUE DUP1 ISZERO PUSH2 0x69F JUMPI PUSH1 0x0 DUP1 REVERT JUMPDEST POP PUSH2 0x378 PUSH1 0xD SLOAD DUP2 JUMP JUMPDEST CALLVALUE DUP1 ISZERO PUSH2 0x6B5 JUMPI PUSH1 0x0 DUP1 REVERT JUMPDEST POP PUSH2 0x2A0 PUSH2 0x6C4 CALLDATASIZE PUSH1 0x4 PUSH2 0x2C53 JUMP JUMPDEST PUSH2 0x1951 JUMP JUMPDEST CALLVALUE DUP1 ISZERO PUSH2 0x6D5 JUMPI PUSH1 0x0 DUP1 REVERT JUMPDEST POP PUSH2 0x305 PUSH2 0x6E4 CALLDATASIZE PUSH1 0x4 PUSH2 0x29D3 JUMP JUMPDEST PUSH2 0x1A50 JUMP JUMPDEST CALLVALUE DUP1 ISZERO PUSH2 0x6F5 JUMPI PUSH1 0x0 DUP1 REVERT JUMPDEST POP PUSH2 0x76B PUSH2 0x704 CALLDATASIZE PUSH1 0x4 PUSH2 0x2C53 JUMP JUMPDEST PUSH1 0xF PUSH1 0x20 MSTORE PUSH1 0x0 SWAP1 DUP2 MSTORE PUSH1 0x40 SWAP1 KECCAK256 SLOAD PUSH1 0xFF DUP1 DUP3 AND SWAP2 PUSH2 0x100 DUP2 DIV DUP3 AND SWAP2 PUSH3 0x10000 DUP3 DIV DUP2 AND SWAP2 PUSH4 0x1000000 DUP2 DIV DUP3 AND SWAP2 PUSH5 0x100000000 DUP3 DIV DUP2 AND SWAP2 PUSH6 0x10000000000 DUP2 DIV DUP3 AND SWAP2 PUSH1 0x1 PUSH1 0x30 SHL DUP3 DIV DUP2 AND SWAP2 PUSH1 0x1 PUSH1 0x38 SHL DUP2 DIV DUP3 AND SWAP2 PUSH1 0x1 PUSH1 0x40 SHL SWAP1 SWAP2 DIV AND DUP10 JUMP JUMPDEST PUSH1 0x40 DUP1 MLOAD SWAP10 ISZERO ISZERO DUP11 MSTORE PUSH1 0xFF SWAP9 DUP10 AND PUSH1 0x20 DUP12 ADD MSTORE SWAP7 DUP9 AND SWAP7 DUP10 ADD SWAP7 SWAP1 SWAP7 MSTORE SWAP4 DUP7 AND PUSH1 0x60 DUP9 ADD MSTORE SWAP2 DUP6 AND PUSH1 0x80 DUP8 ADD MSTORE DUP5 AND PUSH1 0xA0 DUP7 ADD MSTORE DUP4 AND PUSH1 0xC0 DUP6 ADD MSTORE DUP3 AND PUSH1 0xE0 DUP5 ADD MSTORE AND PUSH2 0x100 DUP3 ADD MSTORE PUSH2 0x120 ADD PUSH2 0x282 JUMP JUMPDEST CALLVALUE DUP1 ISZERO PUSH2 0x7C9 JUMPI PUSH1 0x0 DUP1 REVERT JUMPDEST POP PUSH1 0x13 SLOAD PUSH2 0x2CD SWAP1 PUSH1 0x1 PUSH1 0x1 PUSH1 0xA0 SHL SUB AND DUP2 JUMP JUMPDEST CALLVALUE DUP1 ISZERO PUSH2 0x7E9 JUMPI PUSH1 0x0 DUP1 REVERT JUMPDEST POP PUSH2 0x276 PUSH2 0x7F8 CALLDATASIZE PUSH1 0x4 PUSH2 0x2A0D JUMP JUMPDEST PUSH1 0x1 PUSH1 0x1 PUSH1 0xA0 SHL SUB SWAP2 DUP3 AND PUSH1 0x0 SWAP1 DUP2 MSTORE PUSH1 0x5 PUSH1 0x20 SWAP1 DUP2 MSTORE PUSH1 0x40 DUP1 DUP4 KECCAK256 SWAP4 SWAP1 SWAP5 AND DUP3 MSTORE SWAP2 SWAP1 SWAP2 MSTORE KECCAK256 SLOAD PUSH1 0xFF AND SWAP1 JUMP JUMPDEST CALLVALUE DUP1 ISZERO PUSH2 0x832 JUMPI PUSH1 0x0 DUP1 REVERT JUMPDEST POP PUSH2 0x378 PUSH1 0xC SLOAD DUP2 JUMP JUMPDEST CALLVALUE DUP1 ISZERO PUSH2 0x848 JUMPI PUSH1 0x0 DUP1 REVERT JUMPDEST POP PUSH2 0x305 PUSH2 0x857 CALLDATASIZE PUSH1 0x4 PUSH2 0x29D3 JUMP JUMPDEST PUSH2 0x1A9C JUMP JUMPDEST CALLVALUE DUP1 ISZERO PUSH2 0x868 JUMPI PUSH1 0x0 DUP1 REVERT JUMPDEST POP PUSH2 0x378 PUSH32 0x0 DUP2 JUMP JUMPDEST PUSH1 0x0 PUSH1 0x1 PUSH1 0x1 PUSH1 0xE0 SHL SUB NOT DUP3 AND PUSH4 0x780E9D63 PUSH1 0xE0 SHL EQ DUP1 PUSH2 0x8B5 JUMPI POP PUSH2 0x8B5 DUP3 PUSH2 0x1B34 JUMP JUMPDEST SWAP3 SWAP2 POP POP JUMP JUMPDEST PUSH1 0x60 PUSH1 0x0 DUP1 SLOAD PUSH2 0x8CA SWAP1 PUSH2 0x2F96 JUMP JUMPDEST DUP1 PUSH1 0x1F ADD PUSH1 0x20 DUP1 SWAP2 DIV MUL PUSH1 0x20 ADD PUSH1 0x40 MLOAD SWAP1 DUP2 ADD PUSH1 0x40 MSTORE DUP1 SWAP3 SWAP2 SWAP1 DUP2 DUP2 MSTORE PUSH1 0x20 ADD DUP3 DUP1 SLOAD PUSH2 0x8F6 SWAP1 PUSH2 0x2F96 JUMP JUMPDEST DUP1 ISZERO PUSH2 0x943 JUMPI DUP1 PUSH1 0x1F LT PUSH2 0x918 JUMPI PUSH2 0x100 DUP1 DUP4 SLOAD DIV MUL DUP4 MSTORE SWAP2 PUSH1 0x20 ADD SWAP2 PUSH2 0x943 JUMP JUMPDEST DUP3 ADD SWAP2 SWAP1 PUSH1 0x0 MSTORE PUSH1 0x20 PUSH1 0x0 KECCAK256 SWAP1 JUMPDEST DUP2 SLOAD DUP2 MSTORE SWAP1 PUSH1 0x1 ADD SWAP1 PUSH1 0x20 ADD DUP1 DUP4 GT PUSH2 0x926 JUMPI DUP3 SWAP1 SUB PUSH1 0x1F AND DUP3 ADD SWAP2 JUMPDEST POP POP POP POP POP SWAP1 POP SWAP1 JUMP JUMPDEST PUSH1 0x0 DUP2 DUP2 MSTORE PUSH1 0x2 PUSH1 0x20 MSTORE PUSH1 0x40 DUP2 KECCAK256 SLOAD PUSH1 0x1 PUSH1 0x1 PUSH1 0xA0 SHL SUB AND PUSH2 0x9CB JUMPI PUSH1 0x40 MLOAD PUSH3 0x461BCD PUSH1 0xE5 SHL DUP2 MSTORE PUSH1 0x20 PUSH1 0x4 DUP3 ADD MSTORE PUSH1 0x2C PUSH1 0x24 DUP3 ADD MSTORE PUSH32 0x4552433732313A20617070726F76656420717565727920666F72206E6F6E6578 PUSH1 0x44 DUP3 ADD MSTORE PUSH12 0x34B9BA32B73A103A37B5B2B7 PUSH1 0xA1 SHL PUSH1 0x64 DUP3 ADD MSTORE PUSH1 0x84 ADD JUMPDEST PUSH1 0x40 MLOAD DUP1 SWAP2 SUB SWAP1 REVERT JUMPDEST POP PUSH1 0x0 SWAP1 DUP2 MSTORE PUSH1 0x4 PUSH1 0x20 MSTORE PUSH1 0x40 SWAP1 KECCAK256 SLOAD PUSH1 0x1 PUSH1 0x1 PUSH1 0xA0 SHL SUB AND SWAP1 JUMP JUMPDEST PUSH1 0xA SLOAD PUSH1 0x1 PUSH1 0x1 PUSH1 0xA0 SHL SUB AND CALLER EQ PUSH2 0xA11 JUMPI PUSH1 0x40 MLOAD PUSH3 0x461BCD PUSH1 0xE5 SHL DUP2 MSTORE PUSH1 0x4 ADD PUSH2 0x9C2 SWAP1 PUSH2 0x2D58 JUMP JUMPDEST PUSH1 0x11 DUP1 SLOAD PUSH1 0x1 PUSH1 0x1 PUSH1 0xA0 SHL SUB NOT AND PUSH1 0x1 PUSH1 0x1 PUSH1 0xA0 SHL SUB SWAP3 SWAP1 SWAP3 AND SWAP2 SWAP1 SWAP2 OR SWAP1 SSTORE JUMP JUMPDEST PUSH1 0x0 PUSH2 0xA3E DUP3 PUSH2 0xF2B JUMP JUMPDEST SWAP1 POP DUP1 PUSH1 0x1 PUSH1 0x1 PUSH1 0xA0 SHL SUB AND DUP4 PUSH1 0x1 PUSH1 0x1 PUSH1 0xA0 SHL SUB AND EQ ISZERO PUSH2 0xAAC JUMPI PUSH1 0x40 MLOAD PUSH3 0x461BCD PUSH1 0xE5 SHL DUP2 MSTORE PUSH1 0x20 PUSH1 0x4 DUP3 ADD MSTORE PUSH1 0x21 PUSH1 0x24 DUP3 ADD MSTORE PUSH32 0x4552433732313A20617070726F76616C20746F2063757272656E74206F776E65 PUSH1 0x44 DUP3 ADD MSTORE PUSH1 0x39 PUSH1 0xF9 SHL PUSH1 0x64 DUP3 ADD MSTORE PUSH1 0x84 ADD PUSH2 0x9C2 JUMP JUMPDEST CALLER PUSH1 0x1 PUSH1 0x1 PUSH1 0xA0 SHL SUB DUP3 AND EQ DUP1 PUSH2 0xAC8 JUMPI POP PUSH2 0xAC8 DUP2 CALLER PUSH2 0x7F8 JUMP JUMPDEST PUSH2 0xB3A JUMPI PUSH1 0x40 MLOAD PUSH3 0x461BCD PUSH1 0xE5 SHL DUP2 MSTORE PUSH1 0x20 PUSH1 0x4 DUP3 ADD MSTORE PUSH1 0x38 PUSH1 0x24 DUP3 ADD MSTORE PUSH32 0x4552433732313A20617070726F76652063616C6C6572206973206E6F74206F77 PUSH1 0x44 DUP3 ADD MSTORE PUSH32 0x6E6572206E6F7220617070726F76656420666F7220616C6C0000000000000000 PUSH1 0x64 DUP3 ADD MSTORE PUSH1 0x84 ADD PUSH2 0x9C2 JUMP JUMPDEST PUSH2 0xB44 DUP4 DUP4 PUSH2 0x1B84 JUMP JUMPDEST POP POP POP JUMP JUMPDEST PUSH1 0xA SLOAD PUSH1 0x1 PUSH1 0x1 PUSH1 0xA0 SHL SUB AND CALLER EQ PUSH2 0xB73 JUMPI PUSH1 0x40 MLOAD PUSH3 0x461BCD PUSH1 0xE5 SHL DUP2 MSTORE PUSH1 0x4 ADD PUSH2 0x9C2 SWAP1 PUSH2 0x2D58 JUMP JUMPDEST DUP1 ISZERO PUSH2 0xB84 JUMPI PUSH2 0xB81 PUSH2 0x1BF2 JUMP JUMPDEST POP JUMP JUMPDEST PUSH2 0xB81 PUSH2 0x1C98 JUMP JUMPDEST PUSH1 0x14 SLOAD PUSH1 0x1 PUSH1 0xA0 SHL SWAP1 DIV PUSH1 0xFF AND ISZERO PUSH2 0xBD6 JUMPI PUSH1 0x40 MLOAD PUSH3 0x461BCD PUSH1 0xE5 SHL DUP2 MSTORE PUSH1 0x20 PUSH1 0x4 DUP3 ADD MSTORE PUSH1 0xD PUSH1 0x24 DUP3 ADD MSTORE PUSH13 0x4E6F207265656E7472616E6379 PUSH1 0x98 SHL PUSH1 0x44 DUP3 ADD MSTORE PUSH1 0x64 ADD PUSH2 0x9C2 JUMP JUMPDEST PUSH1 0x14 DUP1 SLOAD PUSH1 0xFF PUSH1 0xA0 SHL NOT AND PUSH1 0x1 PUSH1 0xA0 SHL OR SWAP1 SSTORE PUSH1 0x11 SLOAD PUSH1 0x1 PUSH1 0x1 PUSH1 0xA0 SHL SUB AND PUSH2 0xBFC CALLER SWAP1 JUMP JUMPDEST PUSH1 0x1 PUSH1 0x1 PUSH1 0xA0 SHL SUB AND EQ PUSH2 0xC30 JUMPI PUSH2 0xC14 CALLER DUP3 PUSH2 0x1D1D JUMP JUMPDEST PUSH2 0xC30 JUMPI PUSH1 0x40 MLOAD PUSH3 0x461BCD PUSH1 0xE5 SHL DUP2 MSTORE PUSH1 0x4 ADD PUSH2 0x9C2 SWAP1 PUSH2 0x2D8D JUMP JUMPDEST PUSH2 0xC3B DUP4 DUP4 DUP4 PUSH2 0x1E14 JUMP JUMPDEST POP POP PUSH1 0x14 DUP1 SLOAD PUSH1 0xFF PUSH1 0xA0 SHL NOT AND SWAP1 SSTORE POP JUMP JUMPDEST PUSH1 0x0 PUSH1 0xD SLOAD DUP3 GT PUSH2 0xC60 JUMPI POP PUSH1 0x0 SWAP2 SWAP1 POP JUMP JUMPDEST PUSH1 0x5 PUSH2 0xC8D PUSH32 0x0 PUSH1 0x2 PUSH2 0x2F34 JUMP JUMPDEST PUSH2 0xC97 SWAP2 SWAP1 PUSH2 0x2F20 JUMP JUMPDEST DUP3 GT PUSH2 0xCAE JUMPI POP PUSH10 0x43C33C1937564800000 SWAP2 SWAP1 POP JUMP JUMPDEST PUSH1 0x5 PUSH2 0xCDB PUSH32 0x0 PUSH1 0x4 PUSH2 0x2F34 JUMP JUMPDEST PUSH2 0xCE5 SWAP2 SWAP1 PUSH2 0x2F20 JUMP JUMPDEST DUP3 GT PUSH2 0xCFC JUMPI POP PUSH10 0x878678326EAC9000000 SWAP2 SWAP1 POP JUMP JUMPDEST POP PUSH10 0xCB49B44BA602D800000 SWAP2 SWAP1 POP JUMP JUMPDEST PUSH1 0xA SLOAD PUSH1 0x1 PUSH1 0x1 PUSH1 0xA0 SHL SUB AND CALLER EQ PUSH2 0xD37 JUMPI PUSH1 0x40 MLOAD PUSH3 0x461BCD PUSH1 0xE5 SHL DUP2 MSTORE PUSH1 0x4 ADD PUSH2 0x9C2 SWAP1 PUSH2 0x2D58 JUMP JUMPDEST PUSH1 0x14 DUP1 SLOAD SWAP2 ISZERO ISZERO PUSH1 0x1 PUSH1 0xA8 SHL MUL PUSH1 0xFF PUSH1 0xA8 SHL NOT SWAP1 SWAP3 AND SWAP2 SWAP1 SWAP2 OR SWAP1 SSTORE JUMP JUMPDEST PUSH1 0x0 PUSH2 0xD60 DUP4 PUSH2 0x16E9 JUMP JUMPDEST DUP3 LT PUSH2 0xDC2 JUMPI PUSH1 0x40 MLOAD PUSH3 0x461BCD PUSH1 0xE5 SHL DUP2 MSTORE PUSH1 0x20 PUSH1 0x4 DUP3 ADD MSTORE PUSH1 0x2B PUSH1 0x24 DUP3 ADD MSTORE PUSH32 0x455243373231456E756D657261626C653A206F776E657220696E646578206F75 PUSH1 0x44 DUP3 ADD MSTORE PUSH11 0x74206F6620626F756E6473 PUSH1 0xA8 SHL PUSH1 0x64 DUP3 ADD MSTORE PUSH1 0x84 ADD PUSH2 0x9C2 JUMP JUMPDEST POP PUSH1 0x1 PUSH1 0x1 PUSH1 0xA0 SHL SUB SWAP2 SWAP1 SWAP2 AND PUSH1 0x0 SWAP1 DUP2 MSTORE PUSH1 0x6 PUSH1 0x20 SWAP1 DUP2 MSTORE PUSH1 0x40 DUP1 DUP4 KECCAK256 SWAP4 DUP4 MSTORE SWAP3 SWAP1 MSTORE KECCAK256 SLOAD SWAP1 JUMP JUMPDEST PUSH1 0xA SLOAD PUSH1 0x1 PUSH1 0x1 PUSH1 0xA0 SHL SUB AND CALLER EQ PUSH2 0xE15 JUMPI PUSH1 0x40 MLOAD PUSH3 0x461BCD PUSH1 0xE5 SHL DUP2 MSTORE PUSH1 0x4 ADD PUSH2 0x9C2 SWAP1 PUSH2 0x2D58 JUMP JUMPDEST PUSH1 0xD SSTORE JUMP JUMPDEST PUSH1 0xA SLOAD PUSH1 0x1 PUSH1 0x1 PUSH1 0xA0 SHL SUB AND CALLER EQ PUSH2 0xE44 JUMPI PUSH1 0x40 MLOAD PUSH3 0x461BCD PUSH1 0xE5 SHL DUP2 MSTORE PUSH1 0x4 ADD PUSH2 0x9C2 SWAP1 PUSH2 0x2D58 JUMP JUMPDEST PUSH1 0xA SLOAD PUSH1 0x40 MLOAD PUSH1 0x1 PUSH1 0x1 PUSH1 0xA0 SHL SUB SWAP1 SWAP2 AND SWAP1 SELFBALANCE DUP1 ISZERO PUSH2 0x8FC MUL SWAP2 PUSH1 0x0 DUP2 DUP2 DUP2 DUP6 DUP9 DUP9 CALL SWAP4 POP POP POP POP ISZERO DUP1 ISZERO PUSH2 0xB81 JUMPI RETURNDATASIZE PUSH1 0x0 DUP1 RETURNDATACOPY RETURNDATASIZE PUSH1 0x0 REVERT JUMPDEST PUSH2 0xB44 DUP4 DUP4 DUP4 PUSH1 0x40 MLOAD DUP1 PUSH1 0x20 ADD PUSH1 0x40 MSTORE DUP1 PUSH1 0x0 DUP2 MSTORE POP PUSH2 0x191A JUMP JUMPDEST PUSH1 0x0 PUSH2 0xEA3 PUSH1 0x8 SLOAD SWAP1 JUMP JUMPDEST DUP3 LT PUSH2 0xF06 JUMPI PUSH1 0x40 MLOAD PUSH3 0x461BCD PUSH1 0xE5 SHL DUP2 MSTORE PUSH1 0x20 PUSH1 0x4 DUP3 ADD MSTORE PUSH1 0x2C PUSH1 0x24 DUP3 ADD MSTORE PUSH32 0x455243373231456E756D657261626C653A20676C6F62616C20696E646578206F PUSH1 0x44 DUP3 ADD MSTORE PUSH12 0x7574206F6620626F756E6473 PUSH1 0xA0 SHL PUSH1 0x64 DUP3 ADD MSTORE PUSH1 0x84 ADD PUSH2 0x9C2 JUMP JUMPDEST PUSH1 0x8 DUP3 DUP2 SLOAD DUP2 LT PUSH2 0xF19 JUMPI PUSH2 0xF19 PUSH2 0x305E JUMP JUMPDEST SWAP1 PUSH1 0x0 MSTORE PUSH1 0x20 PUSH1 0x0 KECCAK256 ADD SLOAD SWAP1 POP SWAP2 SWAP1 POP JUMP JUMPDEST PUSH1 0x0 DUP2 DUP2 MSTORE PUSH1 0x2 PUSH1 0x20 MSTORE PUSH1 0x40 DUP2 KECCAK256 SLOAD PUSH1 0x1 PUSH1 0x1 PUSH1 0xA0 SHL SUB AND DUP1 PUSH2 0x8B5 JUMPI PUSH1 0x40 MLOAD PUSH3 0x461BCD PUSH1 0xE5 SHL DUP2 MSTORE PUSH1 0x20 PUSH1 0x4 DUP3 ADD MSTORE PUSH1 0x29 PUSH1 0x24 DUP3 ADD MSTORE PUSH32 0x4552433732313A206F776E657220717565727920666F72206E6F6E6578697374 PUSH1 0x44 DUP3 ADD MSTORE PUSH9 0x32B73A103A37B5B2B7 PUSH1 0xB9 SHL PUSH1 0x64 DUP3 ADD MSTORE PUSH1 0x84 ADD PUSH2 0x9C2 JUMP JUMPDEST PUSH1 0x14 SLOAD PUSH1 0x1 PUSH1 0xA0 SHL SWAP1 DIV PUSH1 0xFF AND ISZERO PUSH2 0xFEC JUMPI PUSH1 0x40 MLOAD PUSH3 0x461BCD PUSH1 0xE5 SHL DUP2 MSTORE PUSH1 0x20 PUSH1 0x4 DUP3 ADD MSTORE PUSH1 0xD PUSH1 0x24 DUP3 ADD MSTORE PUSH13 0x4E6F207265656E7472616E6379 PUSH1 0x98 SHL PUSH1 0x44 DUP3 ADD MSTORE PUSH1 0x64 ADD PUSH2 0x9C2 JUMP JUMPDEST PUSH1 0x14 DUP1 SLOAD PUSH1 0xFF PUSH1 0xA0 SHL NOT AND PUSH1 0x1 PUSH1 0xA0 SHL OR SWAP1 SSTORE PUSH2 0x1013 PUSH1 0xA SLOAD PUSH1 0xFF PUSH1 0x1 PUSH1 0xA0 SHL SWAP1 SWAP2 DIV AND SWAP1 JUMP JUMPDEST ISZERO PUSH2 0x1054 JUMPI PUSH1 0x40 MLOAD PUSH3 0x461BCD PUSH1 0xE5 SHL DUP2 MSTORE PUSH1 0x20 PUSH1 0x4 DUP3 ADD MSTORE PUSH1 0x11 PUSH1 0x24 DUP3 ADD MSTORE PUSH17 0x14185D5CD958589B194E881C185D5CD959 PUSH1 0x7A SHL PUSH1 0x44 DUP3 ADD MSTORE PUSH1 0x64 ADD PUSH2 0x9C2 JUMP JUMPDEST DUP1 ISZERO DUP1 PUSH2 0x106A JUMPI POP PUSH1 0x14 SLOAD PUSH1 0x1 PUSH1 0xA8 SHL SWAP1 DIV PUSH1 0xFF AND JUMPDEST PUSH2 0x10AE JUMPI PUSH1 0x40 MLOAD PUSH3 0x461BCD PUSH1 0xE5 SHL DUP2 MSTORE PUSH1 0x20 PUSH1 0x4 DUP3 ADD MSTORE PUSH1 0x15 PUSH1 0x24 DUP3 ADD MSTORE PUSH21 0x14DD185ADA5B99C81B9BDD081858DD1A5D985D1959 PUSH1 0x5A SHL PUSH1 0x44 DUP3 ADD MSTORE PUSH1 0x64 ADD PUSH2 0x9C2 JUMP JUMPDEST ORIGIN CALLER EQ PUSH2 0x10E8 JUMPI PUSH1 0x40 MLOAD PUSH3 0x461BCD PUSH1 0xE5 SHL DUP2 MSTORE PUSH1 0x20 PUSH1 0x4 DUP3 ADD MSTORE PUSH1 0x8 PUSH1 0x24 DUP3 ADD MSTORE PUSH8 0x4F6E6C7920454F41 PUSH1 0xC0 SHL PUSH1 0x44 DUP3 ADD MSTORE PUSH1 0x64 ADD PUSH2 0x9C2 JUMP JUMPDEST PUSH1 0xE SLOAD PUSH32 0x0 SWAP1 PUSH2 0x111C SWAP1 DUP5 SWAP1 PUSH2 0xFFFF AND PUSH2 0x2EE3 JUMP JUMPDEST GT ISZERO PUSH2 0x115E JUMPI PUSH1 0x40 MLOAD PUSH3 0x461BCD PUSH1 0xE5 SHL DUP2 MSTORE PUSH1 0x20 PUSH1 0x4 DUP3 ADD MSTORE PUSH1 0x11 PUSH1 0x24 DUP3 ADD MSTORE PUSH17 0x105B1B081D1BDAD95B9CC81B5A5B9D1959 PUSH1 0x7A SHL PUSH1 0x44 DUP3 ADD MSTORE PUSH1 0x64 ADD PUSH2 0x9C2 JUMP JUMPDEST PUSH1 0x0 DUP3 GT DUP1 ISZERO PUSH2 0x1170 JUMPI POP PUSH1 0xC SLOAD DUP3 GT ISZERO JUMPDEST PUSH2 0x11B2 JUMPI PUSH1 0x40 MLOAD PUSH3 0x461BCD PUSH1 0xE5 SHL DUP2 MSTORE PUSH1 0x20 PUSH1 0x4 DUP3 ADD MSTORE PUSH1 0x13 PUSH1 0x24 DUP3 ADD MSTORE PUSH19 0x125B9D985B1A59081B5A5B9D08185B5BDD5B9D PUSH1 0x6A SHL PUSH1 0x44 DUP3 ADD MSTORE PUSH1 0x64 ADD PUSH2 0x9C2 JUMP JUMPDEST PUSH1 0xD SLOAD PUSH1 0xE SLOAD PUSH2 0xFFFF AND LT ISZERO PUSH2 0x127F JUMPI PUSH1 0xD SLOAD PUSH1 0xE SLOAD PUSH2 0x11D7 SWAP1 DUP5 SWAP1 PUSH2 0xFFFF AND PUSH2 0x2EE3 JUMP JUMPDEST GT ISZERO PUSH2 0x1225 JUMPI PUSH1 0x40 MLOAD PUSH3 0x461BCD PUSH1 0xE5 SHL DUP2 MSTORE PUSH1 0x20 PUSH1 0x4 DUP3 ADD MSTORE PUSH1 0x1F PUSH1 0x24 DUP3 ADD MSTORE PUSH32 0x416C6C20746F6B656E73206F6E2D73616C6520616C726561647920736F6C6400 PUSH1 0x44 DUP3 ADD MSTORE PUSH1 0x64 ADD PUSH2 0x9C2 JUMP JUMPDEST CALLVALUE PUSH1 0xB SLOAD DUP4 PUSH2 0x1234 SWAP2 SWAP1 PUSH2 0x2F34 JUMP JUMPDEST EQ PUSH2 0x127A JUMPI PUSH1 0x40 MLOAD PUSH3 0x461BCD PUSH1 0xE5 SHL DUP2 MSTORE PUSH1 0x20 PUSH1 0x4 DUP3 ADD MSTORE PUSH1 0x16 PUSH1 0x24 DUP3 ADD MSTORE PUSH22 0x125B9D985B1A59081C185E5B595B9D08185B5BDD5B9D PUSH1 0x52 SHL PUSH1 0x44 DUP3 ADD MSTORE PUSH1 0x64 ADD PUSH2 0x9C2 JUMP JUMPDEST PUSH2 0x128A JUMP JUMPDEST CALLVALUE ISZERO PUSH2 0x128A JUMPI PUSH1 0x0 DUP1 REVERT JUMPDEST PUSH1 0x0 DUP1 DUP4 PUSH8 0xFFFFFFFFFFFFFFFF DUP2 GT ISZERO PUSH2 0x12A6 JUMPI PUSH2 0x12A6 PUSH2 0x3074 JUMP JUMPDEST PUSH1 0x40 MLOAD SWAP1 DUP1 DUP3 MSTORE DUP1 PUSH1 0x20 MUL PUSH1 0x20 ADD DUP3 ADD PUSH1 0x40 MSTORE DUP1 ISZERO PUSH2 0x12CF JUMPI DUP2 PUSH1 0x20 ADD PUSH1 0x20 DUP3 MUL DUP1 CALLDATASIZE DUP4 CALLDATACOPY ADD SWAP1 POP JUMPDEST POP SWAP1 POP PUSH1 0x0 DUP5 PUSH8 0xFFFFFFFFFFFFFFFF DUP2 GT ISZERO PUSH2 0x12ED JUMPI PUSH2 0x12ED PUSH2 0x3074 JUMP JUMPDEST PUSH1 0x40 MLOAD SWAP1 DUP1 DUP3 MSTORE DUP1 PUSH1 0x20 MUL PUSH1 0x20 ADD DUP3 ADD PUSH1 0x40 MSTORE DUP1 ISZERO PUSH2 0x1316 JUMPI DUP2 PUSH1 0x20 ADD PUSH1 0x20 DUP3 MUL DUP1 CALLDATASIZE DUP4 CALLDATACOPY ADD SWAP1 POP JUMPDEST POP PUSH1 0xE SLOAD SWAP1 SWAP2 POP PUSH1 0x0 SWAP1 PUSH2 0xFFFF AND DUP2 JUMPDEST DUP8 DUP2 LT ISZERO PUSH2 0x150B JUMPI PUSH1 0xE DUP1 SLOAD PUSH2 0xFFFF AND SWAP1 PUSH1 0x0 PUSH2 0x1342 DUP4 PUSH2 0x2FCB JUMP JUMPDEST DUP3 SLOAD PUSH2 0x100 SWAP3 SWAP1 SWAP3 EXP PUSH2 0xFFFF DUP2 DUP2 MUL NOT SWAP1 SWAP4 AND SWAP2 DUP4 AND MUL OR SWAP1 SWAP2 SSTORE PUSH1 0xE SLOAD PUSH2 0x136B SWAP3 POP AND PUSH2 0x1FBF JUMP JUMPDEST PUSH1 0x14 SLOAD PUSH1 0xE SLOAD PUSH1 0x40 MLOAD PUSH4 0x4155C485 PUSH1 0xE1 SHL DUP2 MSTORE PUSH2 0xFFFF SWAP1 SWAP2 AND DUP4 XOR PUSH1 0x4 DUP3 ADD MSTORE SWAP2 SWAP5 POP PUSH1 0x1 PUSH1 0x1 PUSH1 0xA0 SHL SUB AND SWAP1 PUSH4 0x82AB890A SWAP1 PUSH1 0x24 ADD PUSH1 0x20 PUSH1 0x40 MLOAD DUP1 DUP4 SUB DUP2 PUSH1 0x0 DUP8 DUP1 EXTCODESIZE ISZERO DUP1 ISZERO PUSH2 0x13BB JUMPI PUSH1 0x0 DUP1 REVERT JUMPDEST POP GAS CALL ISZERO DUP1 ISZERO PUSH2 0x13CF JUMPI RETURNDATASIZE PUSH1 0x0 DUP1 RETURNDATACOPY RETURNDATASIZE PUSH1 0x0 REVERT JUMPDEST POP POP POP POP PUSH1 0x40 MLOAD RETURNDATASIZE PUSH1 0x1F NOT PUSH1 0x1F DUP3 ADD AND DUP3 ADD DUP1 PUSH1 0x40 MSTORE POP DUP2 ADD SWAP1 PUSH2 0x13F3 SWAP2 SWAP1 PUSH2 0x2C6C JUMP JUMPDEST POP PUSH1 0xE SLOAD PUSH2 0x1405 SWAP1 PUSH2 0xFFFF AND DUP5 PUSH2 0x209A JUMP JUMPDEST POP PUSH1 0x0 PUSH2 0x1411 DUP5 PUSH2 0x2215 JUMP JUMPDEST PUSH1 0xE SLOAD SWAP1 SWAP2 POP PUSH2 0x1424 SWAP1 PUSH2 0xFFFF AND PUSH2 0xC4D JUMP JUMPDEST PUSH2 0x142E SWAP1 DUP9 PUSH2 0x2EE3 JUMP JUMPDEST SWAP7 POP DUP8 ISZERO DUP1 PUSH2 0x1446 JUMPI POP PUSH1 0x1 PUSH1 0x1 PUSH1 0xA0 SHL SUB DUP2 AND CALLER EQ ISZERO JUMPDEST ISZERO PUSH2 0x1483 JUMPI DUP1 DUP6 DUP4 DUP2 MLOAD DUP2 LT PUSH2 0x145E JUMPI PUSH2 0x145E PUSH2 0x305E JUMP JUMPDEST PUSH1 0x20 MUL PUSH1 0x20 ADD ADD SWAP1 PUSH1 0x1 PUSH1 0x1 PUSH1 0xA0 SHL SUB AND SWAP1 DUP2 PUSH1 0x1 PUSH1 0x1 PUSH1 0xA0 SHL SUB AND DUP2 MSTORE POP POP PUSH2 0x14F8 JUMP JUMPDEST PUSH1 0xE SLOAD DUP7 MLOAD PUSH2 0xFFFF SWAP1 SWAP2 AND SWAP1 DUP8 SWAP1 DUP5 SWAP1 DUP2 LT PUSH2 0x14A1 JUMPI PUSH2 0x14A1 PUSH2 0x305E JUMP JUMPDEST PUSH2 0xFFFF SWAP1 SWAP3 AND PUSH1 0x20 SWAP3 DUP4 MUL SWAP2 SWAP1 SWAP2 ADD SWAP1 SWAP2 ADD MSTORE PUSH1 0x11 SLOAD DUP6 MLOAD PUSH1 0x1 PUSH1 0x1 PUSH1 0xA0 SHL SUB SWAP1 SWAP2 AND SWAP1 DUP7 SWAP1 DUP5 SWAP1 DUP2 LT PUSH2 0x14D7 JUMPI PUSH2 0x14D7 PUSH2 0x305E JUMP JUMPDEST PUSH1 0x20 MUL PUSH1 0x20 ADD ADD SWAP1 PUSH1 0x1 PUSH1 0x1 PUSH1 0xA0 SHL SUB AND SWAP1 DUP2 PUSH1 0x1 PUSH1 0x1 PUSH1 0xA0 SHL SUB AND DUP2 MSTORE POP POP JUMPDEST POP DUP1 PUSH2 0x1503 DUP2 PUSH2 0x2FED JUMP JUMPDEST SWAP2 POP POP PUSH2 0x1326 JUMP JUMPDEST POP DUP5 ISZERO PUSH2 0x1585 JUMPI PUSH1 0x12 SLOAD PUSH1 0x1 PUSH1 0x1 PUSH1 0xA0 SHL SUB AND PUSH4 0x9DC29FAC CALLER PUSH1 0x40 MLOAD PUSH1 0x1 PUSH1 0x1 PUSH1 0xE0 SHL SUB NOT PUSH1 0xE0 DUP5 SWAP1 SHL AND DUP2 MSTORE PUSH1 0x1 PUSH1 0x1 PUSH1 0xA0 SHL SUB SWAP1 SWAP2 AND PUSH1 0x4 DUP3 ADD MSTORE PUSH1 0x24 DUP2 ADD DUP9 SWAP1 MSTORE PUSH1 0x44 ADD PUSH1 0x0 PUSH1 0x40 MLOAD DUP1 DUP4 SUB DUP2 PUSH1 0x0 DUP8 DUP1 EXTCODESIZE ISZERO DUP1 ISZERO PUSH2 0x156C JUMPI PUSH1 0x0 DUP1 REVERT JUMPDEST POP GAS CALL ISZERO DUP1 ISZERO PUSH2 0x1580 JUMPI RETURNDATASIZE PUSH1 0x0 DUP1 RETURNDATACOPY RETURNDATASIZE PUSH1 0x0 REVERT JUMPDEST POP POP POP POP JUMPDEST PUSH1 0x0 JUMPDEST DUP4 MLOAD DUP2 LT ISZERO PUSH2 0x161D JUMPI PUSH1 0x0 PUSH2 0x159D DUP3 DUP5 PUSH2 0x2EE3 JUMP JUMPDEST PUSH2 0x15A8 SWAP1 PUSH1 0x1 PUSH2 0x2EE3 JUMP JUMPDEST SWAP1 POP DUP8 ISZERO DUP1 PUSH2 0x15E2 JUMPI POP CALLER PUSH1 0x1 PUSH1 0x1 PUSH1 0xA0 SHL SUB AND DUP6 DUP4 DUP2 MLOAD DUP2 LT PUSH2 0x15CE JUMPI PUSH2 0x15CE PUSH2 0x305E JUMP JUMPDEST PUSH1 0x20 MUL PUSH1 0x20 ADD ADD MLOAD PUSH1 0x1 PUSH1 0x1 PUSH1 0xA0 SHL SUB AND EQ ISZERO JUMPDEST ISZERO PUSH2 0x160A JUMPI PUSH2 0x160A DUP6 DUP4 DUP2 MLOAD DUP2 LT PUSH2 0x15FC JUMPI PUSH2 0x15FC PUSH2 0x305E JUMP JUMPDEST PUSH1 0x20 MUL PUSH1 0x20 ADD ADD MLOAD DUP3 PUSH2 0x22E1 JUMP JUMPDEST POP DUP1 PUSH2 0x1615 DUP2 PUSH2 0x2FED JUMP JUMPDEST SWAP2 POP POP PUSH2 0x1588 JUMP JUMPDEST POP DUP6 ISZERO PUSH2 0x1687 JUMPI PUSH1 0x11 SLOAD PUSH1 0x1 PUSH1 0x1 PUSH1 0xA0 SHL SUB AND PUSH4 0x5B519142 CALLER DUP7 PUSH1 0x40 MLOAD DUP4 PUSH4 0xFFFFFFFF AND PUSH1 0xE0 SHL DUP2 MSTORE PUSH1 0x4 ADD PUSH2 0x1654 SWAP3 SWAP2 SWAP1 PUSH2 0x2CCB JUMP JUMPDEST PUSH1 0x0 PUSH1 0x40 MLOAD DUP1 DUP4 SUB DUP2 PUSH1 0x0 DUP8 DUP1 EXTCODESIZE ISZERO DUP1 ISZERO PUSH2 0x166E JUMPI PUSH1 0x0 DUP1 REVERT JUMPDEST POP GAS CALL ISZERO DUP1 ISZERO PUSH2 0x1682 JUMPI RETURNDATASIZE PUSH1 0x0 DUP1 RETURNDATACOPY RETURNDATASIZE PUSH1 0x0 REVERT JUMPDEST POP POP POP POP JUMPDEST POP POP PUSH1 0x14 DUP1 SLOAD PUSH1 0xFF PUSH1 0xA0 SHL NOT AND SWAP1 SSTORE POP POP POP POP POP JUMP JUMPDEST PUSH1 0xA SLOAD PUSH1 0x1 PUSH1 0x1 PUSH1 0xA0 SHL SUB AND CALLER EQ PUSH2 0x16C7 JUMPI PUSH1 0x40 MLOAD PUSH3 0x461BCD PUSH1 0xE5 SHL DUP2 MSTORE PUSH1 0x4 ADD PUSH2 0x9C2 SWAP1 PUSH2 0x2D58 JUMP JUMPDEST PUSH1 0x13 DUP1 SLOAD PUSH1 0x1 PUSH1 0x1 PUSH1 0xA0 SHL SUB NOT AND PUSH1 0x1 PUSH1 0x1 PUSH1 0xA0 SHL SUB SWAP3 SWAP1 SWAP3 AND SWAP2 SWAP1 SWAP2 OR SWAP1 SSTORE JUMP JUMPDEST PUSH1 0x0 PUSH1 0x1 PUSH1 0x1 PUSH1 0xA0 SHL SUB DUP3 AND PUSH2 0x1754 JUMPI PUSH1 0x40 MLOAD PUSH3 0x461BCD PUSH1 0xE5 SHL DUP2 MSTORE PUSH1 0x20 PUSH1 0x4 DUP3 ADD MSTORE PUSH1 0x2A PUSH1 0x24 DUP3 ADD MSTORE PUSH32 0x4552433732313A2062616C616E636520717565727920666F7220746865207A65 PUSH1 0x44 DUP3 ADD MSTORE PUSH10 0x726F2061646472657373 PUSH1 0xB0 SHL PUSH1 0x64 DUP3 ADD MSTORE PUSH1 0x84 ADD PUSH2 0x9C2 JUMP JUMPDEST POP PUSH1 0x1 PUSH1 0x1 PUSH1 0xA0 SHL SUB AND PUSH1 0x0 SWAP1 DUP2 MSTORE PUSH1 0x3 PUSH1 0x20 MSTORE PUSH1 0x40 SWAP1 KECCAK256 SLOAD SWAP1 JUMP JUMPDEST PUSH2 0x1778 PUSH2 0x2972 JUMP JUMPDEST POP PUSH1 0x0 SWAP1 DUP2 MSTORE PUSH1 0xF PUSH1 0x20 SWAP1 DUP2 MSTORE PUSH1 0x40 SWAP2 DUP3 SWAP1 KECCAK256 DUP3 MLOAD PUSH2 0x120 DUP2 ADD DUP5 MSTORE SWAP1 SLOAD PUSH1 0xFF DUP1 DUP3 AND ISZERO ISZERO DUP4 MSTORE PUSH2 0x100 DUP1 DUP4 DIV DUP3 AND SWAP5 DUP5 ADD SWAP5 SWAP1 SWAP5 MSTORE PUSH3 0x10000 DUP3 DIV DUP2 AND SWAP5 DUP4 ADD SWAP5 SWAP1 SWAP5 MSTORE PUSH4 0x1000000 DUP2 DIV DUP5 AND PUSH1 0x60 DUP4 ADD MSTORE PUSH5 0x100000000 DUP2 DIV DUP5 AND PUSH1 0x80 DUP4 ADD MSTORE PUSH6 0x10000000000 DUP2 DIV DUP5 AND PUSH1 0xA0 DUP4 ADD MSTORE PUSH1 0x1 PUSH1 0x30 SHL DUP2 DIV DUP5 AND PUSH1 0xC0 DUP4 ADD MSTORE PUSH1 0x1 PUSH1 0x38 SHL DUP2 DIV DUP5 AND PUSH1 0xE0 DUP4 ADD MSTORE PUSH1 0x1 PUSH1 0x40 SHL SWAP1 DIV SWAP1 SWAP3 AND SWAP1 DUP3 ADD MSTORE SWAP1 JUMP JUMPDEST PUSH1 0x60 PUSH1 0x1 DUP1 SLOAD PUSH2 0x8CA SWAP1 PUSH2 0x2F96 JUMP JUMPDEST PUSH1 0x1 PUSH1 0x1 PUSH1 0xA0 SHL SUB DUP3 AND CALLER EQ ISZERO PUSH2 0x187F JUMPI PUSH1 0x40 MLOAD PUSH3 0x461BCD PUSH1 0xE5 SHL DUP2 MSTORE PUSH1 0x20 PUSH1 0x4 DUP3 ADD MSTORE PUSH1 0x19 PUSH1 0x24 DUP3 ADD MSTORE PUSH32 0x4552433732313A20617070726F766520746F2063616C6C657200000000000000 PUSH1 0x44 DUP3 ADD MSTORE PUSH1 0x64 ADD PUSH2 0x9C2 JUMP JUMPDEST CALLER PUSH1 0x0 DUP2 DUP2 MSTORE PUSH1 0x5 PUSH1 0x20 SWAP1 DUP2 MSTORE PUSH1 0x40 DUP1 DUP4 KECCAK256 PUSH1 0x1 PUSH1 0x1 PUSH1 0xA0 SHL SUB DUP8 AND DUP1 DUP6 MSTORE SWAP1 DUP4 MSTORE SWAP3 DUP2 SWAP1 KECCAK256 DUP1 SLOAD PUSH1 0xFF NOT AND DUP7 ISZERO ISZERO SWAP1 DUP2 OR SWAP1 SWAP2 SSTORE SWAP1 MLOAD SWAP1 DUP2 MSTORE SWAP2 SWAP3 SWAP2 PUSH32 0x17307EAB39AB6107E8899845AD3D59BD9653F200F220920489CA2B5937696C31 SWAP2 ADD PUSH1 0x40 MLOAD DUP1 SWAP2 SUB SWAP1 LOG3 POP POP JUMP JUMPDEST PUSH1 0xA SLOAD PUSH1 0x1 PUSH1 0x1 PUSH1 0xA0 SHL SUB AND CALLER EQ PUSH2 0x1915 JUMPI PUSH1 0x40 MLOAD PUSH3 0x461BCD PUSH1 0xE5 SHL DUP2 MSTORE PUSH1 0x4 ADD PUSH2 0x9C2 SWAP1 PUSH2 0x2D58 JUMP JUMPDEST PUSH1 0xB SSTORE JUMP JUMPDEST PUSH2 0x1924 CALLER DUP4 PUSH2 0x1D1D JUMP JUMPDEST PUSH2 0x1940 JUMPI PUSH1 0x40 MLOAD PUSH3 0x461BCD PUSH1 0xE5 SHL DUP2 MSTORE PUSH1 0x4 ADD PUSH2 0x9C2 SWAP1 PUSH2 0x2D8D JUMP JUMPDEST PUSH2 0x194B DUP5 DUP5 DUP5 PUSH2 0xB8C JUMP JUMPDEST POP POP POP POP JUMP JUMPDEST PUSH1 0x0 DUP2 DUP2 MSTORE PUSH1 0x2 PUSH1 0x20 MSTORE PUSH1 0x40 SWAP1 KECCAK256 SLOAD PUSH1 0x60 SWAP1 PUSH1 0x1 PUSH1 0x1 PUSH1 0xA0 SHL SUB AND PUSH2 0x19D0 JUMPI PUSH1 0x40 MLOAD PUSH3 0x461BCD PUSH1 0xE5 SHL DUP2 MSTORE PUSH1 0x20 PUSH1 0x4 DUP3 ADD MSTORE PUSH1 0x2F PUSH1 0x24 DUP3 ADD MSTORE PUSH32 0x4552433732314D657461646174613A2055524920717565727920666F72206E6F PUSH1 0x44 DUP3 ADD MSTORE PUSH15 0x3732BC34B9BA32B73A103A37B5B2B7 PUSH1 0x89 SHL PUSH1 0x64 DUP3 ADD MSTORE PUSH1 0x84 ADD PUSH2 0x9C2 JUMP JUMPDEST PUSH1 0x13 SLOAD PUSH1 0x40 MLOAD PUSH4 0xC87B56DD PUSH1 0xE0 SHL DUP2 MSTORE PUSH1 0x4 DUP2 ADD DUP5 SWAP1 MSTORE PUSH1 0x1 PUSH1 0x1 PUSH1 0xA0 SHL SUB SWAP1 SWAP2 AND SWAP1 PUSH4 0xC87B56DD SWAP1 PUSH1 0x24 ADD PUSH1 0x0 PUSH1 0x40 MLOAD DUP1 DUP4 SUB DUP2 DUP7 DUP1 EXTCODESIZE ISZERO DUP1 ISZERO PUSH2 0x1A14 JUMPI PUSH1 0x0 DUP1 REVERT JUMPDEST POP GAS STATICCALL ISZERO DUP1 ISZERO PUSH2 0x1A28 JUMPI RETURNDATASIZE PUSH1 0x0 DUP1 RETURNDATACOPY RETURNDATASIZE PUSH1 0x0 REVERT JUMPDEST POP POP POP POP PUSH1 0x40 MLOAD RETURNDATASIZE PUSH1 0x0 DUP3 RETURNDATACOPY PUSH1 0x1F RETURNDATASIZE SWAP1 DUP2 ADD PUSH1 0x1F NOT AND DUP3 ADD PUSH1 0x40 MSTORE PUSH2 0x8B5 SWAP2 SWAP1 DUP2 ADD SWAP1 PUSH2 0x2BDC JUMP JUMPDEST PUSH1 0xA SLOAD PUSH1 0x1 PUSH1 0x1 PUSH1 0xA0 SHL SUB AND CALLER EQ PUSH2 0x1A7A JUMPI PUSH1 0x40 MLOAD PUSH3 0x461BCD PUSH1 0xE5 SHL DUP2 MSTORE PUSH1 0x4 ADD PUSH2 0x9C2 SWAP1 PUSH2 0x2D58 JUMP JUMPDEST PUSH1 0x14 DUP1 SLOAD PUSH1 0x1 PUSH1 0x1 PUSH1 0xA0 SHL SUB NOT AND PUSH1 0x1 PUSH1 0x1 PUSH1 0xA0 SHL SUB SWAP3 SWAP1 SWAP3 AND SWAP2 SWAP1 SWAP2 OR SWAP1 SSTORE JUMP JUMPDEST PUSH1 0xA SLOAD PUSH1 0x1 PUSH1 0x1 PUSH1 0xA0 SHL SUB AND CALLER EQ PUSH2 0x1AC6 JUMPI PUSH1 0x40 MLOAD PUSH3 0x461BCD PUSH1 0xE5 SHL DUP2 MSTORE PUSH1 0x4 ADD PUSH2 0x9C2 SWAP1 PUSH2 0x2D58 JUMP JUMPDEST PUSH1 0x1 PUSH1 0x1 PUSH1 0xA0 SHL SUB DUP2 AND PUSH2 0x1B2B JUMPI PUSH1 0x40 MLOAD PUSH3 0x461BCD PUSH1 0xE5 SHL DUP2 MSTORE PUSH1 0x20 PUSH1 0x4 DUP3 ADD MSTORE PUSH1 0x26 PUSH1 0x24 DUP3 ADD MSTORE PUSH32 0x4F776E61626C653A206E6577206F776E657220697320746865207A65726F2061 PUSH1 0x44 DUP3 ADD MSTORE PUSH6 0x646472657373 PUSH1 0xD0 SHL PUSH1 0x64 DUP3 ADD MSTORE PUSH1 0x84 ADD PUSH2 0x9C2 JUMP JUMPDEST PUSH2 0xB81 DUP2 PUSH2 0x22FF JUMP JUMPDEST PUSH1 0x0 PUSH1 0x1 PUSH1 0x1 PUSH1 0xE0 SHL SUB NOT DUP3 AND PUSH4 0x80AC58CD PUSH1 0xE0 SHL EQ DUP1 PUSH2 0x1B65 JUMPI POP PUSH1 0x1 PUSH1 0x1 PUSH1 0xE0 SHL SUB NOT DUP3 AND PUSH4 0x5B5E139F PUSH1 0xE0 SHL EQ JUMPDEST DUP1 PUSH2 0x8B5 JUMPI POP PUSH4 0x1FFC9A7 PUSH1 0xE0 SHL PUSH1 0x1 PUSH1 0x1 PUSH1 0xE0 SHL SUB NOT DUP4 AND EQ PUSH2 0x8B5 JUMP JUMPDEST PUSH1 0x0 DUP2 DUP2 MSTORE PUSH1 0x4 PUSH1 0x20 MSTORE PUSH1 0x40 SWAP1 KECCAK256 DUP1 SLOAD PUSH1 0x1 PUSH1 0x1 PUSH1 0xA0 SHL SUB NOT AND PUSH1 0x1 PUSH1 0x1 PUSH1 0xA0 SHL SUB DUP5 AND SWAP1 DUP2 OR SWAP1 SWAP2 SSTORE DUP2 SWAP1 PUSH2 0x1BB9 DUP3 PUSH2 0xF2B JUMP JUMPDEST PUSH1 0x1 PUSH1 0x1 PUSH1 0xA0 SHL SUB AND PUSH32 0x8C5BE1E5EBEC7D5BD14F71427D1E84F3DD0314C0F7B2291E5B200AC8C7C3B925 PUSH1 0x40 MLOAD PUSH1 0x40 MLOAD DUP1 SWAP2 SUB SWAP1 LOG4 POP POP JUMP JUMPDEST PUSH1 0xA SLOAD PUSH1 0x1 PUSH1 0xA0 SHL SWAP1 DIV PUSH1 0xFF AND ISZERO PUSH2 0x1C40 JUMPI PUSH1 0x40 MLOAD PUSH3 0x461BCD PUSH1 0xE5 SHL DUP2 MSTORE PUSH1 0x20 PUSH1 0x4 DUP3 ADD MSTORE PUSH1 0x11 PUSH1 0x24 DUP3 ADD MSTORE PUSH17 0x14185D5CD958589B194E881C185D5CD959 PUSH1 0x7A SHL PUSH1 0x44 DUP3 ADD MSTORE PUSH1 0x64 ADD PUSH2 0x9C2 JUMP JUMPDEST PUSH1 0xA DUP1 SLOAD PUSH1 0xFF PUSH1 0xA0 SHL NOT AND PUSH1 0x1 PUSH1 0xA0 SHL OR SWAP1 SSTORE PUSH32 0x62E78CEA01BEE320CD4E420270B5EA74000D11B0C9F74754EBDBFC544B05A258 PUSH2 0x1C7B CALLER SWAP1 JUMP JUMPDEST PUSH1 0x40 MLOAD PUSH1 0x1 PUSH1 0x1 PUSH1 0xA0 SHL SUB SWAP1 SWAP2 AND DUP2 MSTORE PUSH1 0x20 ADD PUSH1 0x40 MLOAD DUP1 SWAP2 SUB SWAP1 LOG1 JUMP JUMPDEST PUSH1 0xA SLOAD PUSH1 0x1 PUSH1 0xA0 SHL SWAP1 DIV PUSH1 0xFF AND PUSH2 0x1CE9 JUMPI PUSH1 0x40 MLOAD PUSH3 0x461BCD PUSH1 0xE5 SHL DUP2 MSTORE PUSH1 0x20 PUSH1 0x4 DUP3 ADD MSTORE PUSH1 0x15 PUSH1 0x24 DUP3 ADD MSTORE PUSH21 0x14185D5CD958589B194E881B9BDD081C185D5CD959 PUSH1 0x5A SHL PUSH1 0x44 DUP3 ADD MSTORE PUSH1 0x64 ADD PUSH2 0x9C2 JUMP JUMPDEST PUSH1 0xA DUP1 SLOAD PUSH1 0xFF PUSH1 0xA0 SHL NOT AND SWAP1 SSTORE PUSH32 0x5DB9EE0A495BF2E6FF9C91A7834C1BA4FDD244A5E8AA4E537BD38AEAE4B073AA CALLER PUSH2 0x1C7B JUMP JUMPDEST PUSH1 0x0 DUP2 DUP2 MSTORE PUSH1 0x2 PUSH1 0x20 MSTORE PUSH1 0x40 DUP2 KECCAK256 SLOAD PUSH1 0x1 PUSH1 0x1 PUSH1 0xA0 SHL SUB AND PUSH2 0x1D96 JUMPI PUSH1 0x40 MLOAD PUSH3 0x461BCD PUSH1 0xE5 SHL DUP2 MSTORE PUSH1 0x20 PUSH1 0x4 DUP3 ADD MSTORE PUSH1 0x2C PUSH1 0x24 DUP3 ADD MSTORE PUSH32 0x4552433732313A206F70657261746F7220717565727920666F72206E6F6E6578 PUSH1 0x44 DUP3 ADD MSTORE PUSH12 0x34B9BA32B73A103A37B5B2B7 PUSH1 0xA1 SHL PUSH1 0x64 DUP3 ADD MSTORE PUSH1 0x84 ADD PUSH2 0x9C2 JUMP JUMPDEST PUSH1 0x0 PUSH2 0x1DA1 DUP4 PUSH2 0xF2B JUMP JUMPDEST SWAP1 POP DUP1 PUSH1 0x1 PUSH1 0x1 PUSH1 0xA0 SHL SUB AND DUP5 PUSH1 0x1 PUSH1 0x1 PUSH1 0xA0 SHL SUB AND EQ DUP1 PUSH2 0x1DDC JUMPI POP DUP4 PUSH1 0x1 PUSH1 0x1 PUSH1 0xA0 SHL SUB AND PUSH2 0x1DD1 DUP5 PUSH2 0x94D JUMP JUMPDEST PUSH1 0x1 PUSH1 0x1 PUSH1 0xA0 SHL SUB AND EQ JUMPDEST DUP1 PUSH2 0x1E0C JUMPI POP PUSH1 0x1 PUSH1 0x1 PUSH1 0xA0 SHL SUB DUP1 DUP3 AND PUSH1 0x0 SWAP1 DUP2 MSTORE PUSH1 0x5 PUSH1 0x20 SWAP1 DUP2 MSTORE PUSH1 0x40 DUP1 DUP4 KECCAK256 SWAP4 DUP9 AND DUP4 MSTORE SWAP3 SWAP1 MSTORE KECCAK256 SLOAD PUSH1 0xFF AND JUMPDEST SWAP5 SWAP4 POP POP POP POP JUMP JUMPDEST DUP3 PUSH1 0x1 PUSH1 0x1 PUSH1 0xA0 SHL SUB AND PUSH2 0x1E27 DUP3 PUSH2 0xF2B JUMP JUMPDEST PUSH1 0x1 PUSH1 0x1 PUSH1 0xA0 SHL SUB AND EQ PUSH2 0x1E8F JUMPI PUSH1 0x40 MLOAD PUSH3 0x461BCD PUSH1 0xE5 SHL DUP2 MSTORE PUSH1 0x20 PUSH1 0x4 DUP3 ADD MSTORE PUSH1 0x29 PUSH1 0x24 DUP3 ADD MSTORE PUSH32 0x4552433732313A207472616E73666572206F6620746F6B656E20746861742069 PUSH1 0x44 DUP3 ADD MSTORE PUSH9 0x39903737BA1037BBB7 PUSH1 0xB9 SHL PUSH1 0x64 DUP3 ADD MSTORE PUSH1 0x84 ADD PUSH2 0x9C2 JUMP JUMPDEST PUSH1 0x1 PUSH1 0x1 PUSH1 0xA0 SHL SUB DUP3 AND PUSH2 0x1EF1 JUMPI PUSH1 0x40 MLOAD PUSH3 0x461BCD PUSH1 0xE5 SHL DUP2 MSTORE PUSH1 0x20 PUSH1 0x4 DUP3 ADD MSTORE PUSH1 0x24 DUP1 DUP3 ADD MSTORE PUSH32 0x4552433732313A207472616E7366657220746F20746865207A65726F20616464 PUSH1 0x44 DUP3 ADD MSTORE PUSH4 0x72657373 PUSH1 0xE0 SHL PUSH1 0x64 DUP3 ADD MSTORE PUSH1 0x84 ADD PUSH2 0x9C2 JUMP JUMPDEST PUSH2 0x1EFC DUP4 DUP4 DUP4 PUSH2 0x2351 JUMP JUMPDEST PUSH2 0x1F07 PUSH1 0x0 DUP3 PUSH2 0x1B84 JUMP JUMPDEST PUSH1 0x1 PUSH1 0x1 PUSH1 0xA0 SHL SUB DUP4 AND PUSH1 0x0 SWAP1 DUP2 MSTORE PUSH1 0x3 PUSH1 0x20 MSTORE PUSH1 0x40 DUP2 KECCAK256 DUP1 SLOAD PUSH1 0x1 SWAP3 SWAP1 PUSH2 0x1F30 SWAP1 DUP5 SWAP1 PUSH2 0x2F53 JUMP JUMPDEST SWAP1 SWAP2 SSTORE POP POP PUSH1 0x1 PUSH1 0x1 PUSH1 0xA0 SHL SUB DUP3 AND PUSH1 0x0 SWAP1 DUP2 MSTORE PUSH1 0x3 PUSH1 0x20 MSTORE PUSH1 0x40 DUP2 KECCAK256 DUP1 SLOAD PUSH1 0x1 SWAP3 SWAP1 PUSH2 0x1F5E SWAP1 DUP5 SWAP1 PUSH2 0x2EE3 JUMP JUMPDEST SWAP1 SWAP2 SSTORE POP POP PUSH1 0x0 DUP2 DUP2 MSTORE PUSH1 0x2 PUSH1 0x20 MSTORE PUSH1 0x40 DUP1 DUP3 KECCAK256 DUP1 SLOAD PUSH1 0x1 PUSH1 0x1 PUSH1 0xA0 SHL SUB NOT AND PUSH1 0x1 PUSH1 0x1 PUSH1 0xA0 SHL SUB DUP7 DUP2 AND SWAP2 DUP3 OR SWAP1 SWAP3 SSTORE SWAP2 MLOAD DUP5 SWAP4 SWAP2 DUP8 AND SWAP2 PUSH32 0xDDF252AD1BE2C89B69C2B068FC378DAA952BA7F163C4A11628F55A4DF523B3EF SWAP2 LOG4 POP POP POP JUMP JUMPDEST PUSH1 0x14 SLOAD PUSH1 0x40 DUP1 MLOAD PUSH4 0x3ECA3C95 PUSH1 0xE1 SHL DUP2 MSTORE SWAP1 MLOAD PUSH1 0x0 SWAP3 PUSH1 0x1 PUSH1 0x1 PUSH1 0xA0 SHL SUB AND SWAP2 PUSH4 0x7D94792A SWAP2 PUSH1 0x4 DUP1 DUP4 ADD SWAP3 PUSH1 0x20 SWAP3 SWAP2 SWAP1 DUP3 SWAP1 SUB ADD DUP2 DUP7 DUP1 EXTCODESIZE ISZERO DUP1 ISZERO PUSH2 0x2004 JUMPI PUSH1 0x0 DUP1 REVERT JUMPDEST POP GAS STATICCALL ISZERO DUP1 ISZERO PUSH2 0x2018 JUMPI RETURNDATASIZE PUSH1 0x0 DUP1 RETURNDATACOPY RETURNDATASIZE PUSH1 0x0 REVERT JUMPDEST POP POP POP POP PUSH1 0x40 MLOAD RETURNDATASIZE PUSH1 0x1F NOT PUSH1 0x1F DUP3 ADD AND DUP3 ADD DUP1 PUSH1 0x40 MSTORE POP DUP2 ADD SWAP1 PUSH2 0x203C SWAP2 SWAP1 PUSH2 0x2C6C JUMP JUMPDEST ORIGIN PUSH2 0x2048 PUSH1 0x1 NUMBER PUSH2 0x2F53 JUMP JUMPDEST PUSH1 0x40 MLOAD PUSH1 0x60 SWAP3 SWAP1 SWAP3 SHL PUSH12 0xFFFFFFFFFFFFFFFFFFFFFFFF NOT AND PUSH1 0x20 DUP4 ADD MSTORE BLOCKHASH PUSH1 0x34 DUP3 ADD MSTORE TIMESTAMP PUSH1 0x54 DUP3 ADD MSTORE PUSH1 0x74 DUP2 ADD DUP5 SWAP1 MSTORE PUSH1 0x94 ADD PUSH1 0x40 DUP1 MLOAD PUSH1 0x1F NOT DUP2 DUP5 SUB ADD DUP2 MSTORE SWAP2 SWAP1 MSTORE DUP1 MLOAD PUSH1 0x20 SWAP1 SWAP2 ADD KECCAK256 XOR SWAP3 SWAP2 POP POP JUMP JUMPDEST PUSH2 0x20A2 PUSH2 0x2972 JUMP JUMPDEST PUSH2 0x20AB DUP3 PUSH2 0x2409 JUMP JUMPDEST SWAP1 POP PUSH1 0x10 PUSH1 0x0 PUSH2 0x20BA DUP4 PUSH2 0x2554 JUMP JUMPDEST DUP2 MSTORE PUSH1 0x20 ADD SWAP1 DUP2 MSTORE PUSH1 0x20 ADD PUSH1 0x0 KECCAK256 SLOAD PUSH1 0x0 EQ ISZERO PUSH2 0x21FC JUMPI PUSH1 0x0 DUP4 DUP2 MSTORE PUSH1 0xF PUSH1 0x20 SWAP1 DUP2 MSTORE PUSH1 0x40 DUP1 DUP4 KECCAK256 DUP5 MLOAD DUP2 SLOAD SWAP4 DUP7 ADD MLOAD SWAP3 DUP7 ADD MLOAD PUSH1 0x60 DUP8 ADD MLOAD PUSH1 0x80 DUP9 ADD MLOAD PUSH1 0xA0 DUP10 ADD MLOAD PUSH1 0xC0 DUP11 ADD MLOAD PUSH1 0xE0 DUP12 ADD MLOAD PUSH2 0x100 DUP1 DUP14 ADD MLOAD PUSH2 0xFFFF NOT SWAP1 SWAP12 AND SWAP8 ISZERO ISZERO PUSH2 0xFF00 NOT AND SWAP8 SWAP1 SWAP8 OR PUSH1 0xFF SWAP10 DUP11 AND SWAP1 SWAP8 MUL SWAP7 SWAP1 SWAP7 OR PUSH4 0xFFFF0000 NOT AND PUSH3 0x10000 SWAP6 DUP10 AND SWAP6 SWAP1 SWAP6 MUL PUSH4 0xFF000000 NOT AND SWAP5 SWAP1 SWAP5 OR PUSH4 0x1000000 SWAP4 DUP9 AND SWAP4 SWAP1 SWAP4 MUL SWAP3 SWAP1 SWAP3 OR PUSH6 0xFFFF00000000 NOT AND PUSH5 0x100000000 SWAP2 DUP8 AND SWAP2 SWAP1 SWAP2 MUL PUSH6 0xFF0000000000 NOT AND OR PUSH6 0x10000000000 SWAP2 DUP7 AND SWAP2 SWAP1 SWAP2 MUL OR PUSH8 0xFFFF000000000000 NOT AND PUSH1 0x1 PUSH1 0x30 SHL SWAP2 DUP6 AND SWAP2 SWAP1 SWAP2 MUL PUSH8 0xFF00000000000000 NOT AND OR PUSH1 0x1 PUSH1 0x38 SHL SWAP2 DUP5 AND SWAP2 SWAP1 SWAP2 MUL OR PUSH9 0xFF0000000000000000 NOT AND PUSH1 0x1 PUSH1 0x40 SHL SWAP3 SWAP1 SWAP4 AND SWAP2 SWAP1 SWAP2 MUL SWAP2 SWAP1 SWAP2 OR SWAP1 SSTORE DUP4 SWAP1 PUSH1 0x10 SWAP1 PUSH2 0x21E6 DUP5 PUSH2 0x2554 JUMP JUMPDEST DUP2 MSTORE PUSH1 0x20 DUP2 ADD SWAP2 SWAP1 SWAP2 MSTORE PUSH1 0x40 ADD PUSH1 0x0 KECCAK256 SSTORE PUSH2 0x8B5 JUMP JUMPDEST PUSH2 0x220E DUP4 PUSH2 0x2209 DUP5 PUSH2 0x1FBF JUMP JUMPDEST PUSH2 0x209A JUMP JUMPDEST SWAP4 SWAP3 POP POP POP JUMP JUMPDEST PUSH1 0xD SLOAD PUSH1 0xE SLOAD PUSH1 0x0 SWAP2 PUSH2 0xFFFF SWAP1 SWAP2 AND GT ISZERO DUP1 PUSH2 0x223E JUMPI POP PUSH2 0x223B PUSH1 0xA PUSH1 0xF5 DUP5 SWAP1 SHR PUSH2 0x3008 JUMP JUMPDEST ISZERO ISZERO JUMPDEST ISZERO PUSH2 0x2249 JUMPI CALLER PUSH2 0x8B5 JUMP JUMPDEST PUSH1 0x11 SLOAD PUSH1 0x40 MLOAD PUSH4 0x4F36F725 PUSH1 0xE1 SHL DUP2 MSTORE PUSH1 0x90 DUP5 SWAP1 SHR PUSH1 0x4 DUP3 ADD MSTORE PUSH1 0x0 SWAP2 PUSH1 0x1 PUSH1 0x1 PUSH1 0xA0 SHL SUB AND SWAP1 PUSH4 0x9E6DEE4A SWAP1 PUSH1 0x24 ADD PUSH1 0x20 PUSH1 0x40 MLOAD DUP1 DUP4 SUB DUP2 DUP7 DUP1 EXTCODESIZE ISZERO DUP1 ISZERO PUSH2 0x2291 JUMPI PUSH1 0x0 DUP1 REVERT JUMPDEST POP GAS STATICCALL ISZERO DUP1 ISZERO PUSH2 0x22A5 JUMPI RETURNDATASIZE PUSH1 0x0 DUP1 RETURNDATACOPY RETURNDATASIZE PUSH1 0x0 REVERT JUMPDEST POP POP POP POP PUSH1 0x40 MLOAD RETURNDATASIZE PUSH1 0x1F NOT PUSH1 0x1F DUP3 ADD AND DUP3 ADD DUP1 PUSH1 0x40 MSTORE POP DUP2 ADD SWAP1 PUSH2 0x22C9 SWAP2 SWAP1 PUSH2 0x29F0 JUMP JUMPDEST SWAP1 POP PUSH1 0x1 PUSH1 0x1 PUSH1 0xA0 SHL SUB DUP2 AND PUSH2 0x8B5 JUMPI CALLER SWAP4 SWAP3 POP POP POP JUMP JUMPDEST PUSH2 0x22FB DUP3 DUP3 PUSH1 0x40 MLOAD DUP1 PUSH1 0x20 ADD PUSH1 0x40 MSTORE DUP1 PUSH1 0x0 DUP2 MSTORE POP PUSH2 0x2601 JUMP JUMPDEST POP POP JUMP JUMPDEST PUSH1 0xA DUP1 SLOAD PUSH1 0x1 PUSH1 0x1 PUSH1 0xA0 SHL SUB DUP4 DUP2 AND PUSH1 0x1 PUSH1 0x1 PUSH1 0xA0 SHL SUB NOT DUP4 AND DUP2 OR SWAP1 SWAP4 SSTORE PUSH1 0x40 MLOAD SWAP2 AND SWAP2 SWAP1 DUP3 SWAP1 PUSH32 0x8BE0079C531659141344CD1FD0A4F28419497F9722A3DAAFE3B4186F6B6457E0 SWAP1 PUSH1 0x0 SWAP1 LOG3 POP POP JUMP JUMPDEST PUSH1 0x1 PUSH1 0x1 PUSH1 0xA0 SHL SUB DUP4 AND PUSH2 0x23AC JUMPI PUSH2 0x23A7 DUP2 PUSH1 0x8 DUP1 SLOAD PUSH1 0x0 DUP4 DUP2 MSTORE PUSH1 0x9 PUSH1 0x20 MSTORE PUSH1 0x40 DUP2 KECCAK256 DUP3 SWAP1 SSTORE PUSH1 0x1 DUP3 ADD DUP4 SSTORE SWAP2 SWAP1 SWAP2 MSTORE PUSH32 0xF3F7A9FE364FAAB93B216DA50A3214154F22A0A2B415B23A84C8169E8B636EE3 ADD SSTORE JUMP JUMPDEST PUSH2 0x23CF JUMP JUMPDEST DUP2 PUSH1 0x1 PUSH1 0x1 PUSH1 0xA0 SHL SUB AND DUP4 PUSH1 0x1 PUSH1 0x1 PUSH1 0xA0 SHL SUB AND EQ PUSH2 0x23CF JUMPI PUSH2 0x23CF DUP4 DUP3 PUSH2 0x260B JUMP JUMPDEST PUSH1 0x1 PUSH1 0x1 PUSH1 0xA0 SHL SUB DUP3 AND PUSH2 0x23E6 JUMPI PUSH2 0xB44 DUP2 PUSH2 0x26A8 JUMP JUMPDEST DUP3 PUSH1 0x1 PUSH1 0x1 PUSH1 0xA0 SHL SUB AND DUP3 PUSH1 0x1 PUSH1 0x1 PUSH1 0xA0 SHL SUB AND EQ PUSH2 0xB44 JUMPI PUSH2 0xB44 DUP3 DUP3 PUSH2 0x2757 JUMP JUMPDEST PUSH2 0x2411 PUSH2 0x2972 JUMP JUMPDEST PUSH2 0x2420 PUSH1 0xA PUSH2 0xFFFF DUP5 AND PUSH2 0x3008 JUMP JUMPDEST ISZERO ISZERO DUP1 DUP3 MSTORE PUSH1 0x0 SWAP1 PUSH2 0x2433 JUMPI PUSH1 0xA PUSH2 0x2436 JUMP JUMPDEST PUSH1 0x0 JUMPDEST PUSH1 0x10 SWAP4 SWAP1 SWAP4 SHR SWAP3 SWAP1 POP PUSH2 0x2457 PUSH2 0xFFFF DUP5 AND PUSH2 0x2452 DUP4 PUSH1 0x0 PUSH2 0x2EFB JUMP JUMPDEST PUSH2 0x279B JUMP JUMPDEST PUSH1 0xFF AND PUSH1 0x20 DUP4 ADD MSTORE PUSH1 0x10 SWAP3 SWAP1 SWAP3 SHR SWAP2 PUSH2 0x2479 PUSH2 0xFFFF DUP5 AND PUSH2 0x2452 DUP4 PUSH1 0x1 PUSH2 0x2EFB JUMP JUMPDEST PUSH1 0xFF AND PUSH1 0x40 DUP4 ADD MSTORE PUSH1 0x10 SWAP3 SWAP1 SWAP3 SHR SWAP2 PUSH2 0x249B PUSH2 0xFFFF DUP5 AND PUSH2 0x2452 DUP4 PUSH1 0x2 PUSH2 0x2EFB JUMP JUMPDEST PUSH1 0xFF AND PUSH1 0x80 DUP4 ADD MSTORE PUSH1 0x10 SWAP3 SWAP1 SWAP3 SHR SWAP2 PUSH2 0x24BD PUSH2 0xFFFF DUP5 AND PUSH2 0x2452 DUP4 PUSH1 0x3 PUSH2 0x2EFB JUMP JUMPDEST PUSH1 0xFF AND PUSH1 0x60 DUP4 ADD MSTORE PUSH1 0x10 SWAP3 SWAP1 SWAP3 SHR SWAP2 PUSH2 0x24DF PUSH2 0xFFFF DUP5 AND PUSH2 0x2452 DUP4 PUSH1 0x4 PUSH2 0x2EFB JUMP JUMPDEST PUSH1 0xFF AND PUSH1 0xE0 DUP4 ADD MSTORE PUSH1 0x10 SWAP3 SWAP1 SWAP3 SHR SWAP2 PUSH2 0x2501 PUSH2 0xFFFF DUP5 AND PUSH2 0x2452 DUP4 PUSH1 0x5 PUSH2 0x2EFB JUMP JUMPDEST PUSH1 0xFF AND PUSH1 0xA0 DUP4 ADD MSTORE DUP2 MLOAD PUSH1 0x10 SWAP4 SWAP1 SWAP4 SHR SWAP3 PUSH2 0x254E JUMPI PUSH2 0x2529 PUSH2 0xFFFF DUP5 AND PUSH2 0x2452 DUP4 PUSH1 0x6 PUSH2 0x2EFB JUMP JUMPDEST PUSH1 0xFF AND PUSH1 0xC0 DUP4 ADD MSTORE PUSH2 0x2544 PUSH2 0xFFFF DUP5 AND PUSH2 0x2452 DUP4 PUSH1 0x7 PUSH2 0x2EFB JUMP JUMPDEST PUSH1 0xFF AND PUSH2 0x100 DUP4 ADD MSTORE JUMPDEST POP SWAP2 SWAP1 POP JUMP JUMPDEST DUP1 MLOAD PUSH1 0x20 DUP1 DUP4 ADD MLOAD PUSH1 0x40 DUP1 DUP6 ADD MLOAD PUSH1 0x80 DUP7 ADD MLOAD PUSH1 0x60 DUP8 ADD MLOAD PUSH1 0xA0 DUP9 ADD MLOAD PUSH1 0xE0 DUP10 ADD MLOAD PUSH1 0xC0 DUP11 ADD MLOAD PUSH2 0x100 SWAP1 SWAP11 ADD MLOAD DUP7 MLOAD SWAP10 ISZERO ISZERO PUSH1 0xF8 SWAP1 DUP2 SHL DUP12 DUP12 ADD MSTORE PUSH1 0x1 PUSH1 0x1 PUSH1 0xF8 SHL SUB NOT SWAP9 DUP2 SHL DUP10 AND PUSH1 0x21 DUP13 ADD MSTORE SWAP6 DUP7 SHL DUP9 AND PUSH1 0x22 DUP12 ADD MSTORE SWAP4 DUP6 SHL DUP8 AND PUSH1 0x23 DUP11 ADD MSTORE SWAP2 DUP5 SHL DUP7 AND PUSH1 0x24 DUP10 ADD MSTORE DUP4 SHL DUP6 AND PUSH1 0x25 DUP9 ADD MSTORE DUP3 SHL DUP5 AND PUSH1 0x26 DUP8 ADD MSTORE SWAP6 DUP2 SHL DUP4 AND PUSH1 0x27 DUP7 ADD MSTORE SWAP5 SWAP1 SWAP5 SHL AND PUSH1 0x28 DUP4 ADD MSTORE DUP3 MLOAD DUP1 DUP4 SUB PUSH1 0x9 ADD DUP2 MSTORE PUSH1 0x29 SWAP1 SWAP3 ADD SWAP1 SWAP3 MSTORE DUP1 MLOAD SWAP2 ADD KECCAK256 SWAP1 JUMP JUMPDEST PUSH2 0xB44 DUP4 DUP4 PUSH2 0x2824 JUMP JUMPDEST PUSH1 0x0 PUSH1 0x1 PUSH2 0x2618 DUP5 PUSH2 0x16E9 JUMP JUMPDEST PUSH2 0x2622 SWAP2 SWAP1 PUSH2 0x2F53 JUMP JUMPDEST PUSH1 0x0 DUP4 DUP2 MSTORE PUSH1 0x7 PUSH1 0x20 MSTORE PUSH1 0x40 SWAP1 KECCAK256 SLOAD SWAP1 SWAP2 POP DUP1 DUP3 EQ PUSH2 0x2675 JUMPI PUSH1 0x1 PUSH1 0x1 PUSH1 0xA0 SHL SUB DUP5 AND PUSH1 0x0 SWAP1 DUP2 MSTORE PUSH1 0x6 PUSH1 0x20 SWAP1 DUP2 MSTORE PUSH1 0x40 DUP1 DUP4 KECCAK256 DUP6 DUP5 MSTORE DUP3 MSTORE DUP1 DUP4 KECCAK256 SLOAD DUP5 DUP5 MSTORE DUP2 DUP5 KECCAK256 DUP2 SWAP1 SSTORE DUP4 MSTORE PUSH1 0x7 SWAP1 SWAP2 MSTORE SWAP1 KECCAK256 DUP2 SWAP1 SSTORE JUMPDEST POP PUSH1 0x0 SWAP2 DUP3 MSTORE PUSH1 0x7 PUSH1 0x20 SWAP1 DUP2 MSTORE PUSH1 0x40 DUP1 DUP5 KECCAK256 DUP5 SWAP1 SSTORE PUSH1 0x1 PUSH1 0x1 PUSH1 0xA0 SHL SUB SWAP1 SWAP5 AND DUP4 MSTORE PUSH1 0x6 DUP2 MSTORE DUP4 DUP4 KECCAK256 SWAP2 DUP4 MSTORE MSTORE SWAP1 DUP2 KECCAK256 SSTORE JUMP JUMPDEST PUSH1 0x8 SLOAD PUSH1 0x0 SWAP1 PUSH2 0x26BA SWAP1 PUSH1 0x1 SWAP1 PUSH2 0x2F53 JUMP JUMPDEST PUSH1 0x0 DUP4 DUP2 MSTORE PUSH1 0x9 PUSH1 0x20 MSTORE PUSH1 0x40 DUP2 KECCAK256 SLOAD PUSH1 0x8 DUP1 SLOAD SWAP4 SWAP5 POP SWAP1 SWAP3 DUP5 SWAP1 DUP2 LT PUSH2 0x26E2 JUMPI PUSH2 0x26E2 PUSH2 0x305E JUMP JUMPDEST SWAP1 PUSH1 0x0 MSTORE PUSH1 0x20 PUSH1 0x0 KECCAK256 ADD SLOAD SWAP1 POP DUP1 PUSH1 0x8 DUP4 DUP2 SLOAD DUP2 LT PUSH2 0x2703 JUMPI PUSH2 0x2703 PUSH2 0x305E JUMP JUMPDEST PUSH1 0x0 SWAP2 DUP3 MSTORE PUSH1 0x20 DUP1 DUP4 KECCAK256 SWAP1 SWAP2 ADD SWAP3 SWAP1 SWAP3 SSTORE DUP3 DUP2 MSTORE PUSH1 0x9 SWAP1 SWAP2 MSTORE PUSH1 0x40 DUP1 DUP3 KECCAK256 DUP5 SWAP1 SSTORE DUP6 DUP3 MSTORE DUP2 KECCAK256 SSTORE PUSH1 0x8 DUP1 SLOAD DUP1 PUSH2 0x273B JUMPI PUSH2 0x273B PUSH2 0x3048 JUMP JUMPDEST PUSH1 0x1 SWAP1 SUB DUP2 DUP2 SWAP1 PUSH1 0x0 MSTORE PUSH1 0x20 PUSH1 0x0 KECCAK256 ADD PUSH1 0x0 SWAP1 SSTORE SWAP1 SSTORE POP POP POP POP JUMP JUMPDEST PUSH1 0x0 PUSH2 0x2762 DUP4 PUSH2 0x16E9 JUMP JUMPDEST PUSH1 0x1 PUSH1 0x1 PUSH1 0xA0 SHL SUB SWAP1 SWAP4 AND PUSH1 0x0 SWAP1 DUP2 MSTORE PUSH1 0x6 PUSH1 0x20 SWAP1 DUP2 MSTORE PUSH1 0x40 DUP1 DUP4 KECCAK256 DUP7 DUP5 MSTORE DUP3 MSTORE DUP1 DUP4 KECCAK256 DUP6 SWAP1 SSTORE SWAP4 DUP3 MSTORE PUSH1 0x7 SWAP1 MSTORE SWAP2 SWAP1 SWAP2 KECCAK256 SWAP2 SWAP1 SWAP2 SSTORE POP JUMP JUMPDEST PUSH1 0x13 SLOAD PUSH1 0x40 MLOAD PUSH4 0x53584B49 PUSH1 0xE1 SHL DUP2 MSTORE PUSH2 0xFFFF DUP5 AND PUSH1 0x4 DUP3 ADD MSTORE PUSH1 0xFF DUP4 AND PUSH1 0x24 DUP3 ADD MSTORE PUSH1 0x0 SWAP2 PUSH1 0x1 PUSH1 0x1 PUSH1 0xA0 SHL SUB AND SWAP1 PUSH4 0xA6B09692 SWAP1 PUSH1 0x44 ADD PUSH1 0x20 PUSH1 0x40 MLOAD DUP1 DUP4 SUB DUP2 DUP7 DUP1 EXTCODESIZE ISZERO DUP1 ISZERO PUSH2 0x27EC JUMPI PUSH1 0x0 DUP1 REVERT JUMPDEST POP GAS STATICCALL ISZERO DUP1 ISZERO PUSH2 0x2800 JUMPI RETURNDATASIZE PUSH1 0x0 DUP1 RETURNDATACOPY RETURNDATASIZE PUSH1 0x0 REVERT JUMPDEST POP POP POP POP PUSH1 0x40 MLOAD RETURNDATASIZE PUSH1 0x1F NOT PUSH1 0x1F DUP3 ADD AND DUP3 ADD DUP1 PUSH1 0x40 MSTORE POP DUP2 ADD SWAP1 PUSH2 0x220E SWAP2 SWAP1 PUSH2 0x2CA8 JUMP JUMPDEST PUSH1 0x1 PUSH1 0x1 PUSH1 0xA0 SHL SUB DUP3 AND PUSH2 0x287A JUMPI PUSH1 0x40 MLOAD PUSH3 0x461BCD PUSH1 0xE5 SHL DUP2 MSTORE PUSH1 0x20 PUSH1 0x4 DUP3 ADD DUP2 SWAP1 MSTORE PUSH1 0x24 DUP3 ADD MSTORE PUSH32 0x4552433732313A206D696E7420746F20746865207A65726F2061646472657373 PUSH1 0x44 DUP3 ADD MSTORE PUSH1 0x64 ADD PUSH2 0x9C2 JUMP JUMPDEST PUSH1 0x0 DUP2 DUP2 MSTORE PUSH1 0x2 PUSH1 0x20 MSTORE PUSH1 0x40 SWAP1 KECCAK256 SLOAD PUSH1 0x1 PUSH1 0x1 PUSH1 0xA0 SHL SUB AND ISZERO PUSH2 0x28DF JUMPI PUSH1 0x40 MLOAD PUSH3 0x461BCD PUSH1 0xE5 SHL DUP2 MSTORE PUSH1 0x20 PUSH1 0x4 DUP3 ADD MSTORE PUSH1 0x1C PUSH1 0x24 DUP3 ADD MSTORE PUSH32 0x4552433732313A20746F6B656E20616C7265616479206D696E74656400000000 PUSH1 0x44 DUP3 ADD MSTORE PUSH1 0x64 ADD PUSH2 0x9C2 JUMP JUMPDEST PUSH2 0x28EB PUSH1 0x0 DUP4 DUP4 PUSH2 0x2351 JUMP JUMPDEST PUSH1 0x1 PUSH1 0x1 PUSH1 0xA0 SHL SUB DUP3 AND PUSH1 0x0 SWAP1 DUP2 MSTORE PUSH1 0x3 PUSH1 0x20 MSTORE PUSH1 0x40 DUP2 KECCAK256 DUP1 SLOAD PUSH1 0x1 SWAP3 SWAP1 PUSH2 0x2914 SWAP1 DUP5 SWAP1 PUSH2 0x2EE3 JUMP JUMPDEST SWAP1 SWAP2 SSTORE POP POP PUSH1 0x0 DUP2 DUP2 MSTORE PUSH1 0x2 PUSH1 0x20 MSTORE PUSH1 0x40 DUP1 DUP3 KECCAK256 DUP1 SLOAD PUSH1 0x1 PUSH1 0x1 PUSH1 0xA0 SHL SUB NOT AND PUSH1 0x1 PUSH1 0x1 PUSH1 0xA0 SHL SUB DUP7 AND SWAP1 DUP2 OR SWAP1 SWAP2 SSTORE SWAP1 MLOAD DUP4 SWAP3 SWAP1 PUSH32 0xDDF252AD1BE2C89B69C2B068FC378DAA952BA7F163C4A11628F55A4DF523B3EF SWAP1 DUP3 SWAP1 LOG4 POP POP JUMP JUMPDEST PUSH1 0x40 DUP1 MLOAD PUSH2 0x120 DUP2 ADD DUP3 MSTORE PUSH1 0x0 DUP1 DUP3 MSTORE PUSH1 0x20 DUP3 ADD DUP2 SWAP1 MSTORE SWAP2 DUP2 ADD DUP3 SWAP1 MSTORE PUSH1 0x60 DUP2 ADD DUP3 SWAP1 MSTORE PUSH1 0x80 DUP2 ADD DUP3 SWAP1 MSTORE PUSH1 0xA0 DUP2 ADD DUP3 SWAP1 MSTORE PUSH1 0xC0 DUP2 ADD DUP3 SWAP1 MSTORE PUSH1 0xE0 DUP2 ADD DUP3 SWAP1 MSTORE PUSH2 0x100 DUP2 ADD SWAP2 SWAP1 SWAP2 MSTORE SWAP1 JUMP JUMPDEST DUP1 CALLDATALOAD DUP1 ISZERO ISZERO DUP2 EQ PUSH2 0x29CE JUMPI PUSH1 0x0 DUP1 REVERT JUMPDEST SWAP2 SWAP1 POP JUMP JUMPDEST PUSH1 0x0 PUSH1 0x20 DUP3 DUP5 SUB SLT ISZERO PUSH2 0x29E5 JUMPI PUSH1 0x0 DUP1 REVERT JUMPDEST DUP2 CALLDATALOAD PUSH2 0x220E DUP2 PUSH2 0x308A JUMP JUMPDEST PUSH1 0x0 PUSH1 0x20 DUP3 DUP5 SUB SLT ISZERO PUSH2 0x2A02 JUMPI PUSH1 0x0 DUP1 REVERT JUMPDEST DUP2 MLOAD PUSH2 0x220E DUP2 PUSH2 0x308A JUMP JUMPDEST PUSH1 0x0 DUP1 PUSH1 0x40 DUP4 DUP6 SUB SLT ISZERO PUSH2 0x2A20 JUMPI PUSH1 0x0 DUP1 REVERT JUMPDEST DUP3 CALLDATALOAD PUSH2 0x2A2B DUP2 PUSH2 0x308A JUMP JUMPDEST SWAP2 POP PUSH1 0x20 DUP4 ADD CALLDATALOAD PUSH2 0x2A3B DUP2 PUSH2 0x308A JUMP JUMPDEST DUP1 SWAP2 POP POP SWAP3 POP SWAP3 SWAP1 POP JUMP JUMPDEST PUSH1 0x0 DUP1 PUSH1 0x0 PUSH1 0x60 DUP5 DUP7 SUB SLT ISZERO PUSH2 0x2A5B JUMPI PUSH1 0x0 DUP1 REVERT JUMPDEST DUP4 CALLDATALOAD PUSH2 0x2A66 DUP2 PUSH2 0x308A JUMP JUMPDEST SWAP3 POP PUSH1 0x20 DUP5 ADD CALLDATALOAD PUSH2 0x2A76 DUP2 PUSH2 0x308A JUMP JUMPDEST SWAP3 SWAP6 SWAP3 SWAP5 POP POP POP PUSH1 0x40 SWAP2 SWAP1 SWAP2 ADD CALLDATALOAD SWAP1 JUMP JUMPDEST PUSH1 0x0 DUP1 PUSH1 0x0 DUP1 PUSH1 0x80 DUP6 DUP8 SUB SLT ISZERO PUSH2 0x2A9D JUMPI PUSH1 0x0 DUP1 REVERT JUMPDEST DUP5 CALLDATALOAD PUSH2 0x2AA8 DUP2 PUSH2 0x308A JUMP JUMPDEST SWAP4 POP PUSH1 0x20 DUP6 ADD CALLDATALOAD PUSH2 0x2AB8 DUP2 PUSH2 0x308A JUMP JUMPDEST SWAP3 POP PUSH1 0x40 DUP6 ADD CALLDATALOAD SWAP2 POP PUSH1 0x60 DUP6 ADD CALLDATALOAD PUSH8 0xFFFFFFFFFFFFFFFF DUP2 GT ISZERO PUSH2 0x2ADB JUMPI PUSH1 0x0 DUP1 REVERT JUMPDEST DUP6 ADD PUSH1 0x1F DUP2 ADD DUP8 SGT PUSH2 0x2AEC JUMPI PUSH1 0x0 DUP1 REVERT JUMPDEST DUP1 CALLDATALOAD PUSH2 0x2AFF PUSH2 0x2AFA DUP3 PUSH2 0x2EBB JUMP JUMPDEST PUSH2 0x2E8A JUMP JUMPDEST DUP2 DUP2 MSTORE DUP9 PUSH1 0x20 DUP4 DUP6 ADD ADD GT ISZERO PUSH2 0x2B14 JUMPI PUSH1 0x0 DUP1 REVERT JUMPDEST DUP2 PUSH1 0x20 DUP5 ADD PUSH1 0x20 DUP4 ADD CALLDATACOPY PUSH1 0x0 PUSH1 0x20 DUP4 DUP4 ADD ADD MSTORE DUP1 SWAP4 POP POP POP POP SWAP3 SWAP6 SWAP2 SWAP5 POP SWAP3 POP JUMP JUMPDEST PUSH1 0x0 DUP1 PUSH1 0x40 DUP4 DUP6 SUB SLT ISZERO PUSH2 0x2B49 JUMPI PUSH1 0x0 DUP1 REVERT JUMPDEST DUP3 CALLDATALOAD PUSH2 0x2B54 DUP2 PUSH2 0x308A JUMP JUMPDEST SWAP2 POP PUSH2 0x2B62 PUSH1 0x20 DUP5 ADD PUSH2 0x29BE JUMP JUMPDEST SWAP1 POP SWAP3 POP SWAP3 SWAP1 POP JUMP JUMPDEST PUSH1 0x0 DUP1 PUSH1 0x40 DUP4 DUP6 SUB SLT ISZERO PUSH2 0x2B7E JUMPI PUSH1 0x0 DUP1 REVERT JUMPDEST DUP3 CALLDATALOAD PUSH2 0x2B89 DUP2 PUSH2 0x308A JUMP JUMPDEST SWAP5 PUSH1 0x20 SWAP4 SWAP1 SWAP4 ADD CALLDATALOAD SWAP4 POP POP POP JUMP JUMPDEST PUSH1 0x0 PUSH1 0x20 DUP3 DUP5 SUB SLT ISZERO PUSH2 0x2BA9 JUMPI PUSH1 0x0 DUP1 REVERT JUMPDEST PUSH2 0x220E DUP3 PUSH2 0x29BE JUMP JUMPDEST PUSH1 0x0 PUSH1 0x20 DUP3 DUP5 SUB SLT ISZERO PUSH2 0x2BC4 JUMPI PUSH1 0x0 DUP1 REVERT JUMPDEST DUP2 CALLDATALOAD PUSH1 0x1 PUSH1 0x1 PUSH1 0xE0 SHL SUB NOT DUP2 AND DUP2 EQ PUSH2 0x220E JUMPI PUSH1 0x0 DUP1 REVERT JUMPDEST PUSH1 0x0 PUSH1 0x20 DUP3 DUP5 SUB SLT ISZERO PUSH2 0x2BEE JUMPI PUSH1 0x0 DUP1 REVERT JUMPDEST DUP2 MLOAD PUSH8 0xFFFFFFFFFFFFFFFF DUP2 GT ISZERO PUSH2 0x2C05 JUMPI PUSH1 0x0 DUP1 REVERT JUMPDEST DUP3 ADD PUSH1 0x1F DUP2 ADD DUP5 SGT PUSH2 0x2C16 JUMPI PUSH1 0x0 DUP1 REVERT JUMPDEST DUP1 MLOAD PUSH2 0x2C24 PUSH2 0x2AFA DUP3 PUSH2 0x2EBB JUMP JUMPDEST DUP2 DUP2 MSTORE DUP6 PUSH1 0x20 DUP4 DUP6 ADD ADD GT ISZERO PUSH2 0x2C39 JUMPI PUSH1 0x0 DUP1 REVERT JUMPDEST PUSH2 0x2C4A DUP3 PUSH1 0x20 DUP4 ADD PUSH1 0x20 DUP7 ADD PUSH2 0x2F6A JUMP JUMPDEST SWAP6 SWAP5 POP POP POP POP POP JUMP JUMPDEST PUSH1 0x0 PUSH1 0x20 DUP3 DUP5 SUB SLT ISZERO PUSH2 0x2C65 JUMPI PUSH1 0x0 DUP1 REVERT JUMPDEST POP CALLDATALOAD SWAP2 SWAP1 POP JUMP JUMPDEST PUSH1 0x0 PUSH1 0x20 DUP3 DUP5 SUB SLT ISZERO PUSH2 0x2C7E JUMPI PUSH1 0x0 DUP1 REVERT JUMPDEST POP MLOAD SWAP2 SWAP1 POP JUMP JUMPDEST PUSH1 0x0 DUP1 PUSH1 0x40 DUP4 DUP6 SUB SLT ISZERO PUSH2 0x2C98 JUMPI PUSH1 0x0 DUP1 REVERT JUMPDEST DUP3 CALLDATALOAD SWAP2 POP PUSH2 0x2B62 PUSH1 0x20 DUP5 ADD PUSH2 0x29BE JUMP JUMPDEST PUSH1 0x0 PUSH1 0x20 DUP3 DUP5 SUB SLT ISZERO PUSH2 0x2CBA JUMPI PUSH1 0x0 DUP1 REVERT JUMPDEST DUP2 MLOAD PUSH1 0xFF DUP2 AND DUP2 EQ PUSH2 0x220E JUMPI PUSH1 0x0 DUP1 REVERT JUMPDEST PUSH1 0x1 PUSH1 0x1 PUSH1 0xA0 SHL SUB DUP4 AND DUP2 MSTORE PUSH1 0x40 PUSH1 0x20 DUP1 DUP4 ADD DUP3 SWAP1 MSTORE DUP4 MLOAD SWAP2 DUP4 ADD DUP3 SWAP1 MSTORE PUSH1 0x0 SWAP2 DUP5 DUP3 ADD SWAP2 SWAP1 PUSH1 0x60 DUP6 ADD SWAP1 DUP5 JUMPDEST DUP2 DUP2 LT ISZERO PUSH2 0x2D18 JUMPI DUP5 MLOAD PUSH2 0xFFFF AND DUP4 MSTORE SWAP4 DUP4 ADD SWAP4 SWAP2 DUP4 ADD SWAP2 PUSH1 0x1 ADD PUSH2 0x2CF8 JUMP JUMPDEST POP SWAP1 SWAP8 SWAP7 POP POP POP POP POP POP POP JUMP JUMPDEST PUSH1 0x20 DUP2 MSTORE PUSH1 0x0 DUP3 MLOAD DUP1 PUSH1 0x20 DUP5 ADD MSTORE PUSH2 0x2D44 DUP2 PUSH1 0x40 DUP6 ADD PUSH1 0x20 DUP8 ADD PUSH2 0x2F6A JUMP JUMPDEST PUSH1 0x1F ADD PUSH1 0x1F NOT AND SWAP2 SWAP1 SWAP2 ADD PUSH1 0x40 ADD SWAP3 SWAP2 POP POP JUMP JUMPDEST PUSH1 0x20 DUP1 DUP3 MSTORE DUP2 DUP2 ADD MSTORE PUSH32 0x4F776E61626C653A2063616C6C6572206973206E6F7420746865206F776E6572 PUSH1 0x40 DUP3 ADD MSTORE PUSH1 0x60 ADD SWAP1 JUMP JUMPDEST PUSH1 0x20 DUP1 DUP3 MSTORE PUSH1 0x31 SWAP1 DUP3 ADD MSTORE PUSH32 0x4552433732313A207472616E736665722063616C6C6572206973206E6F74206F PUSH1 0x40 DUP3 ADD MSTORE PUSH17 0x1DDB995C881B9BDC88185C1C1C9BDD9959 PUSH1 0x7A SHL PUSH1 0x60 DUP3 ADD MSTORE PUSH1 0x80 ADD SWAP1 JUMP JUMPDEST PUSH1 0x0 PUSH2 0x120 DUP3 ADD SWAP1 POP DUP3 MLOAD ISZERO ISZERO DUP3 MSTORE PUSH1 0xFF PUSH1 0x20 DUP5 ADD MLOAD AND PUSH1 0x20 DUP4 ADD MSTORE PUSH1 0x40 DUP4 ADD MLOAD PUSH2 0x2E0E PUSH1 0x40 DUP5 ADD DUP3 PUSH1 0xFF AND SWAP1 MSTORE JUMP JUMPDEST POP PUSH1 0x60 DUP4 ADD MLOAD PUSH2 0x2E23 PUSH1 0x60 DUP5 ADD DUP3 PUSH1 0xFF AND SWAP1 MSTORE JUMP JUMPDEST POP PUSH1 0x80 DUP4 ADD MLOAD PUSH2 0x2E38 PUSH1 0x80 DUP5 ADD DUP3 PUSH1 0xFF AND SWAP1 MSTORE JUMP JUMPDEST POP PUSH1 0xA0 DUP4 ADD MLOAD PUSH2 0x2E4D PUSH1 0xA0 DUP5 ADD DUP3 PUSH1 0xFF AND SWAP1 MSTORE JUMP JUMPDEST POP PUSH1 0xC0 DUP4 ADD MLOAD PUSH2 0x2E62 PUSH1 0xC0 DUP5 ADD DUP3 PUSH1 0xFF AND SWAP1 MSTORE JUMP JUMPDEST POP PUSH1 0xE0 DUP4 ADD MLOAD PUSH2 0x2E77 PUSH1 0xE0 DUP5 ADD DUP3 PUSH1 0xFF AND SWAP1 MSTORE JUMP JUMPDEST POP PUSH2 0x100 SWAP3 DUP4 ADD MLOAD PUSH1 0xFF AND SWAP2 SWAP1 SWAP3 ADD MSTORE SWAP1 JUMP JUMPDEST PUSH1 0x40 MLOAD PUSH1 0x1F DUP3 ADD PUSH1 0x1F NOT AND DUP2 ADD PUSH8 0xFFFFFFFFFFFFFFFF DUP2 GT DUP3 DUP3 LT OR ISZERO PUSH2 0x2EB3 JUMPI PUSH2 0x2EB3 PUSH2 0x3074 JUMP JUMPDEST PUSH1 0x40 MSTORE SWAP2 SWAP1 POP JUMP JUMPDEST PUSH1 0x0 PUSH8 0xFFFFFFFFFFFFFFFF DUP3 GT ISZERO PUSH2 0x2ED5 JUMPI PUSH2 0x2ED5 PUSH2 0x3074 JUMP JUMPDEST POP PUSH1 0x1F ADD PUSH1 0x1F NOT AND PUSH1 0x20 ADD SWAP1 JUMP JUMPDEST PUSH1 0x0 DUP3 NOT DUP3 GT ISZERO PUSH2 0x2EF6 JUMPI PUSH2 0x2EF6 PUSH2 0x301C JUMP JUMPDEST POP ADD SWAP1 JUMP JUMPDEST PUSH1 0x0 PUSH1 0xFF DUP3 AND PUSH1 0xFF DUP5 AND DUP1 PUSH1 0xFF SUB DUP3 GT ISZERO PUSH2 0x2F18 JUMPI PUSH2 0x2F18 PUSH2 0x301C JUMP JUMPDEST ADD SWAP4 SWAP3 POP POP POP JUMP JUMPDEST PUSH1 0x0 DUP3 PUSH2 0x2F2F JUMPI PUSH2 0x2F2F PUSH2 0x3032 JUMP JUMPDEST POP DIV SWAP1 JUMP JUMPDEST PUSH1 0x0 DUP2 PUSH1 0x0 NOT DIV DUP4 GT DUP3 ISZERO ISZERO AND ISZERO PUSH2 0x2F4E JUMPI PUSH2 0x2F4E PUSH2 0x301C JUMP JUMPDEST POP MUL SWAP1 JUMP JUMPDEST PUSH1 0x0 DUP3 DUP3 LT ISZERO PUSH2 0x2F65 JUMPI PUSH2 0x2F65 PUSH2 0x301C JUMP JUMPDEST POP SUB SWAP1 JUMP JUMPDEST PUSH1 0x0 JUMPDEST DUP4 DUP2 LT ISZERO PUSH2 0x2F85 JUMPI DUP2 DUP2 ADD MLOAD DUP4 DUP3 ADD MSTORE PUSH1 0x20 ADD PUSH2 0x2F6D JUMP JUMPDEST DUP4 DUP2 GT ISZERO PUSH2 0x194B JUMPI POP POP PUSH1 0x0 SWAP2 ADD MSTORE JUMP JUMPDEST PUSH1 0x1 DUP2 DUP2 SHR SWAP1 DUP3 AND DUP1 PUSH2 0x2FAA JUMPI PUSH1 0x7F DUP3 AND SWAP2 POP JUMPDEST PUSH1 0x20 DUP3 LT DUP2 EQ ISZERO PUSH2 0x254E JUMPI PUSH4 0x4E487B71 PUSH1 0xE0 SHL PUSH1 0x0 MSTORE PUSH1 0x22 PUSH1 0x4 MSTORE PUSH1 0x24 PUSH1 0x0 REVERT JUMPDEST PUSH1 0x0 PUSH2 0xFFFF DUP1 DUP4 AND DUP2 DUP2 EQ ISZERO PUSH2 0x2FE3 JUMPI PUSH2 0x2FE3 PUSH2 0x301C JUMP JUMPDEST PUSH1 0x1 ADD SWAP4 SWAP3 POP POP POP JUMP JUMPDEST PUSH1 0x0 PUSH1 0x0 NOT DUP3 EQ ISZERO PUSH2 0x3001 JUMPI PUSH2 0x3001 PUSH2 0x301C JUMP JUMPDEST POP PUSH1 0x1 ADD SWAP1 JUMP JUMPDEST PUSH1 0x0 DUP3 PUSH2 0x3017 JUMPI PUSH2 0x3017 PUSH2 0x3032 JUMP JUMPDEST POP MOD SWAP1 JUMP JUMPDEST PUSH4 0x4E487B71 PUSH1 0xE0 SHL PUSH1 0x0 MSTORE PUSH1 0x11 PUSH1 0x4 MSTORE PUSH1 0x24 PUSH1 0x0 REVERT JUMPDEST PUSH4 0x4E487B71 PUSH1 0xE0 SHL PUSH1 0x0 MSTORE PUSH1 0x12 PUSH1 0x4 MSTORE PUSH1 0x24 PUSH1 0x0 REVERT JUMPDEST PUSH4 0x4E487B71 PUSH1 0xE0 SHL PUSH1 0x0 MSTORE PUSH1 0x31 PUSH1 0x4 MSTORE PUSH1 0x24 PUSH1 0x0 REVERT JUMPDEST PUSH4 0x4E487B71 PUSH1 0xE0 SHL PUSH1 0x0 MSTORE PUSH1 0x32 PUSH1 0x4 MSTORE PUSH1 0x24 PUSH1 0x0 REVERT JUMPDEST PUSH4 0x4E487B71 PUSH1 0xE0 SHL PUSH1 0x0 MSTORE PUSH1 0x41 PUSH1 0x4 MSTORE PUSH1 0x24 PUSH1 0x0 REVERT JUMPDEST PUSH1 0x1 PUSH1 0x1 PUSH1 0xA0 SHL SUB DUP2 AND DUP2 EQ PUSH2 0xB81 JUMPI PUSH1 0x0 DUP1 REVERT INVALID LOG2 PUSH5 0x6970667358 0x22 SLT KECCAK256 0xC9 0xB9 PUSH30 0x40545B574D716F9B077D4FA8E525526C6A8A3F7BDCE1667BDFEB1672B064 PUSH20 0x6F6C634300080700330000000000000000000000 "
		},
		"gasEstimates": {
			"creation": {
				"codeDepositCost": "2500200",
				"executionCost": "infinite",
				"totalCost": "infinite"
			},
			"external": {
				"MAX_MINT()": "2405",
				"MAX_TOKENS()": "infinite",
				"MINT_PRICE()": "2362",
				"PAID_TOKENS()": "2384",
				"approve(address,uint256)": "infinite",
				"balanceOf(address)": "2651",
				"bank()": "2427",
				"changePrice(uint256)": "24597",
				"existingCombinations(uint256)": "2527",
				"getApproved(uint256)": "4783",
				"getPaidTokens()": "2426",
				"getTokenTraits(uint256)": "3616",
				"isApprovedForAll(address,address)": "infinite",
				"loot()": "2404",
				"mint(uint256,bool)": "infinite",
				"mintCost(uint256)": "infinite",
				"minted()": "2380",
				"name()": "infinite",
				"owner()": "2443",
				"ownerOf(uint256)": "2689",
				"paused()": "2421",
				"randomSource()": "2383",
				"safeTransferFrom(address,address,uint256)": "infinite",
				"safeTransferFrom(address,address,uint256,bytes)": "infinite",
				"setApprovalForAll(address,bool)": "26763",
				"setBank(address)": "26818",
				"setPaidTokens(uint256)": "24554",
				"setPaused(bool)": "30014",
				"setRandomSource(address)": "26838",
				"setStakingActive(bool)": "26741",
				"setTraits(address)": "26751",
				"supportsInterface(bytes4)": "infinite",
				"symbol()": "infinite",
				"tokenByIndex(uint256)": "6804",
				"tokenOfOwnerByIndex(address,uint256)": "4992",
				"tokenTraits(uint256)": "2870",
				"tokenURI(uint256)": "infinite",
				"totalSupply()": "2371",
				"traits()": "2403",
				"transferFrom(address,address,uint256)": "infinite",
				"transferOwnership(address)": "infinite",
				"withdraw()": "infinite"
			},
			"internal": {
				"generate(uint256,uint256)": "infinite",
				"random(uint256)": "infinite",
				"selectRecipient(uint256)": "infinite",
				"selectTrait(uint16,uint8)": "infinite",
				"selectTraits(uint256)": "infinite",
				"structToHash(struct IPoliceAndThief.ThiefPolice memory)": "infinite"
			}
		},
		"methodIdentifiers": {
			"MAX_MINT()": "f0292a03",
			"MAX_TOKENS()": "f47c84c5",
			"MINT_PRICE()": "c002d23d",
			"PAID_TOKENS()": "c084f540",
			"approve(address,uint256)": "095ea7b3",
			"balanceOf(address)": "70a08231",
			"bank()": "76cdb03b",
			"changePrice(uint256)": "a2b40d19",
			"existingCombinations(uint256)": "a1b8f374",
			"getApproved(uint256)": "081812fc",
			"getPaidTokens()": "4018b1f8",
			"getTokenTraits(uint256)": "94e56847",
			"isApprovedForAll(address,address)": "e985e9c5",
			"loot()": "9b7b2ab0",
			"mint(uint256,bool)": "67f68fac",
			"mintCost(uint256)": "27de8f27",
			"minted()": "4f02c420",
			"name()": "06fdde03",
			"owner()": "8da5cb5b",
			"ownerOf(uint256)": "6352211e",
			"paused()": "5c975abb",
			"randomSource()": "0c89b766",
			"safeTransferFrom(address,address,uint256)": "42842e0e",
			"safeTransferFrom(address,address,uint256,bytes)": "b88d4fde",
			"setApprovalForAll(address,bool)": "a22cb465",
			"setBank(address)": "090d23b9",
			"setPaidTokens(uint256)": "3431a753",
			"setPaused(bool)": "16c38b3c",
			"setRandomSource(address)": "d773826d",
			"setStakingActive(bool)": "281105e3",
			"setTraits(address)": "6f4f7366",
			"supportsInterface(bytes4)": "01ffc9a7",
			"symbol()": "95d89b41",
			"tokenByIndex(uint256)": "4f6ccce7",
			"tokenOfOwnerByIndex(address,uint256)": "2f745c59",
			"tokenTraits(uint256)": "e05c57bf",
			"tokenURI(uint256)": "c87b56dd",
			"totalSupply()": "18160ddd",
			"traits()": "e1fc334f",
			"transferFrom(address,address,uint256)": "23b872dd",
			"transferOwnership(address)": "f2fde38b",
			"withdraw()": "3ccfd60b"
		}
	},
	"abi": [
		{
			"inputs": [
				{
					"internalType": "contract ILOOT",
					"name": "_loot",
					"type": "address"
				},
				{
					"internalType": "contract ITraits",
					"name": "_traits",
					"type": "address"
				},
				{
					"internalType": "uint256",
					"name": "_maxTokens",
					"type": "uint256"
				}
			],
			"stateMutability": "nonpayable",
			"type": "constructor"
		},
		{
			"anonymous": false,
			"inputs": [
				{
					"indexed": true,
					"internalType": "address",
					"name": "owner",
					"type": "address"
				},
				{
					"indexed": true,
					"internalType": "address",
					"name": "approved",
					"type": "address"
				},
				{
					"indexed": true,
					"internalType": "uint256",
					"name": "tokenId",
					"type": "uint256"
				}
			],
			"name": "Approval",
			"type": "event"
		},
		{
			"anonymous": false,
			"inputs": [
				{
					"indexed": true,
					"internalType": "address",
					"name": "owner",
					"type": "address"
				},
				{
					"indexed": true,
					"internalType": "address",
					"name": "operator",
					"type": "address"
				},
				{
					"indexed": false,
					"internalType": "bool",
					"name": "approved",
					"type": "bool"
				}
			],
			"name": "ApprovalForAll",
			"type": "event"
		},
		{
			"anonymous": false,
			"inputs": [
				{
					"indexed": true,
					"internalType": "address",
					"name": "previousOwner",
					"type": "address"
				},
				{
					"indexed": true,
					"internalType": "address",
					"name": "newOwner",
					"type": "address"
				}
			],
			"name": "OwnershipTransferred",
			"type": "event"
		},
		{
			"anonymous": false,
			"inputs": [
				{
					"indexed": false,
					"internalType": "address",
					"name": "account",
					"type": "address"
				}
			],
			"name": "Paused",
			"type": "event"
		},
		{
			"anonymous": false,
			"inputs": [
				{
					"indexed": true,
					"internalType": "address",
					"name": "from",
					"type": "address"
				},
				{
					"indexed": true,
					"internalType": "address",
					"name": "to",
					"type": "address"
				},
				{
					"indexed": true,
					"internalType": "uint256",
					"name": "tokenId",
					"type": "uint256"
				}
			],
			"name": "Transfer",
			"type": "event"
		},
		{
			"anonymous": false,
			"inputs": [
				{
					"indexed": false,
					"internalType": "address",
					"name": "account",
					"type": "address"
				}
			],
			"name": "Unpaused",
			"type": "event"
		},
		{
			"inputs": [],
			"name": "MAX_MINT",
			"outputs": [
				{
					"internalType": "uint256",
					"name": "",
					"type": "uint256"
				}
			],
			"stateMutability": "view",
			"type": "function"
		},
		{
			"inputs": [],
			"name": "MAX_TOKENS",
			"outputs": [
				{
					"internalType": "uint256",
					"name": "",
					"type": "uint256"
				}
			],
			"stateMutability": "view",
			"type": "function"
		},
		{
			"inputs": [],
			"name": "MINT_PRICE",
			"outputs": [
				{
					"internalType": "uint256",
					"name": "",
					"type": "uint256"
				}
			],
			"stateMutability": "view",
			"type": "function"
		},
		{
			"inputs": [],
			"name": "PAID_TOKENS",
			"outputs": [
				{
					"internalType": "uint256",
					"name": "",
					"type": "uint256"
				}
			],
			"stateMutability": "view",
			"type": "function"
		},
		{
			"inputs": [
				{
					"internalType": "address",
					"name": "to",
					"type": "address"
				},
				{
					"internalType": "uint256",
					"name": "tokenId",
					"type": "uint256"
				}
			],
			"name": "approve",
			"outputs": [],
			"stateMutability": "nonpayable",
			"type": "function"
		},
		{
			"inputs": [
				{
					"internalType": "address",
					"name": "owner",
					"type": "address"
				}
			],
			"name": "balanceOf",
			"outputs": [
				{
					"internalType": "uint256",
					"name": "",
					"type": "uint256"
				}
			],
			"stateMutability": "view",
			"type": "function"
		},
		{
			"inputs": [],
			"name": "bank",
			"outputs": [
				{
					"internalType": "contract IBank",
					"name": "",
					"type": "address"
				}
			],
			"stateMutability": "view",
			"type": "function"
		},
		{
			"inputs": [
				{
					"internalType": "uint256",
					"name": "_price",
					"type": "uint256"
				}
			],
			"name": "changePrice",
			"outputs": [],
			"stateMutability": "nonpayable",
			"type": "function"
		},
		{
			"inputs": [
				{
					"internalType": "uint256",
					"name": "",
					"type": "uint256"
				}
			],
			"name": "existingCombinations",
			"outputs": [
				{
					"internalType": "uint256",
					"name": "",
					"type": "uint256"
				}
			],
			"stateMutability": "view",
			"type": "function"
		},
		{
			"inputs": [
				{
					"internalType": "uint256",
					"name": "tokenId",
					"type": "uint256"
				}
			],
			"name": "getApproved",
			"outputs": [
				{
					"internalType": "address",
					"name": "",
					"type": "address"
				}
			],
			"stateMutability": "view",
			"type": "function"
		},
		{
			"inputs": [],
			"name": "getPaidTokens",
			"outputs": [
				{
					"internalType": "uint256",
					"name": "",
					"type": "uint256"
				}
			],
			"stateMutability": "view",
			"type": "function"
		},
		{
			"inputs": [
				{
					"internalType": "uint256",
					"name": "tokenId",
					"type": "uint256"
				}
			],
			"name": "getTokenTraits",
			"outputs": [
				{
					"components": [
						{
							"internalType": "bool",
							"name": "isThief",
							"type": "bool"
						},
						{
							"internalType": "uint8",
							"name": "uniform",
							"type": "uint8"
						},
						{
							"internalType": "uint8",
							"name": "hair",
							"type": "uint8"
						},
						{
							"internalType": "uint8",
							"name": "eyes",
							"type": "uint8"
						},
						{
							"internalType": "uint8",
							"name": "facialHair",
							"type": "uint8"
						},
						{
							"internalType": "uint8",
							"name": "headgear",
							"type": "uint8"
						},
						{
							"internalType": "uint8",
							"name": "neckGear",
							"type": "uint8"
						},
						{
							"internalType": "uint8",
							"name": "accessory",
							"type": "uint8"
						},
						{
							"internalType": "uint8",
							"name": "alphaIndex",
							"type": "uint8"
						}
					],
					"internalType": "struct IPoliceAndThief.ThiefPolice",
					"name": "",
					"type": "tuple"
				}
			],
			"stateMutability": "view",
			"type": "function"
		},
		{
			"inputs": [
				{
					"internalType": "address",
					"name": "owner",
					"type": "address"
				},
				{
					"internalType": "address",
					"name": "operator",
					"type": "address"
				}
			],
			"name": "isApprovedForAll",
			"outputs": [
				{
					"internalType": "bool",
					"name": "",
					"type": "bool"
				}
			],
			"stateMutability": "view",
			"type": "function"
		},
		{
			"inputs": [],
			"name": "loot",
			"outputs": [
				{
					"internalType": "contract ILOOT",
					"name": "",
					"type": "address"
				}
			],
			"stateMutability": "view",
			"type": "function"
		},
		{
			"inputs": [
				{
					"internalType": "uint256",
					"name": "amount",
					"type": "uint256"
				},
				{
					"internalType": "bool",
					"name": "stake",
					"type": "bool"
				}
			],
			"name": "mint",
			"outputs": [],
			"stateMutability": "payable",
			"type": "function"
		},
		{
			"inputs": [
				{
					"internalType": "uint256",
					"name": "tokenId",
					"type": "uint256"
				}
			],
			"name": "mintCost",
			"outputs": [
				{
					"internalType": "uint256",
					"name": "",
					"type": "uint256"
				}
			],
			"stateMutability": "view",
			"type": "function"
		},
		{
			"inputs": [],
			"name": "minted",
			"outputs": [
				{
					"internalType": "uint16",
					"name": "",
					"type": "uint16"
				}
			],
			"stateMutability": "view",
			"type": "function"
		},
		{
			"inputs": [],
			"name": "name",
			"outputs": [
				{
					"internalType": "string",
					"name": "",
					"type": "string"
				}
			],
			"stateMutability": "view",
			"type": "function"
		},
		{
			"inputs": [],
			"name": "owner",
			"outputs": [
				{
					"internalType": "address",
					"name": "",
					"type": "address"
				}
			],
			"stateMutability": "view",
			"type": "function"
		},
		{
			"inputs": [
				{
					"internalType": "uint256",
					"name": "tokenId",
					"type": "uint256"
				}
			],
			"name": "ownerOf",
			"outputs": [
				{
					"internalType": "address",
					"name": "",
					"type": "address"
				}
			],
			"stateMutability": "view",
			"type": "function"
		},
		{
			"inputs": [],
			"name": "paused",
			"outputs": [
				{
					"internalType": "bool",
					"name": "",
					"type": "bool"
				}
			],
			"stateMutability": "view",
			"type": "function"
		},
		{
			"inputs": [],
			"name": "randomSource",
			"outputs": [
				{
					"internalType": "contract ISeed",
					"name": "",
					"type": "address"
				}
			],
			"stateMutability": "view",
			"type": "function"
		},
		{
			"inputs": [
				{
					"internalType": "address",
					"name": "from",
					"type": "address"
				},
				{
					"internalType": "address",
					"name": "to",
					"type": "address"
				},
				{
					"internalType": "uint256",
					"name": "tokenId",
					"type": "uint256"
				}
			],
			"name": "safeTransferFrom",
			"outputs": [],
			"stateMutability": "nonpayable",
			"type": "function"
		},
		{
			"inputs": [
				{
					"internalType": "address",
					"name": "from",
					"type": "address"
				},
				{
					"internalType": "address",
					"name": "to",
					"type": "address"
				},
				{
					"internalType": "uint256",
					"name": "tokenId",
					"type": "uint256"
				},
				{
					"internalType": "bytes",
					"name": "_data",
					"type": "bytes"
				}
			],
			"name": "safeTransferFrom",
			"outputs": [],
			"stateMutability": "nonpayable",
			"type": "function"
		},
		{
			"inputs": [
				{
					"internalType": "address",
					"name": "operator",
					"type": "address"
				},
				{
					"internalType": "bool",
					"name": "approved",
					"type": "bool"
				}
			],
			"name": "setApprovalForAll",
			"outputs": [],
			"stateMutability": "nonpayable",
			"type": "function"
		},
		{
			"inputs": [
				{
					"internalType": "address",
					"name": "_bank",
					"type": "address"
				}
			],
			"name": "setBank",
			"outputs": [],
			"stateMutability": "nonpayable",
			"type": "function"
		},
		{
			"inputs": [
				{
					"internalType": "uint256",
					"name": "_paidTokens",
					"type": "uint256"
				}
			],
			"name": "setPaidTokens",
			"outputs": [],
			"stateMutability": "nonpayable",
			"type": "function"
		},
		{
			"inputs": [
				{
					"internalType": "bool",
					"name": "_paused",
					"type": "bool"
				}
			],
			"name": "setPaused",
			"outputs": [],
			"stateMutability": "nonpayable",
			"type": "function"
		},
		{
			"inputs": [
				{
					"internalType": "contract ISeed",
					"name": "_seed",
					"type": "address"
				}
			],
			"name": "setRandomSource",
			"outputs": [],
			"stateMutability": "nonpayable",
			"type": "function"
		},
		{
			"inputs": [
				{
					"internalType": "bool",
					"name": "_staking",
					"type": "bool"
				}
			],
			"name": "setStakingActive",
			"outputs": [],
			"stateMutability": "nonpayable",
			"type": "function"
		},
		{
			"inputs": [
				{
					"internalType": "contract ITraits",
					"name": "addr",
					"type": "address"
				}
			],
			"name": "setTraits",
			"outputs": [],
			"stateMutability": "nonpayable",
			"type": "function"
		},
		{
			"inputs": [
				{
					"internalType": "bytes4",
					"name": "interfaceId",
					"type": "bytes4"
				}
			],
			"name": "supportsInterface",
			"outputs": [
				{
					"internalType": "bool",
					"name": "",
					"type": "bool"
				}
			],
			"stateMutability": "view",
			"type": "function"
		},
		{
			"inputs": [],
			"name": "symbol",
			"outputs": [
				{
					"internalType": "string",
					"name": "",
					"type": "string"
				}
			],
			"stateMutability": "view",
			"type": "function"
		},
		{
			"inputs": [
				{
					"internalType": "uint256",
					"name": "index",
					"type": "uint256"
				}
			],
			"name": "tokenByIndex",
			"outputs": [
				{
					"internalType": "uint256",
					"name": "",
					"type": "uint256"
				}
			],
			"stateMutability": "view",
			"type": "function"
		},
		{
			"inputs": [
				{
					"internalType": "address",
					"name": "owner",
					"type": "address"
				},
				{
					"internalType": "uint256",
					"name": "index",
					"type": "uint256"
				}
			],
			"name": "tokenOfOwnerByIndex",
			"outputs": [
				{
					"internalType": "uint256",
					"name": "",
					"type": "uint256"
				}
			],
			"stateMutability": "view",
			"type": "function"
		},
		{
			"inputs": [
				{
					"internalType": "uint256",
					"name": "",
					"type": "uint256"
				}
			],
			"name": "tokenTraits",
			"outputs": [
				{
					"internalType": "bool",
					"name": "isThief",
					"type": "bool"
				},
				{
					"internalType": "uint8",
					"name": "uniform",
					"type": "uint8"
				},
				{
					"internalType": "uint8",
					"name": "hair",
					"type": "uint8"
				},
				{
					"internalType": "uint8",
					"name": "eyes",
					"type": "uint8"
				},
				{
					"internalType": "uint8",
					"name": "facialHair",
					"type": "uint8"
				},
				{
					"internalType": "uint8",
					"name": "headgear",
					"type": "uint8"
				},
				{
					"internalType": "uint8",
					"name": "neckGear",
					"type": "uint8"
				},
				{
					"internalType": "uint8",
					"name": "accessory",
					"type": "uint8"
				},
				{
					"internalType": "uint8",
					"name": "alphaIndex",
					"type": "uint8"
				}
			],
			"stateMutability": "view",
			"type": "function"
		},
		{
			"inputs": [
				{
					"internalType": "uint256",
					"name": "tokenId",
					"type": "uint256"
				}
			],
			"name": "tokenURI",
			"outputs": [
				{
					"internalType": "string",
					"name": "",
					"type": "string"
				}
			],
			"stateMutability": "view",
			"type": "function"
		},
		{
			"inputs": [],
			"name": "totalSupply",
			"outputs": [
				{
					"internalType": "uint256",
					"name": "",
					"type": "uint256"
				}
			],
			"stateMutability": "view",
			"type": "function"
		},
		{
			"inputs": [],
			"name": "traits",
			"outputs": [
				{
					"internalType": "contract ITraits",
					"name": "",
					"type": "address"
				}
			],
			"stateMutability": "view",
			"type": "function"
		},
		{
			"inputs": [
				{
					"internalType": "address",
					"name": "from",
					"type": "address"
				},
				{
					"internalType": "address",
					"name": "to",
					"type": "address"
				},
				{
					"internalType": "uint256",
					"name": "tokenId",
					"type": "uint256"
				}
			],
			"name": "transferFrom",
			"outputs": [],
			"stateMutability": "nonpayable",
			"type": "function"
		},
		{
			"inputs": [
				{
					"internalType": "address",
					"name": "newOwner",
					"type": "address"
				}
			],
			"name": "transferOwnership",
			"outputs": [],
			"stateMutability": "nonpayable",
			"type": "function"
		},
		{
			"inputs": [],
			"name": "withdraw",
			"outputs": [],
			"stateMutability": "nonpayable",
			"type": "function"
		}
	]
}